{
  "contractName": "BlindAuction",
  "abi": [
    {
      "inputs": [
        {
          "internalType": "address",
          "name": "",
          "type": "address"
        },
        {
          "internalType": "uint32",
          "name": "",
          "type": "uint32"
        }
      ],
      "name": "Auction_Objects",
      "outputs": [
        {
          "internalType": "address payable",
          "name": "beneficiary",
          "type": "address"
        },
        {
          "internalType": "address",
          "name": "NFT_contract_address",
          "type": "address"
        },
        {
          "internalType": "uint32",
          "name": "NFT_tokenID",
          "type": "uint32"
        },
        {
          "internalType": "uint256",
          "name": "min_loan_amount",
          "type": "uint256"
        },
        {
          "internalType": "uint256",
          "name": "max_interest_rate",
          "type": "uint256"
        },
        {
          "internalType": "uint256",
          "name": "min_repayment_period",
          "type": "uint256"
        },
        {
          "internalType": "uint256",
          "name": "auctionEndTime",
          "type": "uint256"
        },
        {
          "internalType": "bool",
          "name": "bidSelected",
          "type": "bool"
        },
        {
          "components": [
            {
              "internalType": "uint256",
              "name": "loan_amount",
              "type": "uint256"
            },
            {
              "internalType": "uint256",
              "name": "interest_rate",
              "type": "uint256"
            },
            {
              "internalType": "uint256",
              "name": "repayment_time",
              "type": "uint256"
            },
            {
              "internalType": "address",
              "name": "bidder_address",
              "type": "address"
            }
          ],
          "internalType": "struct BlindAuction.RevealedBid",
          "name": "selectedBid",
          "type": "tuple"
        },
        {
          "internalType": "bool",
          "name": "auctionEnded",
          "type": "bool"
        },
        {
          "internalType": "bool",
          "name": "auctionCanceled",
          "type": "bool"
        },
        {
          "internalType": "bool",
          "name": "allBidsRevealed",
          "type": "bool"
        }
      ],
      "stateMutability": "view",
      "type": "function",
      "constant": true
    },
    {
      "inputs": [
        {
          "internalType": "address",
          "name": "",
          "type": "address"
        },
        {
          "internalType": "uint32",
          "name": "",
          "type": "uint32"
        },
        {
          "internalType": "address",
          "name": "",
          "type": "address"
        },
        {
          "internalType": "uint256",
          "name": "",
          "type": "uint256"
        }
      ],
      "name": "allBlindedBids",
      "outputs": [
        {
          "internalType": "bytes32",
          "name": "hashedBidVal",
          "type": "bytes32"
        },
        {
          "internalType": "address",
          "name": "bidder_address",
          "type": "address"
        },
        {
          "internalType": "uint256",
          "name": "depositValue",
          "type": "uint256"
        }
      ],
      "stateMutability": "view",
      "type": "function",
      "constant": true
    },
    {
      "inputs": [
        {
          "internalType": "address",
          "name": "",
          "type": "address"
        },
        {
          "internalType": "uint32",
          "name": "",
          "type": "uint32"
        },
        {
          "internalType": "address",
          "name": "",
          "type": "address"
        }
      ],
      "name": "eligibleWithdrawals",
      "outputs": [
        {
          "internalType": "uint256",
          "name": "",
          "type": "uint256"
        }
      ],
      "stateMutability": "view",
      "type": "function",
      "constant": true
    },
    {
      "inputs": [
        {
          "internalType": "uint256",
          "name": "min_loan_amount",
          "type": "uint256"
        },
        {
          "internalType": "uint256",
          "name": "max_interest_rate",
          "type": "uint256"
        },
        {
          "internalType": "uint256",
          "name": "min_repayment_period",
          "type": "uint256"
        },
        {
          "internalType": "address",
          "name": "NFT_contract_address",
          "type": "address"
        },
        {
          "internalType": "uint32",
          "name": "NFT_tokenID",
          "type": "uint32"
        },
        {
          "internalType": "uint256",
          "name": "auction_duration",
          "type": "uint256"
        }
      ],
      "name": "startAuction",
      "outputs": [],
      "stateMutability": "nonpayable",
      "type": "function"
    },
    {
      "inputs": [
        {
          "internalType": "uint256",
          "name": "loan_amt",
          "type": "uint256"
        },
        {
          "internalType": "uint256",
          "name": "int_rate",
          "type": "uint256"
        },
        {
          "internalType": "uint256",
          "name": "repayment_period",
          "type": "uint256"
        },
        {
          "internalType": "bool",
          "name": "fake",
          "type": "bool"
        },
        {
          "internalType": "address",
          "name": "NFT_contract_address",
          "type": "address"
        },
        {
          "internalType": "uint32",
          "name": "NFT_tokenID",
          "type": "uint32"
        }
      ],
      "name": "makeBid",
      "outputs": [],
      "stateMutability": "payable",
      "type": "function",
      "payable": true
    },
    {
      "inputs": [
        {
          "internalType": "uint256[][]",
          "name": "allSentLoanTerms",
          "type": "uint256[][]"
        },
        {
          "internalType": "bool[]",
          "name": "fake_",
          "type": "bool[]"
        },
        {
          "internalType": "address",
          "name": "NFT_contract_address",
          "type": "address"
        },
        {
          "internalType": "uint32",
          "name": "NFT_tokenID",
          "type": "uint32"
        }
      ],
      "name": "revealBid",
      "outputs": [],
      "stateMutability": "nonpayable",
      "type": "function"
    },
    {
      "inputs": [
        {
          "internalType": "address",
          "name": "selectedLender",
          "type": "address"
        },
        {
          "internalType": "uint256",
          "name": "bidID",
          "type": "uint256"
        },
        {
          "internalType": "address",
          "name": "NFT_contract_address",
          "type": "address"
        },
        {
          "internalType": "uint32",
          "name": "NFT_tokenID",
          "type": "uint32"
        },
        {
          "internalType": "address",
          "name": "Loan_contract_adderss",
          "type": "address"
        }
      ],
      "name": "selectBid",
      "outputs": [],
      "stateMutability": "nonpayable",
      "type": "function"
    },
    {
      "inputs": [
        {
          "internalType": "address",
          "name": "NFT_contract_address",
          "type": "address"
        },
        {
          "internalType": "uint32",
          "name": "NFT_tokenID",
          "type": "uint32"
        }
      ],
      "name": "endAuction",
      "outputs": [],
      "stateMutability": "nonpayable",
      "type": "function"
    },
    {
      "inputs": [
        {
          "internalType": "address",
          "name": "NFT_contract_address",
          "type": "address"
        },
        {
          "internalType": "uint32",
          "name": "NFT_tokenID",
          "type": "uint32"
        }
      ],
      "name": "cancelAuction",
      "outputs": [],
      "stateMutability": "nonpayable",
      "type": "function"
    },
    {
      "inputs": [
        {
          "internalType": "address",
          "name": "NFT_contract_address",
          "type": "address"
        },
        {
          "internalType": "uint32",
          "name": "NFT_tokenID",
          "type": "uint32"
        }
      ],
      "name": "withdraw",
      "outputs": [],
      "stateMutability": "nonpayable",
      "type": "function"
    },
    {
      "inputs": [
        {
          "internalType": "address",
          "name": "NFT_contract_address",
          "type": "address"
        },
        {
          "internalType": "uint32",
          "name": "NFT_tokenID",
          "type": "uint32"
        }
      ],
      "name": "getAuctionObject",
      "outputs": [
        {
          "components": [
            {
              "internalType": "address payable",
              "name": "beneficiary",
              "type": "address"
            },
            {
              "internalType": "address",
              "name": "NFT_contract_address",
              "type": "address"
            },
            {
              "internalType": "uint32",
              "name": "NFT_tokenID",
              "type": "uint32"
            },
            {
              "internalType": "uint256",
              "name": "min_loan_amount",
              "type": "uint256"
            },
            {
              "internalType": "uint256",
              "name": "max_interest_rate",
              "type": "uint256"
            },
            {
              "internalType": "uint256",
              "name": "min_repayment_period",
              "type": "uint256"
            },
            {
              "components": [
                {
                  "internalType": "bytes32",
                  "name": "hashedBidVal",
                  "type": "bytes32"
                },
                {
                  "internalType": "address",
                  "name": "bidder_address",
                  "type": "address"
                },
                {
                  "internalType": "uint256",
                  "name": "depositValue",
                  "type": "uint256"
                }
              ],
              "internalType": "struct BlindAuction.BlindedBid[]",
              "name": "blindedBids",
              "type": "tuple[]"
            },
            {
              "components": [
                {
                  "internalType": "uint256",
                  "name": "loan_amount",
                  "type": "uint256"
                },
                {
                  "internalType": "uint256",
                  "name": "interest_rate",
                  "type": "uint256"
                },
                {
                  "internalType": "uint256",
                  "name": "repayment_time",
                  "type": "uint256"
                },
                {
                  "internalType": "address",
                  "name": "bidder_address",
                  "type": "address"
                }
              ],
              "internalType": "struct BlindAuction.RevealedBid[]",
              "name": "revealedBids",
              "type": "tuple[]"
            },
            {
              "internalType": "uint256",
              "name": "auctionEndTime",
              "type": "uint256"
            },
            {
              "internalType": "bool",
              "name": "bidSelected",
              "type": "bool"
            },
            {
              "components": [
                {
                  "internalType": "uint256",
                  "name": "loan_amount",
                  "type": "uint256"
                },
                {
                  "internalType": "uint256",
                  "name": "interest_rate",
                  "type": "uint256"
                },
                {
                  "internalType": "uint256",
                  "name": "repayment_time",
                  "type": "uint256"
                },
                {
                  "internalType": "address",
                  "name": "bidder_address",
                  "type": "address"
                }
              ],
              "internalType": "struct BlindAuction.RevealedBid",
              "name": "selectedBid",
              "type": "tuple"
            },
            {
              "internalType": "bool",
              "name": "auctionEnded",
              "type": "bool"
            },
            {
              "internalType": "bool",
              "name": "auctionCanceled",
              "type": "bool"
            },
            {
              "internalType": "bool",
              "name": "allBidsRevealed",
              "type": "bool"
            }
          ],
          "internalType": "struct BlindAuction.Auction_Object",
          "name": "Auct_Obj",
          "type": "tuple"
        }
      ],
      "stateMutability": "view",
      "type": "function",
      "constant": true
    },
    {
      "inputs": [],
      "name": "getAllAuctionObjects",
      "outputs": [
        {
          "components": [
            {
              "internalType": "address payable",
              "name": "beneficiary",
              "type": "address"
            },
            {
              "internalType": "address",
              "name": "NFT_contract_address",
              "type": "address"
            },
            {
              "internalType": "uint32",
              "name": "NFT_tokenID",
              "type": "uint32"
            },
            {
              "internalType": "uint256",
              "name": "min_loan_amount",
              "type": "uint256"
            },
            {
              "internalType": "uint256",
              "name": "max_interest_rate",
              "type": "uint256"
            },
            {
              "internalType": "uint256",
              "name": "min_repayment_period",
              "type": "uint256"
            },
            {
              "components": [
                {
                  "internalType": "bytes32",
                  "name": "hashedBidVal",
                  "type": "bytes32"
                },
                {
                  "internalType": "address",
                  "name": "bidder_address",
                  "type": "address"
                },
                {
                  "internalType": "uint256",
                  "name": "depositValue",
                  "type": "uint256"
                }
              ],
              "internalType": "struct BlindAuction.BlindedBid[]",
              "name": "blindedBids",
              "type": "tuple[]"
            },
            {
              "components": [
                {
                  "internalType": "uint256",
                  "name": "loan_amount",
                  "type": "uint256"
                },
                {
                  "internalType": "uint256",
                  "name": "interest_rate",
                  "type": "uint256"
                },
                {
                  "internalType": "uint256",
                  "name": "repayment_time",
                  "type": "uint256"
                },
                {
                  "internalType": "address",
                  "name": "bidder_address",
                  "type": "address"
                }
              ],
              "internalType": "struct BlindAuction.RevealedBid[]",
              "name": "revealedBids",
              "type": "tuple[]"
            },
            {
              "internalType": "uint256",
              "name": "auctionEndTime",
              "type": "uint256"
            },
            {
              "internalType": "bool",
              "name": "bidSelected",
              "type": "bool"
            },
            {
              "components": [
                {
                  "internalType": "uint256",
                  "name": "loan_amount",
                  "type": "uint256"
                },
                {
                  "internalType": "uint256",
                  "name": "interest_rate",
                  "type": "uint256"
                },
                {
                  "internalType": "uint256",
                  "name": "repayment_time",
                  "type": "uint256"
                },
                {
                  "internalType": "address",
                  "name": "bidder_address",
                  "type": "address"
                }
              ],
              "internalType": "struct BlindAuction.RevealedBid",
              "name": "selectedBid",
              "type": "tuple"
            },
            {
              "internalType": "bool",
              "name": "auctionEnded",
              "type": "bool"
            },
            {
              "internalType": "bool",
              "name": "auctionCanceled",
              "type": "bool"
            },
            {
              "internalType": "bool",
              "name": "allBidsRevealed",
              "type": "bool"
            }
          ],
          "internalType": "struct BlindAuction.Auction_Object[]",
          "name": "Auct_Objs",
          "type": "tuple[]"
        }
      ],
      "stateMutability": "view",
      "type": "function",
      "constant": true
    },
    {
      "inputs": [
        {
          "internalType": "address",
          "name": "NFT_contract_address",
          "type": "address"
        },
        {
          "internalType": "uint32",
          "name": "NFT_tokenID",
          "type": "uint32"
        }
      ],
      "name": "removeNFTListing",
      "outputs": [],
      "stateMutability": "nonpayable",
      "type": "function"
    },
    {
      "inputs": [
        {
          "internalType": "address",
          "name": "NFT_contract_address",
          "type": "address"
        },
        {
          "internalType": "uint32",
          "name": "NFT_tokenID",
          "type": "uint32"
        }
      ],
      "name": "deleteAuction",
      "outputs": [],
      "stateMutability": "nonpayable",
      "type": "function"
    },
    {
      "inputs": [
        {
          "internalType": "address",
          "name": "NFT_contract_address",
          "type": "address"
        },
        {
          "internalType": "uint32",
          "name": "NFT_tokenID",
          "type": "uint32"
        }
      ],
      "name": "showEligibleWithdrawal",
      "outputs": [
        {
          "internalType": "uint256",
          "name": "",
          "type": "uint256"
        }
      ],
      "stateMutability": "view",
      "type": "function",
      "constant": true
    }
  ],
  "bytecode": "0x60806040526000600460006101000a81548163ffffffff021916908363ffffffff16021790555034801561003257600080fd5b50614fda806100426000396000f3fe6080604052600436106100e85760003560e01c80637bec28fd1161008a578063cafbe9fd11610059578063cafbe9fd14610302578063d742ec191461033f578063f229965f14610368578063fc30239514610391576100e8565b80637bec28fd1461022b5780638287e9c214610273578063959ad78c1461029c578063c59b0dc2146102c5576100e8565b80632f0a4892116100c65780632f0a48921461017157806330e093c81461019a5780635dcacbf4146101c557806379c8852814610202576100e8565b80630a822bfb146100ed5780631227fabe1461012c578063257b893714610148575b600080fd5b3480156100f957600080fd5b50610114600480360381019061010f9190613a40565b6103ba565b60405161012393929190614631565b60405180910390f35b61014660048036038101906101419190613c11565b61043b565b005b34801561015457600080fd5b5061016f600480360381019061016a91906139b5565b61080d565b005b34801561017d57600080fd5b5061019860048036038101906101939190613b88565b610979565b005b3480156101a657600080fd5b506101af6112d9565b6040516101bc919061460f565b60405180910390f35b3480156101d157600080fd5b506101ec60048036038101906101e791906139b5565b6116c3565b6040516101f991906147ea565b60405180910390f35b34801561020e57600080fd5b50610229600480360381019061022491906139b5565b611767565b005b34801561023757600080fd5b50610252600480360381019061024d91906139b5565b611889565b60405161026a9c9b9a99989796959493929190614503565b60405180910390f35b34801561027f57600080fd5b5061029a6004803603810190610295919061393e565b6119f8565b005b3480156102a857600080fd5b506102c360048036038101906102be9190613aa3565b611fba565b005b3480156102d157600080fd5b506102ec60048036038101906102e791906139b5565b6125c4565b6040516102f991906147c8565b60405180910390f35b34801561030e57600080fd5b50610329600480360381019061032491906139f1565b6129c5565b60405161033691906147ea565b60405180910390f35b34801561034b57600080fd5b50610366600480360381019061036191906139b5565b6129f7565b005b34801561037457600080fd5b5061038f600480360381019061038a91906139b5565b612f16565b005b34801561039d57600080fd5b506103b860048036038101906103b391906139b5565b61308d565b005b600160205283600052604060002060205282600052604060002060205281600052604060002081815481106103ee57600080fd5b90600052602060002090600302016000935093505050508060000154908060010160009054906101000a900473ffffffffffffffffffffffffffffffffffffffff16908060020154905083565b60008060008473ffffffffffffffffffffffffffffffffffffffff1673ffffffffffffffffffffffffffffffffffffffff16815260200190815260200160002060008363ffffffff1663ffffffff168152602001908152602001600020905060006104a888888888613322565b90506000600160008673ffffffffffffffffffffffffffffffffffffffff1673ffffffffffffffffffffffffffffffffffffffff16815260200190815260200160002060008563ffffffff1663ffffffff16815260200190815260200160002060003373ffffffffffffffffffffffffffffffffffffffff1673ffffffffffffffffffffffffffffffffffffffff168152602001908152602001600020905060005b81805490508110156105f65782828281548110610590577f4e487b7100000000000000000000000000000000000000000000000000000000600052603260045260246000fd5b90600052602060002090600302016000015414156105e3576040517f08c379a00000000000000000000000000000000000000000000000000000000081526004016105da906146a8565b60405180910390fd5b80806105ee90614bcd565b91505061054a565b508260050160405180606001604052808481526020013373ffffffffffffffffffffffffffffffffffffffff1681526020013481525090806001815401808255809150506001900390600052602060002090600302016000909190919091506000820151816000015560208201518160010160006101000a81548173ffffffffffffffffffffffffffffffffffffffff021916908373ffffffffffffffffffffffffffffffffffffffff160217905550604082015181600201555050600160008673ffffffffffffffffffffffffffffffffffffffff1673ffffffffffffffffffffffffffffffffffffffff16815260200190815260200160002060008563ffffffff1663ffffffff16815260200190815260200160002060003373ffffffffffffffffffffffffffffffffffffffff1673ffffffffffffffffffffffffffffffffffffffff16815260200190815260200160002060405180606001604052808481526020013373ffffffffffffffffffffffffffffffffffffffff1681526020013481525090806001815401808255809150506001900390600052602060002090600302016000909190919091506000820151816000015560208201518160010160006101000a81548173ffffffffffffffffffffffffffffffffffffffff021916908373ffffffffffffffffffffffffffffffffffffffff160217905550604082015181600201555050505050505050505050565b60008060008473ffffffffffffffffffffffffffffffffffffffff1673ffffffffffffffffffffffffffffffffffffffff16815260200190815260200160002060008363ffffffff1663ffffffff168152602001908152602001600020905080600d0160009054906101000a900460ff16156108be576040517f08c379a00000000000000000000000000000000000000000000000000000000081526004016108b5906146c8565b60405180910390fd5b80600d0160019054906101000a900460ff1615610910576040517f08c379a000000000000000000000000000000000000000000000000000000000815260040161090790614768565b60405180910390fd5b8060070154421015610957576040517f08c379a000000000000000000000000000000000000000000000000000000000815260040161094e90614708565b60405180910390fd5b600181600d0160006101000a81548160ff021916908315150217905550505050565b600560008473ffffffffffffffffffffffffffffffffffffffff1673ffffffffffffffffffffffffffffffffffffffff16815260200190815260200160002060008363ffffffff1663ffffffff16815260200190815260200160002060009054906101000a900460ff1615610a23576040517f08c379a0000000000000000000000000000000000000000000000000000000008152600401610a1a90614788565b60405180910390fd5b60008390508073ffffffffffffffffffffffffffffffffffffffff16633a40491785856040518363ffffffff1660e01b8152600401610a639291906145bd565b602060405180830381600087803b158015610a7d57600080fd5b505af1158015610a91573d6000803e3d6000fd5b505050506040513d601f19601f82011682018060405250810190610ab59190613b36565b5060008060008673ffffffffffffffffffffffffffffffffffffffff1673ffffffffffffffffffffffffffffffffffffffff16815260200190815260200160002060008563ffffffff1663ffffffff1681526020019081526020016000209050338160000160006101000a81548173ffffffffffffffffffffffffffffffffffffffff021916908373ffffffffffffffffffffffffffffffffffffffff160217905550878160020181905550868160030181905550858160040181905550848160010160006101000a81548173ffffffffffffffffffffffffffffffffffffffff021916908373ffffffffffffffffffffffffffffffffffffffff160217905550838160010160146101000a81548163ffffffff021916908363ffffffff160217905550610e1083610be79190614a54565b42610bf291906149c4565b816007018190555060008160080160006101000a81548160ff021916908315150217905550600081600d0160016101000a81548160ff021916908315150217905550600081600d0160026101000a81548160ff021916908315150217905550806000808773ffffffffffffffffffffffffffffffffffffffff1673ffffffffffffffffffffffffffffffffffffffff16815260200190815260200160002060008663ffffffff1663ffffffff1681526020019081526020016000206000820160009054906101000a900473ffffffffffffffffffffffffffffffffffffffff168160000160006101000a81548173ffffffffffffffffffffffffffffffffffffffff021916908373ffffffffffffffffffffffffffffffffffffffff1602179055506001820160009054906101000a900473ffffffffffffffffffffffffffffffffffffffff168160010160006101000a81548173ffffffffffffffffffffffffffffffffffffffff021916908373ffffffffffffffffffffffffffffffffffffffff1602179055506001820160149054906101000a900463ffffffff168160010160146101000a81548163ffffffff021916908363ffffffff1602179055506002820154816002015560038201548160030155600482015481600401556005820181600501908054610de692919061335b565b506006820181600601908054610dfd92919061342e565b50600782015481600701556008820160009054906101000a900460ff168160080160006101000a81548160ff02191690831515021790555060098201816009016000820154816000015560018201548160010155600282015481600201556003820160009054906101000a900473ffffffffffffffffffffffffffffffffffffffff168160030160006101000a81548173ffffffffffffffffffffffffffffffffffffffff021916908373ffffffffffffffffffffffffffffffffffffffff1602179055505050600d820160009054906101000a900460ff1681600d0160006101000a81548160ff021916908315150217905550600d820160019054906101000a900460ff1681600d0160016101000a81548160ff021916908315150217905550600d820160029054906101000a900460ff1681600d0160026101000a81548160ff0219169083151502179055509050506001600560008773ffffffffffffffffffffffffffffffffffffffff1673ffffffffffffffffffffffffffffffffffffffff16815260200190815260200160002060008663ffffffff1663ffffffff16815260200190815260200160002060006101000a81548160ff02191690831515021790555060038190806001815401808255809150506001900390600052602060002090600e02016000909190919091506000820160009054906101000a900473ffffffffffffffffffffffffffffffffffffffff168160000160006101000a81548173ffffffffffffffffffffffffffffffffffffffff021916908373ffffffffffffffffffffffffffffffffffffffff1602179055506001820160009054906101000a900473ffffffffffffffffffffffffffffffffffffffff168160010160006101000a81548173ffffffffffffffffffffffffffffffffffffffff021916908373ffffffffffffffffffffffffffffffffffffffff1602179055506001820160149054906101000a900463ffffffff168160010160146101000a81548163ffffffff021916908363ffffffff160217905550600282015481600201556003820154816003015560048201548160040155600582018160050190805461112892919061335b565b50600682018160060190805461113f92919061342e565b50600782015481600701556008820160009054906101000a900460ff168160080160006101000a81548160ff02191690831515021790555060098201816009016000820154816000015560018201548160010155600282015481600201556003820160009054906101000a900473ffffffffffffffffffffffffffffffffffffffff168160030160006101000a81548173ffffffffffffffffffffffffffffffffffffffff021916908373ffffffffffffffffffffffffffffffffffffffff1602179055505050600d820160009054906101000a900460ff1681600d0160006101000a81548160ff021916908315150217905550600d820160019054906101000a900460ff1681600d0160016101000a81548160ff021916908315150217905550600d820160029054906101000a900460ff1681600d0160026101000a81548160ff02191690831515021790555050506001600460008282829054906101000a900463ffffffff166112b19190614a1a565b92506101000a81548163ffffffff021916908363ffffffff1602179055505050505050505050565b60606003805480602002602001604051908101604052809291908181526020016000905b828210156116ba57838290600052602060002090600e0201604051806101c00160405290816000820160009054906101000a900473ffffffffffffffffffffffffffffffffffffffff1673ffffffffffffffffffffffffffffffffffffffff1673ffffffffffffffffffffffffffffffffffffffff1681526020016001820160009054906101000a900473ffffffffffffffffffffffffffffffffffffffff1673ffffffffffffffffffffffffffffffffffffffff1673ffffffffffffffffffffffffffffffffffffffff1681526020016001820160149054906101000a900463ffffffff1663ffffffff1663ffffffff16815260200160028201548152602001600382015481526020016004820154815260200160058201805480602002602001604051908101604052809291908181526020016000905b828210156114d25783829060005260206000209060030201604051806060016040529081600082015481526020016001820160009054906101000a900473ffffffffffffffffffffffffffffffffffffffff1673ffffffffffffffffffffffffffffffffffffffff1673ffffffffffffffffffffffffffffffffffffffff16815260200160028201548152505081526020019060010190611436565b50505050815260200160068201805480602002602001604051908101604052809291908181526020016000905b828210156115a557838290600052602060002090600402016040518060800160405290816000820154815260200160018201548152602001600282015481526020016003820160009054906101000a900473ffffffffffffffffffffffffffffffffffffffff1673ffffffffffffffffffffffffffffffffffffffff1673ffffffffffffffffffffffffffffffffffffffff1681525050815260200190600101906114ff565b505050508152602001600782015481526020016008820160009054906101000a900460ff16151515158152602001600982016040518060800160405290816000820154815260200160018201548152602001600282015481526020016003820160009054906101000a900473ffffffffffffffffffffffffffffffffffffffff1673ffffffffffffffffffffffffffffffffffffffff1673ffffffffffffffffffffffffffffffffffffffff16815250508152602001600d820160009054906101000a900460ff16151515158152602001600d820160019054906101000a900460ff16151515158152602001600d820160029054906101000a900460ff161515151581525050815260200190600101906112fd565b50505050905090565b6000600260008473ffffffffffffffffffffffffffffffffffffffff1673ffffffffffffffffffffffffffffffffffffffff16815260200190815260200160002060008363ffffffff1663ffffffff16815260200190815260200160002060003373ffffffffffffffffffffffffffffffffffffffff1673ffffffffffffffffffffffffffffffffffffffff16815260200190815260200160002054905092915050565b600560008373ffffffffffffffffffffffffffffffffffffffff1673ffffffffffffffffffffffffffffffffffffffff16815260200190815260200160002060008263ffffffff1663ffffffff16815260200190815260200160002060009054906101000a900460ff16611810576040517f08c379a000000000000000000000000000000000000000000000000000000000815260040161180790614728565b60405180910390fd5b6000600560008473ffffffffffffffffffffffffffffffffffffffff1673ffffffffffffffffffffffffffffffffffffffff16815260200190815260200160002060008363ffffffff1663ffffffff16815260200190815260200160002060006101000a81548160ff0219169083151502179055505050565b6000602052816000526040600020602052806000526040600020600091509150508060000160009054906101000a900473ffffffffffffffffffffffffffffffffffffffff16908060010160009054906101000a900473ffffffffffffffffffffffffffffffffffffffff16908060010160149054906101000a900463ffffffff16908060020154908060030154908060040154908060070154908060080160009054906101000a900460ff1690806009016040518060800160405290816000820154815260200160018201548152602001600282015481526020016003820160009054906101000a900473ffffffffffffffffffffffffffffffffffffffff1673ffffffffffffffffffffffffffffffffffffffff1673ffffffffffffffffffffffffffffffffffffffff16815250509080600d0160009054906101000a900460ff169080600d0160019054906101000a900460ff169080600d0160029054906101000a900460ff1690508c565b60008060008573ffffffffffffffffffffffffffffffffffffffff1673ffffffffffffffffffffffffffffffffffffffff16815260200190815260200160002060008463ffffffff1663ffffffff1681526020019081526020016000209050600181600d0160006101000a81548160ff0219169083151502179055508573ffffffffffffffffffffffffffffffffffffffff16816006018681548110611ac7577f4e487b7100000000000000000000000000000000000000000000000000000000600052603260045260246000fd5b906000526020600020906004020160030160009054906101000a900473ffffffffffffffffffffffffffffffffffffffff1673ffffffffffffffffffffffffffffffffffffffff1614611b4f576040517f08c379a0000000000000000000000000000000000000000000000000000000008152600401611b46906146e8565b60405180910390fd5b6000816006018681548110611b8d577f4e487b7100000000000000000000000000000000000000000000000000000000600052603260045260246000fd5b906000526020600020906004020190508060000154600260008773ffffffffffffffffffffffffffffffffffffffff1673ffffffffffffffffffffffffffffffffffffffff16815260200190815260200160002060008663ffffffff1663ffffffff16815260200190815260200160002060008973ffffffffffffffffffffffffffffffffffffffff1673ffffffffffffffffffffffffffffffffffffffff16815260200190815260200160002054611c469190614aae565b600260008773ffffffffffffffffffffffffffffffffffffffff1673ffffffffffffffffffffffffffffffffffffffff16815260200190815260200160002060008663ffffffff1663ffffffff16815260200190815260200160002060008973ffffffffffffffffffffffffffffffffffffffff1673ffffffffffffffffffffffffffffffffffffffff168152602001908152602001600020819055508160000160009054906101000a900473ffffffffffffffffffffffffffffffffffffffff1673ffffffffffffffffffffffffffffffffffffffff166108fc82600001549081150290604051600060405180830381858888f19350505050158015611d51573d6000803e3d6000fd5b5080826009016000820154816000015560018201548160010155600282015481600201556003820160009054906101000a900473ffffffffffffffffffffffffffffffffffffffff168160030160006101000a81548173ffffffffffffffffffffffffffffffffffffffff021916908373ffffffffffffffffffffffffffffffffffffffff16021790555090505060018260080160006101000a81548160ff02191690831515021790555060008390508073ffffffffffffffffffffffffffffffffffffffff1663c2ca542260405180606001604052808660090160030160009054906101000a900473ffffffffffffffffffffffffffffffffffffffff1673ffffffffffffffffffffffffffffffffffffffff1673ffffffffffffffffffffffffffffffffffffffff1681526020018660000160009054906101000a900473ffffffffffffffffffffffffffffffffffffffff1673ffffffffffffffffffffffffffffffffffffffff1673ffffffffffffffffffffffffffffffffffffffff1681526020018973ffffffffffffffffffffffffffffffffffffffff1673ffffffffffffffffffffffffffffffffffffffff1681525060405180608001604052808963ffffffff168152602001876002015481526020018760090160010154815260200187600901600201548152506040518363ffffffff1660e01b8152600401611f5d9291906145e6565b602060405180830381600087803b158015611f7757600080fd5b505af1158015611f8b573d6000803e3d6000fd5b505050506040513d601f19601f82011682018060405250810190611faf9190613b5f565b505050505050505050565b60008060008473ffffffffffffffffffffffffffffffffffffffff1673ffffffffffffffffffffffffffffffffffffffff16815260200190815260200160002060008363ffffffff1663ffffffff16815260200190815260200160002090506000600160008573ffffffffffffffffffffffffffffffffffffffff1673ffffffffffffffffffffffffffffffffffffffff16815260200190815260200160002060008463ffffffff1663ffffffff16815260200190815260200160002060003373ffffffffffffffffffffffffffffffffffffffff1673ffffffffffffffffffffffffffffffffffffffff168152602001908152602001600020905060005b81805490508110156125bb576000806000898481518110612103577f4e487b7100000000000000000000000000000000000000000000000000000000600052603260045260246000fd5b6020026020010151600081518110612144577f4e487b7100000000000000000000000000000000000000000000000000000000600052603260045260246000fd5b60200260200101518a8581518110612185577f4e487b7100000000000000000000000000000000000000000000000000000000600052603260045260246000fd5b60200260200101516001815181106121c6577f4e487b7100000000000000000000000000000000000000000000000000000000600052603260045260246000fd5b60200260200101518b8681518110612207577f4e487b7100000000000000000000000000000000000000000000000000000000600052603260045260246000fd5b6020026020010151600281518110612248577f4e487b7100000000000000000000000000000000000000000000000000000000600052603260045260246000fd5b60200260200101519250925092506000898581518110612291577f4e487b7100000000000000000000000000000000000000000000000000000000600052603260045260246000fd5b602002602001015190506122a784848484613322565b8686815481106122e0577f4e487b7100000000000000000000000000000000000000000000000000000000600052603260045260246000fd5b9060005260206000209060030201600001541461230057505050506125a8565b80158015612358575083868681548110612343577f4e487b7100000000000000000000000000000000000000000000000000000000600052603260045260246000fd5b90600052602060002090600302016002015410155b156124575786600201548410158015612375575086600301548311155b8015612385575086600401548210155b15612456578660060160405180608001604052808681526020018581526020018481526020013373ffffffffffffffffffffffffffffffffffffffff16815250908060018154018082558091505060019003906000526020600020906004020160009091909190915060008201518160000155602082015181600101556040820151816002015560608201518160030160006101000a81548173ffffffffffffffffffffffffffffffffffffffff021916908373ffffffffffffffffffffffffffffffffffffffff16021790555050505b5b6000801b868681548110612494577f4e487b7100000000000000000000000000000000000000000000000000000000600052603260045260246000fd5b9060005260206000209060030201600001819055508585815481106124e2577f4e487b7100000000000000000000000000000000000000000000000000000000600052603260045260246000fd5b906000526020600020906003020160020154600260008b73ffffffffffffffffffffffffffffffffffffffff1673ffffffffffffffffffffffffffffffffffffffff16815260200190815260200160002060008a63ffffffff1663ffffffff16815260200190815260200160002060003373ffffffffffffffffffffffffffffffffffffffff1673ffffffffffffffffffffffffffffffffffffffff168152602001908152602001600020600082825461259c91906149c4565b92505081905550505050505b80806125b390614bcd565b9150506120b9565b50505050505050565b6125cc61350b565b6000808473ffffffffffffffffffffffffffffffffffffffff1673ffffffffffffffffffffffffffffffffffffffff16815260200190815260200160002060008363ffffffff1663ffffffff168152602001908152602001600020604051806101c00160405290816000820160009054906101000a900473ffffffffffffffffffffffffffffffffffffffff1673ffffffffffffffffffffffffffffffffffffffff1673ffffffffffffffffffffffffffffffffffffffff1681526020016001820160009054906101000a900473ffffffffffffffffffffffffffffffffffffffff1673ffffffffffffffffffffffffffffffffffffffff1673ffffffffffffffffffffffffffffffffffffffff1681526020016001820160149054906101000a900463ffffffff1663ffffffff1663ffffffff16815260200160028201548152602001600382015481526020016004820154815260200160058201805480602002602001604051908101604052809291908181526020016000905b828210156127e45783829060005260206000209060030201604051806060016040529081600082015481526020016001820160009054906101000a900473ffffffffffffffffffffffffffffffffffffffff1673ffffffffffffffffffffffffffffffffffffffff1673ffffffffffffffffffffffffffffffffffffffff16815260200160028201548152505081526020019060010190612748565b50505050815260200160068201805480602002602001604051908101604052809291908181526020016000905b828210156128b757838290600052602060002090600402016040518060800160405290816000820154815260200160018201548152602001600282015481526020016003820160009054906101000a900473ffffffffffffffffffffffffffffffffffffffff1673ffffffffffffffffffffffffffffffffffffffff1673ffffffffffffffffffffffffffffffffffffffff168152505081526020019060010190612811565b505050508152602001600782015481526020016008820160009054906101000a900460ff16151515158152602001600982016040518060800160405290816000820154815260200160018201548152602001600282015481526020016003820160009054906101000a900473ffffffffffffffffffffffffffffffffffffffff1673ffffffffffffffffffffffffffffffffffffffff1673ffffffffffffffffffffffffffffffffffffffff16815250508152602001600d820160009054906101000a900460ff16151515158152602001600d820160019054906101000a900460ff16151515158152602001600d820160029054906101000a900460ff161515151581525050905092915050565b600260205282600052604060002060205281600052604060002060205280600052604060002060009250925050505481565b6000808373ffffffffffffffffffffffffffffffffffffffff1673ffffffffffffffffffffffffffffffffffffffff16815260200190815260200160002060008263ffffffff1663ffffffff168152602001908152602001600020600080820160006101000a81549073ffffffffffffffffffffffffffffffffffffffff02191690556001820160006101000a81549073ffffffffffffffffffffffffffffffffffffffff02191690556001820160146101000a81549063ffffffff0219169055600282016000905560038201600090556004820160009055600582016000612ae091906135ba565b600682016000612af091906135de565b60078201600090556008820160006101000a81549060ff021916905560098201600080820160009055600182016000905560028201600090556003820160006101000a81549073ffffffffffffffffffffffffffffffffffffffff02191690555050600d820160006101000a81549060ff0219169055600d820160016101000a81549060ff0219169055600d820160026101000a81549060ff0219169055505060008080600090505b600460009054906101000a900463ffffffff1663ffffffff168163ffffffff161015612d0357600060038263ffffffff1681548110612c01577f4e487b7100000000000000000000000000000000000000000000000000000000600052603260045260246000fd5b90600052602060002090600e020160010160009054906101000a900473ffffffffffffffffffffffffffffffffffffffff169050600060038363ffffffff1681548110612c77577f4e487b7100000000000000000000000000000000000000000000000000000000600052603260045260246000fd5b90600052602060002090600e020160010160149054906101000a900463ffffffff1690508673ffffffffffffffffffffffffffffffffffffffff168273ffffffffffffffffffffffffffffffffffffffff16148015612ce157508563ffffffff168163ffffffff16145b15612cee57829450600193505b50508080612cfb90614c16565b915050612b99565b5080612d44576040517f08c379a0000000000000000000000000000000000000000000000000000000008152600401612d3b906147a8565b60405180910390fd5b60038263ffffffff1681548110612d84577f4e487b7100000000000000000000000000000000000000000000000000000000600052603260045260246000fd5b90600052602060002090600e0201600080820160006101000a81549073ffffffffffffffffffffffffffffffffffffffff02191690556001820160006101000a81549073ffffffffffffffffffffffffffffffffffffffff02191690556001820160146101000a81549063ffffffff0219169055600282016000905560038201600090556004820160009055600582016000612e2091906135ba565b600682016000612e3091906135de565b60078201600090556008820160006101000a81549060ff021916905560098201600080820160009055600182016000905560028201600090556003820160006101000a81549073ffffffffffffffffffffffffffffffffffffffff02191690555050600d820160006101000a81549060ff0219169055600d820160016101000a81549060ff0219169055600d820160026101000a81549060ff021916905550506001600460008282829054906101000a900463ffffffff16612ef29190614ae2565b92506101000a81548163ffffffff021916908363ffffffff16021790555050505050565b60008060008473ffffffffffffffffffffffffffffffffffffffff1673ffffffffffffffffffffffffffffffffffffffff16815260200190815260200160002060008363ffffffff1663ffffffff168152602001908152602001600020905080600d0160009054906101000a900460ff1615612fc7576040517f08c379a0000000000000000000000000000000000000000000000000000000008152600401612fbe906146c8565b60405180910390fd5b80600d0160019054906101000a900460ff1615613019576040517f08c379a000000000000000000000000000000000000000000000000000000000815260040161301090614768565b60405180910390fd5b8060080160009054906101000a900460ff161561306b576040517f08c379a000000000000000000000000000000000000000000000000000000000815260040161306290614688565b60405180910390fd5b600181600d0160016101000a81548160ff021916908315150217905550505050565b60008060008473ffffffffffffffffffffffffffffffffffffffff1673ffffffffffffffffffffffffffffffffffffffff16815260200190815260200160002060008363ffffffff1663ffffffff168152602001908152602001600020905080600d0160009054906101000a900460ff1661313d576040517f08c379a000000000000000000000000000000000000000000000000000000000815260040161313490614748565b60405180910390fd5b8060080160009054906101000a900460ff1661318e576040517f08c379a000000000000000000000000000000000000000000000000000000000815260040161318590614668565b60405180910390fd5b6000600260008573ffffffffffffffffffffffffffffffffffffffff1673ffffffffffffffffffffffffffffffffffffffff16815260200190815260200160002060008463ffffffff1663ffffffff16815260200190815260200160002060003373ffffffffffffffffffffffffffffffffffffffff1673ffffffffffffffffffffffffffffffffffffffff168152602001908152602001600020549050600081111561331c576000600260008673ffffffffffffffffffffffffffffffffffffffff1673ffffffffffffffffffffffffffffffffffffffff16815260200190815260200160002060008563ffffffff1663ffffffff16815260200190815260200160002060003373ffffffffffffffffffffffffffffffffffffffff1673ffffffffffffffffffffffffffffffffffffffff168152602001908152602001600020819055503373ffffffffffffffffffffffffffffffffffffffff166108fc829081150290604051600060405180830381858888f1935050505015801561331a573d6000803e3d6000fd5b505b50505050565b60008484848460405160200161333b94939291906144b5565b604051602081830303815290604052805190602001209050949350505050565b82805482825590600052602060002090600302810192821561341d5760005260206000209160030282015b8281111561341c578282600082015481600001556001820160009054906101000a900473ffffffffffffffffffffffffffffffffffffffff168160010160006101000a81548173ffffffffffffffffffffffffffffffffffffffff021916908373ffffffffffffffffffffffffffffffffffffffff16021790555060028201548160020155505091600301919060030190613386565b5b50905061342a9190613602565b5090565b8280548282559060005260206000209060040281019282156134fa5760005260206000209160040282015b828111156134f95782826000820154816000015560018201548160010155600282015481600201556003820160009054906101000a900473ffffffffffffffffffffffffffffffffffffffff168160030160006101000a81548173ffffffffffffffffffffffffffffffffffffffff021916908373ffffffffffffffffffffffffffffffffffffffff160217905550505091600401919060040190613459565b5b5090506135079190613650565b5090565b604051806101c00160405280600073ffffffffffffffffffffffffffffffffffffffff168152602001600073ffffffffffffffffffffffffffffffffffffffff168152602001600063ffffffff1681526020016000815260200160008152602001600081526020016060815260200160608152602001600081526020016000151581526020016135996136a6565b81526020016000151581526020016000151581526020016000151581525090565b50805460008255600302906000526020600020908101906135db9190613602565b50565b50805460008255600402906000526020600020908101906135ff9190613650565b50565b5b8082111561364c576000808201600090556001820160006101000a81549073ffffffffffffffffffffffffffffffffffffffff0219169055600282016000905550600301613603565b5090565b5b808211156136a257600080820160009055600182016000905560028201600090556003820160006101000a81549073ffffffffffffffffffffffffffffffffffffffff021916905550600401613651565b5090565b6040518060800160405280600081526020016000815260200160008152602001600073ffffffffffffffffffffffffffffffffffffffff1681525090565b60006136f76136f28461482a565b614805565b9050808382526020820190508285602086028201111561371657600080fd5b60005b8581101561376057813567ffffffffffffffff81111561373857600080fd5b80860161374589826138ab565b85526020850194506020840193505050600181019050613719565b5050509392505050565b600061377d61377884614856565b614805565b9050808382526020820190508285602086028201111561379c57600080fd5b60005b858110156137cc57816137b288826138d5565b84526020840193506020830192505060018101905061379f565b5050509392505050565b60006137e96137e484614882565b614805565b9050808382526020820190508285602086028201111561380857600080fd5b60005b85811015613838578161381e88826138ff565b84526020840193506020830192505060018101905061380b565b5050509392505050565b60008135905061385181614f48565b92915050565b600082601f83011261386857600080fd5b81356138788482602086016136e4565b91505092915050565b600082601f83011261389257600080fd5b81356138a284826020860161376a565b91505092915050565b600082601f8301126138bc57600080fd5b81356138cc8482602086016137d6565b91505092915050565b6000813590506138e481614f5f565b92915050565b6000815190506138f981614f5f565b92915050565b60008135905061390e81614f76565b92915050565b60008151905061392381614f76565b92915050565b60008135905061393881614f8d565b92915050565b600080600080600060a0868803121561395657600080fd5b600061396488828901613842565b9550506020613975888289016138ff565b945050604061398688828901613842565b935050606061399788828901613929565b92505060806139a888828901613842565b9150509295509295909350565b600080604083850312156139c857600080fd5b60006139d685828601613842565b92505060206139e785828601613929565b9150509250929050565b600080600060608486031215613a0657600080fd5b6000613a1486828701613842565b9350506020613a2586828701613929565b9250506040613a3686828701613842565b9150509250925092565b60008060008060808587031215613a5657600080fd5b6000613a6487828801613842565b9450506020613a7587828801613929565b9350506040613a8687828801613842565b9250506060613a97878288016138ff565b91505092959194509250565b60008060008060808587031215613ab957600080fd5b600085013567ffffffffffffffff811115613ad357600080fd5b613adf87828801613857565b945050602085013567ffffffffffffffff811115613afc57600080fd5b613b0887828801613881565b9350506040613b1987828801613842565b9250506060613b2a87828801613929565b91505092959194509250565b600060208284031215613b4857600080fd5b6000613b56848285016138ea565b91505092915050565b600060208284031215613b7157600080fd5b6000613b7f84828501613914565b91505092915050565b60008060008060008060c08789031215613ba157600080fd5b6000613baf89828a016138ff565b9650506020613bc089828a016138ff565b9550506040613bd189828a016138ff565b9450506060613be289828a01613842565b9350506080613bf389828a01613929565b92505060a0613c0489828a016138ff565b9150509295509295509295565b60008060008060008060c08789031215613c2a57600080fd5b6000613c3889828a016138ff565b9650506020613c4989828a016138ff565b9550506040613c5a89828a016138ff565b9450506060613c6b89828a016138d5565b9350506080613c7c89828a01613842565b92505060a0613c8d89828a01613929565b9150509295509295509295565b6000613ca68383613d2c565b60208301905092915050565b6000613cbe83836140fd565b905092915050565b6000613cd28383614367565b60608301905092915050565b6000613cea83836143a9565b60808301905092915050565b6000613d028383614453565b60208301905092915050565b613d1781614b28565b82525050565b613d2681614b28565b82525050565b613d3581614b16565b82525050565b613d4481614b16565b82525050565b613d53816148f2565b613d5d818461496a565b9250613d68826148ae565b8060005b83811015613d99578151613d808782613c9a565b9650613d8b83614929565b925050600181019050613d6c565b505050505050565b6000613dac826148fd565b613db68185614975565b935083602082028501613dc8856148b8565b8060005b85811015613e045784840389528151613de58582613cb2565b9450613df083614936565b925060208a01995050600181019050613dcc565b50829750879550505050505092915050565b6000613e2182614908565b613e2b8185614986565b9350613e36836148c8565b8060005b83811015613e67578151613e4e8882613cc6565b9750613e5983614943565b925050600181019050613e3a565b5085935050505092915050565b6000613e7f82614913565b613e898185614997565b9350613e94836148d8565b8060005b83811015613ec5578151613eac8882613cde565b9750613eb783614950565b925050600181019050613e98565b5085935050505092915050565b613edb8161491e565b613ee581846149a8565b9250613ef0826148e8565b8060005b83811015613f21578151613f088782613cf6565b9650613f138361495d565b925050600181019050613ef4565b505050505050565b613f3281614b3a565b82525050565b613f4181614b3a565b82525050565b613f58613f5382614b3a565b614c43565b82525050565b613f6781614b46565b82525050565b613f7681614b46565b82525050565b6000613f89602c836149b3565b9150613f9482614ced565b604082019050919050565b6000613fac6014836149b3565b9150613fb782614d3c565b602082019050919050565b6000613fcf6025836149b3565b9150613fda82614d65565b604082019050919050565b6000613ff26015836149b3565b9150613ffd82614db4565b602082019050919050565b6000614015602c836149b3565b915061402082614ddd565b604082019050919050565b60006140386024836149b3565b915061404382614e2c565b604082019050919050565b600061405b6017836149b3565b915061406682614e7b565b602082019050919050565b600061407e6019836149b3565b915061408982614ea4565b602082019050919050565b60006140a16018836149b3565b91506140ac82614ecd565b602082019050919050565b60006140c46015836149b3565b91506140cf82614ef6565b602082019050919050565b60006140e7600e836149b3565b91506140f282614f1f565b602082019050919050565b6000610220830160008301516141166000860182613d0e565b5060208301516141296020860182613d2c565b50604083015161413c6040860182614497565b50606083015161414f6060860182614453565b5060808301516141626080860182614453565b5060a083015161417560a0860182614453565b5060c083015184820360c086015261418d8282613e16565b91505060e083015184820360e08601526141a78282613e74565b9150506101008301516141be610100860182614453565b506101208301516141d3610120860182613f29565b506101408301516141e86101408601826143a9565b506101608301516141fd6101c0860182613f29565b506101808301516142126101e0860182613f29565b506101a0830151614227610200860182613f29565b508091505092915050565b60006102208301600083015161424b6000860182613d0e565b50602083015161425e6020860182613d2c565b5060408301516142716040860182614497565b5060608301516142846060860182614453565b5060808301516142976080860182614453565b5060a08301516142aa60a0860182614453565b5060c083015184820360c08601526142c28282613e16565b91505060e083015184820360e08601526142dc8282613e74565b9150506101008301516142f3610100860182614453565b50610120830151614308610120860182613f29565b5061014083015161431d6101408601826143a9565b506101608301516143326101c0860182613f29565b506101808301516143476101e0860182613f29565b506101a083015161435c610200860182613f29565b508091505092915050565b60608201600082015161437d6000850182613f5e565b5060208201516143906020850182613d2c565b5060408201516143a36040850182614453565b50505050565b6080820160008201516143bf6000850182614453565b5060208201516143d26020850182614453565b5060408201516143e56040850182614453565b5060608201516143f86060850182613d2c565b50505050565b6080820160008201516144146000850182614453565b5060208201516144276020850182614453565b50604082015161443a6040850182614453565b50606082015161444d6060850182613d2c565b50505050565b61445c81614b70565b82525050565b61446b81614b70565b82525050565b61448261447d82614b70565b614c55565b82525050565b61449181614b8a565b82525050565b6144a081614b7a565b82525050565b6144af81614b7a565b82525050565b60006144c18287614471565b6020820191506144d18286614471565b6020820191506144e18285614471565b6020820191506144f18284613f47565b60018201915081905095945050505050565b60006101e082019050614519600083018f613d1d565b614526602083018e613d3b565b614533604083018d6144a6565b614540606083018c614462565b61454d608083018b614462565b61455a60a083018a614462565b61456760c0830189614462565b61457460e0830188613f38565b6145826101008301876143fe565b614590610180830186613f38565b61459e6101a0830185613f38565b6145ac6101c0830184613f38565b9d9c50505050505050505050505050565b60006040820190506145d26000830185613d3b565b6145df6020830184614488565b9392505050565b600060e0820190506145fb6000830185613d4a565b6146086060830184613ed2565b9392505050565b600060208201905081810360008301526146298184613da1565b905092915050565b60006060820190506146466000830186613f6d565b6146536020830185613d3b565b6146606040830184614462565b949350505050565b6000602082019050818103600083015261468181613f7c565b9050919050565b600060208201905081810360008301526146a181613f9f565b9050919050565b600060208201905081810360008301526146c181613fc2565b9050919050565b600060208201905081810360008301526146e181613fe5565b9050919050565b6000602082019050818103600083015261470181614008565b9050919050565b600060208201905081810360008301526147218161402b565b9050919050565b600060208201905081810360008301526147418161404e565b9050919050565b6000602082019050818103600083015261476181614071565b9050919050565b6000602082019050818103600083015261478181614094565b9050919050565b600060208201905081810360008301526147a1816140b7565b9050919050565b600060208201905081810360008301526147c1816140da565b9050919050565b600060208201905081810360008301526147e28184614232565b905092915050565b60006020820190506147ff6000830184614462565b92915050565b600061480f614820565b905061481b8282614b9c565b919050565b6000604051905090565b600067ffffffffffffffff82111561484557614844614ca0565b5b602082029050602081019050919050565b600067ffffffffffffffff82111561487157614870614ca0565b5b602082029050602081019050919050565b600067ffffffffffffffff82111561489d5761489c614ca0565b5b602082029050602081019050919050565b6000819050919050565b6000819050602082019050919050565b6000819050602082019050919050565b6000819050602082019050919050565b6000819050919050565b600060039050919050565b600081519050919050565b600081519050919050565b600081519050919050565b600060049050919050565b6000602082019050919050565b6000602082019050919050565b6000602082019050919050565b6000602082019050919050565b6000602082019050919050565b600081905092915050565b600082825260208201905092915050565b600082825260208201905092915050565b600082825260208201905092915050565b600081905092915050565b600082825260208201905092915050565b60006149cf82614b70565b91506149da83614b70565b9250827fffffffffffffffffffffffffffffffffffffffffffffffffffffffffffffffff03821115614a0f57614a0e614c71565b5b828201905092915050565b6000614a2582614b7a565b9150614a3083614b7a565b92508263ffffffff03821115614a4957614a48614c71565b5b828201905092915050565b6000614a5f82614b70565b9150614a6a83614b70565b9250817fffffffffffffffffffffffffffffffffffffffffffffffffffffffffffffffff0483118215151615614aa357614aa2614c71565b5b828202905092915050565b6000614ab982614b70565b9150614ac483614b70565b925082821015614ad757614ad6614c71565b5b828203905092915050565b6000614aed82614b7a565b9150614af883614b7a565b925082821015614b0b57614b0a614c71565b5b828203905092915050565b6000614b2182614b50565b9050919050565b6000614b3382614b50565b9050919050565b60008115159050919050565b6000819050919050565b600073ffffffffffffffffffffffffffffffffffffffff82169050919050565b6000819050919050565b600063ffffffff82169050919050565b6000614b9582614b7a565b9050919050565b614ba582614ccf565b810181811067ffffffffffffffff82111715614bc457614bc3614ca0565b5b80604052505050565b6000614bd882614b70565b91507fffffffffffffffffffffffffffffffffffffffffffffffffffffffffffffffff821415614c0b57614c0a614c71565b5b600182019050919050565b6000614c2182614b7a565b915063ffffffff821415614c3857614c37614c71565b5b600182019050919050565b6000614c4e82614c5f565b9050919050565b6000819050919050565b6000614c6a82614ce0565b9050919050565b7f4e487b7100000000000000000000000000000000000000000000000000000000600052601160045260246000fd5b7f4e487b7100000000000000000000000000000000000000000000000000000000600052604160045260246000fd5b6000601f19601f8301169050919050565b60008160f81b9050919050565b7f5468652061756374696f6e206f776e657220686173206e6f742073656c65637460008201527f6564206120626964207965740000000000000000000000000000000000000000602082015250565b7f42696420616c72656164792073656c6563746564000000000000000000000000600082015250565b7f596f7527766520616c726561647920706c61636564207468697320626964206260008201527f65666f7265000000000000000000000000000000000000000000000000000000602082015250565b7f41756374696f6e20616c726561647920656e6465640000000000000000000000600082015250565b7f426964494420646f65736e277420636f72726573706f6e64207769746820736560008201527f6c65637465644c656e6465720000000000000000000000000000000000000000602082015250565b7f41756374696f6e206475726174696f6e20686173206e6f7420656c617073656460008201527f2079657400000000000000000000000000000000000000000000000000000000602082015250565b7f4e465420686173206e6f74206265656e207374616b6564000000000000000000600082015250565b7f41756374696f6e20686173206e6f7420656e6465642079657400000000000000600082015250565b7f41756374696f6e20616c72656164792063616e63656c65640000000000000000600082015250565b7f4e465420697320616c7265616479207374616b65640000000000000000000000600082015250565b7f4572726f72206f63637572726564000000000000000000000000000000000000600082015250565b614f5181614b16565b8114614f5c57600080fd5b50565b614f6881614b3a565b8114614f7357600080fd5b50565b614f7f81614b70565b8114614f8a57600080fd5b50565b614f9681614b7a565b8114614fa157600080fd5b5056fea26469706673582212207e41e410fa5ca311ba863ffe683d9eb35a11a786c41ad1e3a84d0c73c76963aa64736f6c63430008040033",
  "immutableReferences": {},
  "source": "// SPDX-License-Identifier: GPL-3.0\npragma solidity ^0.8.4;\nimport \"./NFTMarketplace.sol\";\nimport \"./P2PLoan.sol\";\n\ncontract BlindAuction {\n\n    struct BlindedBid{\n        // blinded/hashed version of bid\n        bytes32 hashedBidVal;\n        // address of bidder\n        address bidder_address;\n        // deposit\n        uint depositValue;\n    }\n\n    struct RevealedBid{\n        uint loan_amount;\n        uint interest_rate;\n        uint repayment_time;\n        // ID identifying the bid\n        //uint bidID;\n        // address of bidder\n        address bidder_address;\n    }\n\n    struct Auction_Object{\n        // address of the loanee who will receive the loan once the auction ends or they selected a bid\n        address payable beneficiary; // the owner of the NFT i.e the person who wants a loan\n\n        // NFT collection contract address \n        address NFT_contract_address;\n\n        //Individual NFT tokenID \n        uint32 NFT_tokenID;\n\n        // minimum acceptable loan amount\n        uint min_loan_amount;\n\n        // maximum interest rate\n        uint max_interest_rate;\n\n        // minimum repayment period\n        uint min_repayment_period;\n\n        // list of blinded bids\n        BlindedBid[] blindedBids;\n\n        // list of revealed bids\n        RevealedBid[] revealedBids;\n\n        // the Auction window \n        uint auctionEndTime;\n\n        // whether the owner of auction i.e the beneficiary has selected a bid\n        bool bidSelected;\n\n        // address of selected bid\n        RevealedBid selectedBid;\n\n        // whether the auction has ended\n        bool auctionEnded;\n\n        // whether the owner of auction i.e the beneficiary has canceled the auction\n        bool auctionCanceled;\n\n        // whether all bids have been revealed\n        bool allBidsRevealed;\n\n        }\n\n    // mapping of NFT_contract_address to NFT_tokenID to auction_objects\n    mapping(address=>mapping(uint32=>Auction_Object)) public Auction_Objects;\n\n\n    //maps NFT contract address to individual NFT token ID to specific bidder address to their Blinded Bid\n    mapping(address=>mapping(uint32=>mapping(address=>BlindedBid[]))) public allBlindedBids;\n\n    //maps NFT contract address to individual NFT token ID to specific bidder address to the withdrawal amt they're supposed to get\n    mapping(address=>mapping(uint32=>mapping(address=>uint))) public eligibleWithdrawals;\n\n    // auctionObjects Array;\n    Auction_Object[] Auction_Objects_array;\n    uint32 Auction_Objects_count = 0;\n    // mapping of NFT contract address to individual NFT token ID  to boolean. Necessary for checking whether the NFT is already staked\n    mapping(address=>mapping(uint32=>bool)) NFT_staked_bool;\n    //uint NFT_contract_addresses_tokenIDs_count = 0;\n    //address[] NFT_contract_addresses_tokenIDs_arr;\n\n    // makes the Hash value\n    function generateHashedBid(uint loan_amt, uint int_rate, uint repayment_period, bool fake) internal pure returns (bytes32){\n        return keccak256(abi.encodePacked(loan_amt, int_rate, repayment_period, fake));\n    }\n\n    function startAuction(uint min_loan_amount, uint max_interest_rate, uint min_repayment_period, address NFT_contract_address, uint32 NFT_tokenID, uint auction_duration) public{\n        //NFT contract address + tokenID -> hashValue\n        \n        \n        // identifies the state of the auction\n        // add new Auction Object\n        // each has a distinct NFT address\n        // need to check that NFT is not already staked\n        require(!NFT_staked_bool[NFT_contract_address][NFT_tokenID], \"NFT is already staked\");\n        //lock NFT\n        NFTMarketplace marketplace = NFTMarketplace(NFT_contract_address);\n        marketplace.lockNFT(NFT_contract_address, NFT_tokenID);\n        // start auction\n        Auction_Object storage auctionObj = Auction_Objects[NFT_contract_address][NFT_tokenID];\n        auctionObj.beneficiary = payable(msg.sender);\n        auctionObj.min_loan_amount = min_loan_amount;\n        auctionObj.max_interest_rate = max_interest_rate;\n        auctionObj.min_repayment_period = min_repayment_period;\n        auctionObj.NFT_contract_address = NFT_contract_address;\n        auctionObj.NFT_tokenID = NFT_tokenID;\n        auctionObj.auctionEndTime = block.timestamp + auction_duration * 1 hours;\n        auctionObj.bidSelected = false;\n        auctionObj.auctionCanceled  = false;\n        auctionObj.allBidsRevealed = false;\n        Auction_Objects[NFT_contract_address][NFT_tokenID] = auctionObj;\n\n\n        // since NFT has been staked change boolean to true\n        NFT_staked_bool[NFT_contract_address][NFT_tokenID] = true;\n        // just incase: we maintain a list of all current auctioned NFTS\n        //NFT_contract_addresses_arr.push(NFT_contract_address);\n        //NFT_contract_addresses_count += 1;\n\n        Auction_Objects_array.push(auctionObj);\n        Auction_Objects_count += 1;\n    }\n    \n    function makeBid(uint loan_amt, uint int_rate, uint repayment_period, bool fake, address NFT_contract_address,uint32 NFT_tokenID) payable public{\n        Auction_Object storage auctionObj = Auction_Objects[NFT_contract_address][NFT_tokenID];\n        //require (!auctionObj.auctionEnded, \"Auction has Ended\");\n        //require(!auctionObj.auctionCanceled, \"Auction was canceled\");\n        // ensure that bidder is not making the same bid\n        bytes32 HashVal = generateHashedBid(loan_amt, int_rate, repayment_period, fake);\n        BlindedBid[] storage bidsToCheck = allBlindedBids[NFT_contract_address][NFT_tokenID][msg.sender];\n        for(uint i = 0; i < bidsToCheck.length; i++){\n            require(bidsToCheck[i].hashedBidVal != HashVal, \"You've already placed this bid before\");\n        }\n        // add bid to availableBids\n        auctionObj.blindedBids.push(\n            BlindedBid(HashVal, msg.sender, msg.value\n            ));\n        allBlindedBids[NFT_contract_address][NFT_tokenID][msg.sender].push(\n            BlindedBid(HashVal, msg.sender, msg.value\n            )\n        );\n    }\n\n     function revealBid(uint[][] memory allSentLoanTerms, bool[] memory fake_, address NFT_contract_address,uint32 NFT_tokenID) public{\n        Auction_Object storage auctionObj = Auction_Objects[NFT_contract_address][NFT_tokenID];\n        BlindedBid[] storage bidsToCheck = allBlindedBids[NFT_contract_address][NFT_tokenID][msg.sender];\n        //require(auctionObj.auctionEnded, \"Auction has not ended\");\n        //require(allSentLoanTerms.length == bidsToCheck.length,\"Different Lengths\");\n        //require(fake_.length == bidsToCheck.length,\"Different Lengths\");\n        for(uint i = 0; i < bidsToCheck.length ;i++){\n            (uint loan_amt,uint int_rate, uint rep_period) = (allSentLoanTerms[i][0],allSentLoanTerms[i][1],allSentLoanTerms[i][2]);\n            bool fake = fake_[i];\n            if (bidsToCheck[i].hashedBidVal != generateHashedBid(loan_amt,int_rate,rep_period,fake)){\n                // bid was not revealed so continue\n                continue;\n            }\n            // check if not fake and that the depositValue is enough\n            if (!fake && bidsToCheck[i].depositValue >= loan_amt){\n                // check is the bid meet loan terms criteria\n                if (loan_amt >= auctionObj.min_loan_amount && \n                int_rate <= auctionObj.max_interest_rate && \n                rep_period >= auctionObj.min_repayment_period){\n                    auctionObj.revealedBids.push(\n                        RevealedBid(loan_amt,int_rate,rep_period,msg.sender)\n                        );\n                    //auctionObj.bidIDcounter += 1;\n                }\n            }\n            // Make it impossible for the sender to re-claim\n            // the same deposit.\n            bidsToCheck[i].hashedBidVal = 0x0;\n\n            // save the money they deposited as eligible withdrawal\n            eligibleWithdrawals[NFT_contract_address][NFT_tokenID][msg.sender] += bidsToCheck[i].depositValue;\n\n        }\n\n    }\n\n    function selectBid(address selectedLender, uint256 bidID, address NFT_contract_address,uint32 NFT_tokenID, address Loan_contract_adderss) public{\n        Auction_Object storage auctionObj = Auction_Objects[NFT_contract_address][NFT_tokenID];\n        //require(!auctionObj.bidSelected, \"A bid has already been selected\");\n\t    //require(!auctionObj.auctionCanceled, \"Auction was canceled\");\n        auctionObj.auctionEnded = true;\n        \n        require(auctionObj.revealedBids[bidID].bidder_address == selectedLender,\"BidID doesn't correspond with selectedLender\");\n       \n        RevealedBid storage bidSelected = auctionObj.revealedBids[bidID];\n        eligibleWithdrawals[NFT_contract_address][NFT_tokenID][selectedLender] = eligibleWithdrawals[NFT_contract_address][NFT_tokenID][selectedLender] - bidSelected.loan_amount;\n        //transfer ether to the beneficiary of the auction i.e the loanee\n        auctionObj.beneficiary.transfer(bidSelected.loan_amount);\n        auctionObj.selectedBid = bidSelected;\n        auctionObj.bidSelected = true;\n        //invoking loan contract\n        // SharedStructs.loanArgs memory loanArgs = SharedStructs.loanArgs(\n        //     payable(auctionObj.selectedBid.bidder_address),\n        //     auctionObj.beneficiary,\n        //     NFT_tokenID,\n        //     NFT_contract_address,\n        //     auctionObj.min_loan_amount,\n        //     auctionObj.selectedBid.interest_rate,\n        //     auctionObj.selectedBid.repayment_time\n        // );\n        P2PLoan loan_contract = P2PLoan(Loan_contract_adderss);\n        loan_contract.createLoan( \n            [auctionObj.selectedBid.bidder_address,auctionObj.beneficiary, NFT_contract_address],\n            [NFT_tokenID,auctionObj.min_loan_amount,auctionObj.selectedBid.interest_rate,auctionObj.selectedBid.repayment_time]\n        );\n    }\n\n    function endAuction(address NFT_contract_address,uint32 NFT_tokenID) public {\n        Auction_Object storage auctionObj = Auction_Objects[NFT_contract_address][NFT_tokenID];\n        require(!auctionObj.auctionEnded, \"Auction already ended\");\n        require(!auctionObj.auctionCanceled, \"Auction already canceled\");\n        require(block.timestamp >= auctionObj.auctionEndTime, \"Auction duration has not elapsed yet\");\n\n        auctionObj.auctionEnded = true;\n    }\n\n    function cancelAuction(address NFT_contract_address,uint32 NFT_tokenID) public{\n        Auction_Object storage auctionObj = Auction_Objects[NFT_contract_address][NFT_tokenID];\n        require(!auctionObj.auctionEnded, \"Auction already ended\");\n        require(!auctionObj.auctionCanceled, \"Auction already canceled\");\n        require(!auctionObj.bidSelected, \"Bid already selected\");\n\n        auctionObj.auctionCanceled = true;\n    }\n\n    // Allows bidders whose bids were not selected to withdraw the ether they had bid.\n    //The function is only viewable by the bidders-> frontend\n\n    // for the selected bidder who has made more than one bid, it needs to return the bids that are not selected\n    function withdraw(address NFT_contract_address,uint32 NFT_tokenID) public \n    {\n        Auction_Object storage auctionObj = Auction_Objects[NFT_contract_address][NFT_tokenID];\n        require(auctionObj.auctionEnded, \"Auction has not ended yet\");\n        require(auctionObj.bidSelected, \"The auction owner has not selected a bid yet\");\n        uint256 amount = eligibleWithdrawals[NFT_contract_address][NFT_tokenID][msg.sender];\n\n        // a more secure way to do this??\n        // https://docs.soliditylang.org/en/v0.8.7/common-patterns.html\n        if (amount > 0) {\n            // Set the account's eligible withdrawal to zero\n            eligibleWithdrawals[NFT_contract_address][NFT_tokenID][msg.sender] = 0;\n            // pay back the money they sent\n            // read that call is better than transfer for receiving money????\n            payable(msg.sender).transfer(amount);\n        }\n    }\n\n    // get a single Auction Object for one NFT address\n    function getAuctionObject(address NFT_contract_address,uint32 NFT_tokenID) public view returns (Auction_Object memory Auct_Obj)\n    {\n        return Auction_Objects[NFT_contract_address][NFT_tokenID];\n    }\n\n    // get all the Auction Objects\n    function getAllAuctionObjects() public view returns (Auction_Object[] memory Auct_Objs)\n    {\n        return Auction_Objects_array;\n    }\n\n    // delete NFT listing i.e after the loan has been repayed\n    function removeNFTListing(address NFT_contract_address,uint32 NFT_tokenID) public \n    {\n        require(NFT_staked_bool[NFT_contract_address][NFT_tokenID],\"NFT has not been staked\");\n        NFT_staked_bool[NFT_contract_address][NFT_tokenID] = false;\n        /*uint NFT_index = 0;\n        for(uint i = 0; i < NFT_contract_addresses_count; i++){\n            if(NFT_contract_addresses_arr[i] == NFT_contract_address){\n                NFT_index = i;\n                NFT_staked_bool[NFT_contract_address][NFT_tokenID] = false;\n            }\n        }\n        require(!NFT_staked_bool[NFT_contract_address][NFT_tokenID],\"Error occurred\");\n        delete NFT_contract_addresses_arr[NFT_index];\n        NFT_contract_addresses_count -= 1;*/\n    }\n\n    // delete an Auction\n    function deleteAuction(address NFT_contract_address,uint32 NFT_tokenID) public \n    {\n        delete Auction_Objects[NFT_contract_address][NFT_tokenID];\n        uint32 index = 0;\n        bool found;\n        for(uint32 i = 0; i < Auction_Objects_count; i++){\n            address testContractAddress = Auction_Objects_array[i].NFT_contract_address;\n            uint32 testTokenID = Auction_Objects_array[i].NFT_tokenID;\n            if(testContractAddress == NFT_contract_address && testTokenID == NFT_tokenID){\n                index = i;\n                found = true;\n            }\n        }\n        require(found,\"Error occurred\");\n        delete Auction_Objects_array[index];\n        Auction_Objects_count -= 1;\n    }\n\n    //return eligible withdrawal amt bidder is entitled to from a certain auction -> just for testing purposes\n    function showEligibleWithdrawal(address NFT_contract_address,uint32 NFT_tokenID) public view returns (uint256)\n    {\n        return eligibleWithdrawals[NFT_contract_address][NFT_tokenID][msg.sender];\n    }\n}",
  "sourcePath": "/Users/zeningluo/Documents/GitHub/BlockchainGroup-2022Technical-Project/src/contracts/BlindAuction.sol",
  "compiler": {
    "name": "solc",
    "version": "0.8.4+commit.c7e474f2.Emscripten.clang"
  },
  "schemaVersion": "3.3.1",
  "updatedAt": "2022-05-15T18:32:16.681Z",
  "networkType": "ethereum",
  "devdoc": {
    "kind": "dev",
    "methods": {},
    "version": 1
  },
  "userdoc": {
    "kind": "user",
    "methods": {},
    "version": 1
  }
}