{
  "contractName": "BlindAuction",
  "abi": [
    {
      "inputs": [
        {
          "internalType": "address",
          "name": "",
          "type": "address"
        },
        {
          "internalType": "uint32",
          "name": "",
          "type": "uint32"
        }
      ],
      "name": "Auction_Objects",
      "outputs": [
        {
          "internalType": "address payable",
          "name": "beneficiary",
          "type": "address"
        },
        {
          "internalType": "address",
          "name": "NFT_contract_address",
          "type": "address"
        },
        {
          "internalType": "uint32",
          "name": "NFT_tokenID",
          "type": "uint32"
        },
        {
          "internalType": "uint256",
          "name": "min_loan_amount",
          "type": "uint256"
        },
        {
          "internalType": "uint256",
          "name": "max_interest_rate",
          "type": "uint256"
        },
        {
          "internalType": "uint256",
          "name": "min_repayment_period",
          "type": "uint256"
        },
        {
          "internalType": "uint256",
          "name": "auctionEndTime",
          "type": "uint256"
        },
        {
          "internalType": "bool",
          "name": "bidSelected",
          "type": "bool"
        },
        {
          "components": [
            {
              "internalType": "uint256",
              "name": "loan_amount",
              "type": "uint256"
            },
            {
              "internalType": "uint256",
              "name": "interest_rate",
              "type": "uint256"
            },
            {
              "internalType": "uint256",
              "name": "repayment_time",
              "type": "uint256"
            },
            {
              "internalType": "address",
              "name": "bidder_address",
              "type": "address"
            }
          ],
          "internalType": "struct BlindAuction.RevealedBid",
          "name": "selectedBid",
          "type": "tuple"
        },
        {
          "internalType": "bool",
          "name": "auctionEnded",
          "type": "bool"
        },
        {
          "internalType": "bool",
          "name": "auctionCanceled",
          "type": "bool"
        },
        {
          "internalType": "bool",
          "name": "allBidsRevealed",
          "type": "bool"
        }
      ],
      "stateMutability": "view",
      "type": "function",
      "constant": true
    },
    {
      "inputs": [
        {
          "internalType": "address",
          "name": "",
          "type": "address"
        },
        {
          "internalType": "uint32",
          "name": "",
          "type": "uint32"
        },
        {
          "internalType": "address",
          "name": "",
          "type": "address"
        },
        {
          "internalType": "uint256",
          "name": "",
          "type": "uint256"
        }
      ],
      "name": "allBlindedBids",
      "outputs": [
        {
          "internalType": "bytes32",
          "name": "hashedBidVal",
          "type": "bytes32"
        },
        {
          "internalType": "address",
          "name": "bidder_address",
          "type": "address"
        },
        {
          "internalType": "uint256",
          "name": "depositValue",
          "type": "uint256"
        }
      ],
      "stateMutability": "view",
      "type": "function",
      "constant": true
    },
    {
      "inputs": [
        {
          "internalType": "address",
          "name": "",
          "type": "address"
        },
        {
          "internalType": "uint32",
          "name": "",
          "type": "uint32"
        },
        {
          "internalType": "address",
          "name": "",
          "type": "address"
        }
      ],
      "name": "eligibleWithdrawals",
      "outputs": [
        {
          "internalType": "uint256",
          "name": "",
          "type": "uint256"
        }
      ],
      "stateMutability": "view",
      "type": "function",
      "constant": true
    },
    {
      "inputs": [
        {
          "internalType": "uint256",
          "name": "min_loan_amount",
          "type": "uint256"
        },
        {
          "internalType": "uint256",
          "name": "max_interest_rate",
          "type": "uint256"
        },
        {
          "internalType": "uint256",
          "name": "min_repayment_period",
          "type": "uint256"
        },
        {
          "internalType": "address",
          "name": "NFT_contract_address",
          "type": "address"
        },
        {
          "internalType": "uint32",
          "name": "NFT_tokenID",
          "type": "uint32"
        },
        {
          "internalType": "uint256",
          "name": "auction_duration",
          "type": "uint256"
        }
      ],
      "name": "startAuction",
      "outputs": [],
      "stateMutability": "nonpayable",
      "type": "function"
    },
    {
      "inputs": [
        {
          "internalType": "uint256",
          "name": "loan_amt",
          "type": "uint256"
        },
        {
          "internalType": "uint256",
          "name": "int_rate",
          "type": "uint256"
        },
        {
          "internalType": "uint256",
          "name": "repayment_period",
          "type": "uint256"
        },
        {
          "internalType": "bool",
          "name": "fake",
          "type": "bool"
        },
        {
          "internalType": "address",
          "name": "NFT_contract_address",
          "type": "address"
        },
        {
          "internalType": "uint32",
          "name": "NFT_tokenID",
          "type": "uint32"
        }
      ],
      "name": "makeBid",
      "outputs": [],
      "stateMutability": "payable",
      "type": "function",
      "payable": true
    },
    {
      "inputs": [
        {
          "internalType": "uint256[][]",
          "name": "allSentLoanTerms",
          "type": "uint256[][]"
        },
        {
          "internalType": "bool[]",
          "name": "fake_",
          "type": "bool[]"
        },
        {
          "internalType": "address",
          "name": "NFT_contract_address",
          "type": "address"
        },
        {
          "internalType": "uint32",
          "name": "NFT_tokenID",
          "type": "uint32"
        }
      ],
      "name": "revealBid",
      "outputs": [],
      "stateMutability": "nonpayable",
      "type": "function"
    },
    {
      "inputs": [
        {
          "internalType": "address",
          "name": "selectedLender",
          "type": "address"
        },
        {
          "internalType": "uint256",
          "name": "bidID",
          "type": "uint256"
        },
        {
          "internalType": "address",
          "name": "NFT_contract_address",
          "type": "address"
        },
        {
          "internalType": "uint32",
          "name": "NFT_tokenID",
          "type": "uint32"
        },
        {
          "internalType": "address",
          "name": "Loan_contract_adderss",
          "type": "address"
        }
      ],
      "name": "selectBid",
      "outputs": [],
      "stateMutability": "nonpayable",
      "type": "function"
    },
    {
      "inputs": [
        {
          "internalType": "address",
          "name": "NFT_contract_address",
          "type": "address"
        },
        {
          "internalType": "uint32",
          "name": "NFT_tokenID",
          "type": "uint32"
        }
      ],
      "name": "endAuction",
      "outputs": [],
      "stateMutability": "nonpayable",
      "type": "function"
    },
    {
      "inputs": [
        {
          "internalType": "address",
          "name": "NFT_contract_address",
          "type": "address"
        },
        {
          "internalType": "uint32",
          "name": "NFT_tokenID",
          "type": "uint32"
        }
      ],
      "name": "cancelAuction",
      "outputs": [],
      "stateMutability": "nonpayable",
      "type": "function"
    },
    {
      "inputs": [
        {
          "internalType": "address",
          "name": "NFT_contract_address",
          "type": "address"
        },
        {
          "internalType": "uint32",
          "name": "NFT_tokenID",
          "type": "uint32"
        }
      ],
      "name": "withdraw",
      "outputs": [],
      "stateMutability": "nonpayable",
      "type": "function"
    },
    {
      "inputs": [
        {
          "internalType": "address",
          "name": "NFT_contract_address",
          "type": "address"
        },
        {
          "internalType": "uint32",
          "name": "NFT_tokenID",
          "type": "uint32"
        }
      ],
      "name": "getAuctionObject",
      "outputs": [
        {
          "components": [
            {
              "internalType": "address payable",
              "name": "beneficiary",
              "type": "address"
            },
            {
              "internalType": "address",
              "name": "NFT_contract_address",
              "type": "address"
            },
            {
              "internalType": "uint32",
              "name": "NFT_tokenID",
              "type": "uint32"
            },
            {
              "internalType": "uint256",
              "name": "min_loan_amount",
              "type": "uint256"
            },
            {
              "internalType": "uint256",
              "name": "max_interest_rate",
              "type": "uint256"
            },
            {
              "internalType": "uint256",
              "name": "min_repayment_period",
              "type": "uint256"
            },
            {
              "components": [
                {
                  "internalType": "bytes32",
                  "name": "hashedBidVal",
                  "type": "bytes32"
                },
                {
                  "internalType": "address",
                  "name": "bidder_address",
                  "type": "address"
                },
                {
                  "internalType": "uint256",
                  "name": "depositValue",
                  "type": "uint256"
                }
              ],
              "internalType": "struct BlindAuction.BlindedBid[]",
              "name": "blindedBids",
              "type": "tuple[]"
            },
            {
              "components": [
                {
                  "internalType": "uint256",
                  "name": "loan_amount",
                  "type": "uint256"
                },
                {
                  "internalType": "uint256",
                  "name": "interest_rate",
                  "type": "uint256"
                },
                {
                  "internalType": "uint256",
                  "name": "repayment_time",
                  "type": "uint256"
                },
                {
                  "internalType": "address",
                  "name": "bidder_address",
                  "type": "address"
                }
              ],
              "internalType": "struct BlindAuction.RevealedBid[]",
              "name": "revealedBids",
              "type": "tuple[]"
            },
            {
              "internalType": "uint256",
              "name": "auctionEndTime",
              "type": "uint256"
            },
            {
              "internalType": "bool",
              "name": "bidSelected",
              "type": "bool"
            },
            {
              "components": [
                {
                  "internalType": "uint256",
                  "name": "loan_amount",
                  "type": "uint256"
                },
                {
                  "internalType": "uint256",
                  "name": "interest_rate",
                  "type": "uint256"
                },
                {
                  "internalType": "uint256",
                  "name": "repayment_time",
                  "type": "uint256"
                },
                {
                  "internalType": "address",
                  "name": "bidder_address",
                  "type": "address"
                }
              ],
              "internalType": "struct BlindAuction.RevealedBid",
              "name": "selectedBid",
              "type": "tuple"
            },
            {
              "internalType": "bool",
              "name": "auctionEnded",
              "type": "bool"
            },
            {
              "internalType": "bool",
              "name": "auctionCanceled",
              "type": "bool"
            },
            {
              "internalType": "bool",
              "name": "allBidsRevealed",
              "type": "bool"
            }
          ],
          "internalType": "struct BlindAuction.Auction_Object",
          "name": "Auct_Obj",
          "type": "tuple"
        }
      ],
      "stateMutability": "view",
      "type": "function",
      "constant": true
    },
    {
      "inputs": [],
      "name": "getAllAuctionObjects",
      "outputs": [
        {
          "components": [
            {
              "internalType": "address payable",
              "name": "beneficiary",
              "type": "address"
            },
            {
              "internalType": "address",
              "name": "NFT_contract_address",
              "type": "address"
            },
            {
              "internalType": "uint32",
              "name": "NFT_tokenID",
              "type": "uint32"
            },
            {
              "internalType": "uint256",
              "name": "min_loan_amount",
              "type": "uint256"
            },
            {
              "internalType": "uint256",
              "name": "max_interest_rate",
              "type": "uint256"
            },
            {
              "internalType": "uint256",
              "name": "min_repayment_period",
              "type": "uint256"
            },
            {
              "components": [
                {
                  "internalType": "bytes32",
                  "name": "hashedBidVal",
                  "type": "bytes32"
                },
                {
                  "internalType": "address",
                  "name": "bidder_address",
                  "type": "address"
                },
                {
                  "internalType": "uint256",
                  "name": "depositValue",
                  "type": "uint256"
                }
              ],
              "internalType": "struct BlindAuction.BlindedBid[]",
              "name": "blindedBids",
              "type": "tuple[]"
            },
            {
              "components": [
                {
                  "internalType": "uint256",
                  "name": "loan_amount",
                  "type": "uint256"
                },
                {
                  "internalType": "uint256",
                  "name": "interest_rate",
                  "type": "uint256"
                },
                {
                  "internalType": "uint256",
                  "name": "repayment_time",
                  "type": "uint256"
                },
                {
                  "internalType": "address",
                  "name": "bidder_address",
                  "type": "address"
                }
              ],
              "internalType": "struct BlindAuction.RevealedBid[]",
              "name": "revealedBids",
              "type": "tuple[]"
            },
            {
              "internalType": "uint256",
              "name": "auctionEndTime",
              "type": "uint256"
            },
            {
              "internalType": "bool",
              "name": "bidSelected",
              "type": "bool"
            },
            {
              "components": [
                {
                  "internalType": "uint256",
                  "name": "loan_amount",
                  "type": "uint256"
                },
                {
                  "internalType": "uint256",
                  "name": "interest_rate",
                  "type": "uint256"
                },
                {
                  "internalType": "uint256",
                  "name": "repayment_time",
                  "type": "uint256"
                },
                {
                  "internalType": "address",
                  "name": "bidder_address",
                  "type": "address"
                }
              ],
              "internalType": "struct BlindAuction.RevealedBid",
              "name": "selectedBid",
              "type": "tuple"
            },
            {
              "internalType": "bool",
              "name": "auctionEnded",
              "type": "bool"
            },
            {
              "internalType": "bool",
              "name": "auctionCanceled",
              "type": "bool"
            },
            {
              "internalType": "bool",
              "name": "allBidsRevealed",
              "type": "bool"
            }
          ],
          "internalType": "struct BlindAuction.Auction_Object[]",
          "name": "Auct_Objs",
          "type": "tuple[]"
        }
      ],
      "stateMutability": "view",
      "type": "function",
      "constant": true
    },
    {
      "inputs": [
        {
          "internalType": "address",
          "name": "NFT_contract_address",
          "type": "address"
        },
        {
          "internalType": "uint32",
          "name": "NFT_tokenID",
          "type": "uint32"
        }
      ],
      "name": "removeNFTListing",
      "outputs": [],
      "stateMutability": "nonpayable",
      "type": "function"
    },
    {
      "inputs": [
        {
          "internalType": "address",
          "name": "NFT_contract_address",
          "type": "address"
        },
        {
          "internalType": "uint32",
          "name": "NFT_tokenID",
          "type": "uint32"
        }
      ],
      "name": "deleteAuction",
      "outputs": [],
      "stateMutability": "nonpayable",
      "type": "function"
    },
    {
      "inputs": [
        {
          "internalType": "address",
          "name": "NFT_contract_address",
          "type": "address"
        },
        {
          "internalType": "uint32",
          "name": "NFT_tokenID",
          "type": "uint32"
        }
      ],
      "name": "showEligibleWithdrawal",
      "outputs": [
        {
          "internalType": "uint256",
          "name": "",
          "type": "uint256"
        }
      ],
      "stateMutability": "view",
      "type": "function",
      "constant": true
    }
  ],
  "bytecode": "0x60806040526000600460006101000a81548163ffffffff021916908363ffffffff16021790555034801561003257600080fd5b50614ecc806100426000396000f3fe6080604052600436106100e85760003560e01c80637bec28fd1161008a578063cafbe9fd11610059578063cafbe9fd14610302578063d742ec191461033f578063f229965f14610368578063fc30239514610391576100e8565b80637bec28fd1461022b5780638287e9c214610273578063959ad78c1461029c578063c59b0dc2146102c5576100e8565b80632f0a4892116100c65780632f0a48921461017157806330e093c81461019a5780635dcacbf4146101c557806379c8852814610202576100e8565b80630a822bfb146100ed5780631227fabe1461012c578063257b893714610148575b600080fd5b3480156100f957600080fd5b50610114600480360381019061010f91906139a5565b6103ba565b60405161012393929190614535565b60405180910390f35b61014660048036038101906101419190613b4d565b61043b565b005b34801561015457600080fd5b5061016f600480360381019061016a919061391a565b61080d565b005b34801561017d57600080fd5b5061019860048036038101906101939190613ac4565b610979565b005b3480156101a657600080fd5b506101af611253565b6040516101bc9190614513565b60405180910390f35b3480156101d157600080fd5b506101ec60048036038101906101e7919061391a565b61163d565b6040516101f991906146ee565b60405180910390f35b34801561020e57600080fd5b506102296004803603810190610224919061391a565b6116e1565b005b34801561023757600080fd5b50610252600480360381019061024d919061391a565b611803565b60405161026a9c9b9a99989796959493929190614430565b60405180910390f35b34801561027f57600080fd5b5061029a600480360381019061029591906138a3565b611972565b005b3480156102a857600080fd5b506102c360048036038101906102be9190613a08565b611f34565b005b3480156102d157600080fd5b506102ec60048036038101906102e7919061391a565b61253e565b6040516102f991906146cc565b60405180910390f35b34801561030e57600080fd5b5061032960048036038101906103249190613956565b61293f565b60405161033691906146ee565b60405180910390f35b34801561034b57600080fd5b506103666004803603810190610361919061391a565b612971565b005b34801561037457600080fd5b5061038f600480360381019061038a919061391a565b612e90565b005b34801561039d57600080fd5b506103b860048036038101906103b3919061391a565b613007565b005b600160205283600052604060002060205282600052604060002060205281600052604060002081815481106103ee57600080fd5b90600052602060002090600302016000935093505050508060000154908060010160009054906101000a900473ffffffffffffffffffffffffffffffffffffffff16908060020154905083565b60008060008473ffffffffffffffffffffffffffffffffffffffff1673ffffffffffffffffffffffffffffffffffffffff16815260200190815260200160002060008363ffffffff1663ffffffff168152602001908152602001600020905060006104a88888888861329c565b90506000600160008673ffffffffffffffffffffffffffffffffffffffff1673ffffffffffffffffffffffffffffffffffffffff16815260200190815260200160002060008563ffffffff1663ffffffff16815260200190815260200160002060003373ffffffffffffffffffffffffffffffffffffffff1673ffffffffffffffffffffffffffffffffffffffff168152602001908152602001600020905060005b81805490508110156105f65782828281548110610590577f4e487b7100000000000000000000000000000000000000000000000000000000600052603260045260246000fd5b90600052602060002090600302016000015414156105e3576040517f08c379a00000000000000000000000000000000000000000000000000000000081526004016105da906145ac565b60405180910390fd5b80806105ee90614abf565b91505061054a565b508260050160405180606001604052808481526020013373ffffffffffffffffffffffffffffffffffffffff1681526020013481525090806001815401808255809150506001900390600052602060002090600302016000909190919091506000820151816000015560208201518160010160006101000a81548173ffffffffffffffffffffffffffffffffffffffff021916908373ffffffffffffffffffffffffffffffffffffffff160217905550604082015181600201555050600160008673ffffffffffffffffffffffffffffffffffffffff1673ffffffffffffffffffffffffffffffffffffffff16815260200190815260200160002060008563ffffffff1663ffffffff16815260200190815260200160002060003373ffffffffffffffffffffffffffffffffffffffff1673ffffffffffffffffffffffffffffffffffffffff16815260200190815260200160002060405180606001604052808481526020013373ffffffffffffffffffffffffffffffffffffffff1681526020013481525090806001815401808255809150506001900390600052602060002090600302016000909190919091506000820151816000015560208201518160010160006101000a81548173ffffffffffffffffffffffffffffffffffffffff021916908373ffffffffffffffffffffffffffffffffffffffff160217905550604082015181600201555050505050505050505050565b60008060008473ffffffffffffffffffffffffffffffffffffffff1673ffffffffffffffffffffffffffffffffffffffff16815260200190815260200160002060008363ffffffff1663ffffffff168152602001908152602001600020905080600d0160009054906101000a900460ff16156108be576040517f08c379a00000000000000000000000000000000000000000000000000000000081526004016108b5906145cc565b60405180910390fd5b80600d0160019054906101000a900460ff1615610910576040517f08c379a00000000000000000000000000000000000000000000000000000000081526004016109079061466c565b60405180910390fd5b8060070154421015610957576040517f08c379a000000000000000000000000000000000000000000000000000000000815260040161094e9061460c565b60405180910390fd5b600181600d0160006101000a81548160ff021916908315150217905550505050565b600560008473ffffffffffffffffffffffffffffffffffffffff1673ffffffffffffffffffffffffffffffffffffffff16815260200190815260200160002060008363ffffffff1663ffffffff16815260200190815260200160002060009054906101000a900460ff1615610a23576040517f08c379a0000000000000000000000000000000000000000000000000000000008152600401610a1a9061468c565b60405180910390fd5b60008060008573ffffffffffffffffffffffffffffffffffffffff1673ffffffffffffffffffffffffffffffffffffffff16815260200190815260200160002060008463ffffffff1663ffffffff1681526020019081526020016000209050338160000160006101000a81548173ffffffffffffffffffffffffffffffffffffffff021916908373ffffffffffffffffffffffffffffffffffffffff1602179055508681600201819055508581600301819055506201518085610ae69190614958565b8160040181905550838160010160006101000a81548173ffffffffffffffffffffffffffffffffffffffff021916908373ffffffffffffffffffffffffffffffffffffffff160217905550828160010160146101000a81548163ffffffff021916908363ffffffff160217905550610e1082610b629190614958565b42610b6d91906148c8565b816007018190555060008160080160006101000a81548160ff021916908315150217905550600081600d0160016101000a81548160ff021916908315150217905550600081600d0160026101000a81548160ff021916908315150217905550806000808673ffffffffffffffffffffffffffffffffffffffff1673ffffffffffffffffffffffffffffffffffffffff16815260200190815260200160002060008563ffffffff1663ffffffff1681526020019081526020016000206000820160009054906101000a900473ffffffffffffffffffffffffffffffffffffffff168160000160006101000a81548173ffffffffffffffffffffffffffffffffffffffff021916908373ffffffffffffffffffffffffffffffffffffffff1602179055506001820160009054906101000a900473ffffffffffffffffffffffffffffffffffffffff168160010160006101000a81548173ffffffffffffffffffffffffffffffffffffffff021916908373ffffffffffffffffffffffffffffffffffffffff1602179055506001820160149054906101000a900463ffffffff168160010160146101000a81548163ffffffff021916908363ffffffff1602179055506002820154816002015560038201548160030155600482015481600401556005820181600501908054610d619291906132d5565b506006820181600601908054610d789291906133a8565b50600782015481600701556008820160009054906101000a900460ff168160080160006101000a81548160ff02191690831515021790555060098201816009016000820154816000015560018201548160010155600282015481600201556003820160009054906101000a900473ffffffffffffffffffffffffffffffffffffffff168160030160006101000a81548173ffffffffffffffffffffffffffffffffffffffff021916908373ffffffffffffffffffffffffffffffffffffffff1602179055505050600d820160009054906101000a900460ff1681600d0160006101000a81548160ff021916908315150217905550600d820160019054906101000a900460ff1681600d0160016101000a81548160ff021916908315150217905550600d820160029054906101000a900460ff1681600d0160026101000a81548160ff0219169083151502179055509050506001600560008673ffffffffffffffffffffffffffffffffffffffff1673ffffffffffffffffffffffffffffffffffffffff16815260200190815260200160002060008563ffffffff1663ffffffff16815260200190815260200160002060006101000a81548160ff02191690831515021790555060038190806001815401808255809150506001900390600052602060002090600e02016000909190919091506000820160009054906101000a900473ffffffffffffffffffffffffffffffffffffffff168160000160006101000a81548173ffffffffffffffffffffffffffffffffffffffff021916908373ffffffffffffffffffffffffffffffffffffffff1602179055506001820160009054906101000a900473ffffffffffffffffffffffffffffffffffffffff168160010160006101000a81548173ffffffffffffffffffffffffffffffffffffffff021916908373ffffffffffffffffffffffffffffffffffffffff1602179055506001820160149054906101000a900463ffffffff168160010160146101000a81548163ffffffff021916908363ffffffff16021790555060028201548160020155600382015481600301556004820154816004015560058201816005019080546110a39291906132d5565b5060068201816006019080546110ba9291906133a8565b50600782015481600701556008820160009054906101000a900460ff168160080160006101000a81548160ff02191690831515021790555060098201816009016000820154816000015560018201548160010155600282015481600201556003820160009054906101000a900473ffffffffffffffffffffffffffffffffffffffff168160030160006101000a81548173ffffffffffffffffffffffffffffffffffffffff021916908373ffffffffffffffffffffffffffffffffffffffff1602179055505050600d820160009054906101000a900460ff1681600d0160006101000a81548160ff021916908315150217905550600d820160019054906101000a900460ff1681600d0160016101000a81548160ff021916908315150217905550600d820160029054906101000a900460ff1681600d0160026101000a81548160ff02191690831515021790555050506001600460008282829054906101000a900463ffffffff1661122c919061491e565b92506101000a81548163ffffffff021916908363ffffffff16021790555050505050505050565b60606003805480602002602001604051908101604052809291908181526020016000905b8282101561163457838290600052602060002090600e0201604051806101c00160405290816000820160009054906101000a900473ffffffffffffffffffffffffffffffffffffffff1673ffffffffffffffffffffffffffffffffffffffff1673ffffffffffffffffffffffffffffffffffffffff1681526020016001820160009054906101000a900473ffffffffffffffffffffffffffffffffffffffff1673ffffffffffffffffffffffffffffffffffffffff1673ffffffffffffffffffffffffffffffffffffffff1681526020016001820160149054906101000a900463ffffffff1663ffffffff1663ffffffff16815260200160028201548152602001600382015481526020016004820154815260200160058201805480602002602001604051908101604052809291908181526020016000905b8282101561144c5783829060005260206000209060030201604051806060016040529081600082015481526020016001820160009054906101000a900473ffffffffffffffffffffffffffffffffffffffff1673ffffffffffffffffffffffffffffffffffffffff1673ffffffffffffffffffffffffffffffffffffffff168152602001600282015481525050815260200190600101906113b0565b50505050815260200160068201805480602002602001604051908101604052809291908181526020016000905b8282101561151f57838290600052602060002090600402016040518060800160405290816000820154815260200160018201548152602001600282015481526020016003820160009054906101000a900473ffffffffffffffffffffffffffffffffffffffff1673ffffffffffffffffffffffffffffffffffffffff1673ffffffffffffffffffffffffffffffffffffffff168152505081526020019060010190611479565b505050508152602001600782015481526020016008820160009054906101000a900460ff16151515158152602001600982016040518060800160405290816000820154815260200160018201548152602001600282015481526020016003820160009054906101000a900473ffffffffffffffffffffffffffffffffffffffff1673ffffffffffffffffffffffffffffffffffffffff1673ffffffffffffffffffffffffffffffffffffffff16815250508152602001600d820160009054906101000a900460ff16151515158152602001600d820160019054906101000a900460ff16151515158152602001600d820160029054906101000a900460ff16151515158152505081526020019060010190611277565b50505050905090565b6000600260008473ffffffffffffffffffffffffffffffffffffffff1673ffffffffffffffffffffffffffffffffffffffff16815260200190815260200160002060008363ffffffff1663ffffffff16815260200190815260200160002060003373ffffffffffffffffffffffffffffffffffffffff1673ffffffffffffffffffffffffffffffffffffffff16815260200190815260200160002054905092915050565b600560008373ffffffffffffffffffffffffffffffffffffffff1673ffffffffffffffffffffffffffffffffffffffff16815260200190815260200160002060008263ffffffff1663ffffffff16815260200190815260200160002060009054906101000a900460ff1661178a576040517f08c379a00000000000000000000000000000000000000000000000000000000081526004016117819061462c565b60405180910390fd5b6000600560008473ffffffffffffffffffffffffffffffffffffffff1673ffffffffffffffffffffffffffffffffffffffff16815260200190815260200160002060008363ffffffff1663ffffffff16815260200190815260200160002060006101000a81548160ff0219169083151502179055505050565b6000602052816000526040600020602052806000526040600020600091509150508060000160009054906101000a900473ffffffffffffffffffffffffffffffffffffffff16908060010160009054906101000a900473ffffffffffffffffffffffffffffffffffffffff16908060010160149054906101000a900463ffffffff16908060020154908060030154908060040154908060070154908060080160009054906101000a900460ff1690806009016040518060800160405290816000820154815260200160018201548152602001600282015481526020016003820160009054906101000a900473ffffffffffffffffffffffffffffffffffffffff1673ffffffffffffffffffffffffffffffffffffffff1673ffffffffffffffffffffffffffffffffffffffff16815250509080600d0160009054906101000a900460ff169080600d0160019054906101000a900460ff169080600d0160029054906101000a900460ff1690508c565b60008060008573ffffffffffffffffffffffffffffffffffffffff1673ffffffffffffffffffffffffffffffffffffffff16815260200190815260200160002060008463ffffffff1663ffffffff1681526020019081526020016000209050600181600d0160006101000a81548160ff0219169083151502179055508573ffffffffffffffffffffffffffffffffffffffff16816006018681548110611a41577f4e487b7100000000000000000000000000000000000000000000000000000000600052603260045260246000fd5b906000526020600020906004020160030160009054906101000a900473ffffffffffffffffffffffffffffffffffffffff1673ffffffffffffffffffffffffffffffffffffffff1614611ac9576040517f08c379a0000000000000000000000000000000000000000000000000000000008152600401611ac0906145ec565b60405180910390fd5b6000816006018681548110611b07577f4e487b7100000000000000000000000000000000000000000000000000000000600052603260045260246000fd5b906000526020600020906004020190508060000154600260008773ffffffffffffffffffffffffffffffffffffffff1673ffffffffffffffffffffffffffffffffffffffff16815260200190815260200160002060008663ffffffff1663ffffffff16815260200190815260200160002060008973ffffffffffffffffffffffffffffffffffffffff1673ffffffffffffffffffffffffffffffffffffffff16815260200190815260200160002054611bc091906149b2565b600260008773ffffffffffffffffffffffffffffffffffffffff1673ffffffffffffffffffffffffffffffffffffffff16815260200190815260200160002060008663ffffffff1663ffffffff16815260200190815260200160002060008973ffffffffffffffffffffffffffffffffffffffff1673ffffffffffffffffffffffffffffffffffffffff168152602001908152602001600020819055508160000160009054906101000a900473ffffffffffffffffffffffffffffffffffffffff1673ffffffffffffffffffffffffffffffffffffffff166108fc82600001549081150290604051600060405180830381858888f19350505050158015611ccb573d6000803e3d6000fd5b5080826009016000820154816000015560018201548160010155600282015481600201556003820160009054906101000a900473ffffffffffffffffffffffffffffffffffffffff168160030160006101000a81548173ffffffffffffffffffffffffffffffffffffffff021916908373ffffffffffffffffffffffffffffffffffffffff16021790555090505060018260080160006101000a81548160ff02191690831515021790555060008390508073ffffffffffffffffffffffffffffffffffffffff1663c2ca542260405180606001604052808660090160030160009054906101000a900473ffffffffffffffffffffffffffffffffffffffff1673ffffffffffffffffffffffffffffffffffffffff1673ffffffffffffffffffffffffffffffffffffffff1681526020018660000160009054906101000a900473ffffffffffffffffffffffffffffffffffffffff1673ffffffffffffffffffffffffffffffffffffffff1673ffffffffffffffffffffffffffffffffffffffff1681526020018973ffffffffffffffffffffffffffffffffffffffff1673ffffffffffffffffffffffffffffffffffffffff1681525060405180608001604052808963ffffffff168152602001876002015481526020018760090160010154815260200187600901600201548152506040518363ffffffff1660e01b8152600401611ed79291906144ea565b602060405180830381600087803b158015611ef157600080fd5b505af1158015611f05573d6000803e3d6000fd5b505050506040513d601f19601f82011682018060405250810190611f299190613a9b565b505050505050505050565b60008060008473ffffffffffffffffffffffffffffffffffffffff1673ffffffffffffffffffffffffffffffffffffffff16815260200190815260200160002060008363ffffffff1663ffffffff16815260200190815260200160002090506000600160008573ffffffffffffffffffffffffffffffffffffffff1673ffffffffffffffffffffffffffffffffffffffff16815260200190815260200160002060008463ffffffff1663ffffffff16815260200190815260200160002060003373ffffffffffffffffffffffffffffffffffffffff1673ffffffffffffffffffffffffffffffffffffffff168152602001908152602001600020905060005b818054905081101561253557600080600089848151811061207d577f4e487b7100000000000000000000000000000000000000000000000000000000600052603260045260246000fd5b60200260200101516000815181106120be577f4e487b7100000000000000000000000000000000000000000000000000000000600052603260045260246000fd5b60200260200101518a85815181106120ff577f4e487b7100000000000000000000000000000000000000000000000000000000600052603260045260246000fd5b6020026020010151600181518110612140577f4e487b7100000000000000000000000000000000000000000000000000000000600052603260045260246000fd5b60200260200101518b8681518110612181577f4e487b7100000000000000000000000000000000000000000000000000000000600052603260045260246000fd5b60200260200101516002815181106121c2577f4e487b7100000000000000000000000000000000000000000000000000000000600052603260045260246000fd5b6020026020010151925092509250600089858151811061220b577f4e487b7100000000000000000000000000000000000000000000000000000000600052603260045260246000fd5b602002602001015190506122218484848461329c565b86868154811061225a577f4e487b7100000000000000000000000000000000000000000000000000000000600052603260045260246000fd5b9060005260206000209060030201600001541461227a5750505050612522565b801580156122d25750838686815481106122bd577f4e487b7100000000000000000000000000000000000000000000000000000000600052603260045260246000fd5b90600052602060002090600302016002015410155b156123d157866002015484101580156122ef575086600301548311155b80156122ff575086600401548210155b156123d0578660060160405180608001604052808681526020018581526020018481526020013373ffffffffffffffffffffffffffffffffffffffff16815250908060018154018082558091505060019003906000526020600020906004020160009091909190915060008201518160000155602082015181600101556040820151816002015560608201518160030160006101000a81548173ffffffffffffffffffffffffffffffffffffffff021916908373ffffffffffffffffffffffffffffffffffffffff16021790555050505b5b6000801b86868154811061240e577f4e487b7100000000000000000000000000000000000000000000000000000000600052603260045260246000fd5b90600052602060002090600302016000018190555085858154811061245c577f4e487b7100000000000000000000000000000000000000000000000000000000600052603260045260246000fd5b906000526020600020906003020160020154600260008b73ffffffffffffffffffffffffffffffffffffffff1673ffffffffffffffffffffffffffffffffffffffff16815260200190815260200160002060008a63ffffffff1663ffffffff16815260200190815260200160002060003373ffffffffffffffffffffffffffffffffffffffff1673ffffffffffffffffffffffffffffffffffffffff168152602001908152602001600020600082825461251691906148c8565b92505081905550505050505b808061252d90614abf565b915050612033565b50505050505050565b612546613485565b6000808473ffffffffffffffffffffffffffffffffffffffff1673ffffffffffffffffffffffffffffffffffffffff16815260200190815260200160002060008363ffffffff1663ffffffff168152602001908152602001600020604051806101c00160405290816000820160009054906101000a900473ffffffffffffffffffffffffffffffffffffffff1673ffffffffffffffffffffffffffffffffffffffff1673ffffffffffffffffffffffffffffffffffffffff1681526020016001820160009054906101000a900473ffffffffffffffffffffffffffffffffffffffff1673ffffffffffffffffffffffffffffffffffffffff1673ffffffffffffffffffffffffffffffffffffffff1681526020016001820160149054906101000a900463ffffffff1663ffffffff1663ffffffff16815260200160028201548152602001600382015481526020016004820154815260200160058201805480602002602001604051908101604052809291908181526020016000905b8282101561275e5783829060005260206000209060030201604051806060016040529081600082015481526020016001820160009054906101000a900473ffffffffffffffffffffffffffffffffffffffff1673ffffffffffffffffffffffffffffffffffffffff1673ffffffffffffffffffffffffffffffffffffffff168152602001600282015481525050815260200190600101906126c2565b50505050815260200160068201805480602002602001604051908101604052809291908181526020016000905b8282101561283157838290600052602060002090600402016040518060800160405290816000820154815260200160018201548152602001600282015481526020016003820160009054906101000a900473ffffffffffffffffffffffffffffffffffffffff1673ffffffffffffffffffffffffffffffffffffffff1673ffffffffffffffffffffffffffffffffffffffff16815250508152602001906001019061278b565b505050508152602001600782015481526020016008820160009054906101000a900460ff16151515158152602001600982016040518060800160405290816000820154815260200160018201548152602001600282015481526020016003820160009054906101000a900473ffffffffffffffffffffffffffffffffffffffff1673ffffffffffffffffffffffffffffffffffffffff1673ffffffffffffffffffffffffffffffffffffffff16815250508152602001600d820160009054906101000a900460ff16151515158152602001600d820160019054906101000a900460ff16151515158152602001600d820160029054906101000a900460ff161515151581525050905092915050565b600260205282600052604060002060205281600052604060002060205280600052604060002060009250925050505481565b60008080600090505b600460009054906101000a900463ffffffff1663ffffffff168163ffffffff161015612ae457600060038263ffffffff16815481106129e2577f4e487b7100000000000000000000000000000000000000000000000000000000600052603260045260246000fd5b90600052602060002090600e020160010160009054906101000a900473ffffffffffffffffffffffffffffffffffffffff169050600060038363ffffffff1681548110612a58577f4e487b7100000000000000000000000000000000000000000000000000000000600052603260045260246000fd5b90600052602060002090600e020160010160149054906101000a900463ffffffff1690508673ffffffffffffffffffffffffffffffffffffffff168273ffffffffffffffffffffffffffffffffffffffff16148015612ac257508563ffffffff168163ffffffff16145b15612acf57829450600193505b50508080612adc90614b08565b91505061297a565b5080612b25576040517f08c379a0000000000000000000000000000000000000000000000000000000008152600401612b1c906146ac565b60405180910390fd5b60038263ffffffff1681548110612b65577f4e487b7100000000000000000000000000000000000000000000000000000000600052603260045260246000fd5b90600052602060002090600e0201600080820160006101000a81549073ffffffffffffffffffffffffffffffffffffffff02191690556001820160006101000a81549073ffffffffffffffffffffffffffffffffffffffff02191690556001820160146101000a81549063ffffffff0219169055600282016000905560038201600090556004820160009055600582016000612c019190613534565b600682016000612c119190613558565b60078201600090556008820160006101000a81549060ff021916905560098201600080820160009055600182016000905560028201600090556003820160006101000a81549073ffffffffffffffffffffffffffffffffffffffff02191690555050600d820160006101000a81549060ff0219169055600d820160016101000a81549060ff0219169055600d820160026101000a81549060ff021916905550506000808573ffffffffffffffffffffffffffffffffffffffff1673ffffffffffffffffffffffffffffffffffffffff16815260200190815260200160002060008463ffffffff1663ffffffff168152602001908152602001600020600080820160006101000a81549073ffffffffffffffffffffffffffffffffffffffff02191690556001820160006101000a81549073ffffffffffffffffffffffffffffffffffffffff02191690556001820160146101000a81549063ffffffff0219169055600282016000905560038201600090556004820160009055600582016000612d9a9190613534565b600682016000612daa9190613558565b60078201600090556008820160006101000a81549060ff021916905560098201600080820160009055600182016000905560028201600090556003820160006101000a81549073ffffffffffffffffffffffffffffffffffffffff02191690555050600d820160006101000a81549060ff0219169055600d820160016101000a81549060ff0219169055600d820160026101000a81549060ff021916905550506001600460008282829054906101000a900463ffffffff16612e6c91906149e6565b92506101000a81548163ffffffff021916908363ffffffff16021790555050505050565b60008060008473ffffffffffffffffffffffffffffffffffffffff1673ffffffffffffffffffffffffffffffffffffffff16815260200190815260200160002060008363ffffffff1663ffffffff168152602001908152602001600020905080600d0160009054906101000a900460ff1615612f41576040517f08c379a0000000000000000000000000000000000000000000000000000000008152600401612f38906145cc565b60405180910390fd5b80600d0160019054906101000a900460ff1615612f93576040517f08c379a0000000000000000000000000000000000000000000000000000000008152600401612f8a9061466c565b60405180910390fd5b8060080160009054906101000a900460ff1615612fe5576040517f08c379a0000000000000000000000000000000000000000000000000000000008152600401612fdc9061458c565b60405180910390fd5b600181600d0160016101000a81548160ff021916908315150217905550505050565b60008060008473ffffffffffffffffffffffffffffffffffffffff1673ffffffffffffffffffffffffffffffffffffffff16815260200190815260200160002060008363ffffffff1663ffffffff168152602001908152602001600020905080600d0160009054906101000a900460ff166130b7576040517f08c379a00000000000000000000000000000000000000000000000000000000081526004016130ae9061464c565b60405180910390fd5b8060080160009054906101000a900460ff16613108576040517f08c379a00000000000000000000000000000000000000000000000000000000081526004016130ff9061456c565b60405180910390fd5b6000600260008573ffffffffffffffffffffffffffffffffffffffff1673ffffffffffffffffffffffffffffffffffffffff16815260200190815260200160002060008463ffffffff1663ffffffff16815260200190815260200160002060003373ffffffffffffffffffffffffffffffffffffffff1673ffffffffffffffffffffffffffffffffffffffff1681526020019081526020016000205490506000811115613296576000600260008673ffffffffffffffffffffffffffffffffffffffff1673ffffffffffffffffffffffffffffffffffffffff16815260200190815260200160002060008563ffffffff1663ffffffff16815260200190815260200160002060003373ffffffffffffffffffffffffffffffffffffffff1673ffffffffffffffffffffffffffffffffffffffff168152602001908152602001600020819055503373ffffffffffffffffffffffffffffffffffffffff166108fc829081150290604051600060405180830381858888f19350505050158015613294573d6000803e3d6000fd5b505b50505050565b6000848484846040516020016132b594939291906143e2565b604051602081830303815290604052805190602001209050949350505050565b8280548282559060005260206000209060030281019282156133975760005260206000209160030282015b82811115613396578282600082015481600001556001820160009054906101000a900473ffffffffffffffffffffffffffffffffffffffff168160010160006101000a81548173ffffffffffffffffffffffffffffffffffffffff021916908373ffffffffffffffffffffffffffffffffffffffff16021790555060028201548160020155505091600301919060030190613300565b5b5090506133a4919061357c565b5090565b8280548282559060005260206000209060040281019282156134745760005260206000209160040282015b828111156134735782826000820154816000015560018201548160010155600282015481600201556003820160009054906101000a900473ffffffffffffffffffffffffffffffffffffffff168160030160006101000a81548173ffffffffffffffffffffffffffffffffffffffff021916908373ffffffffffffffffffffffffffffffffffffffff1602179055505050916004019190600401906133d3565b5b50905061348191906135ca565b5090565b604051806101c00160405280600073ffffffffffffffffffffffffffffffffffffffff168152602001600073ffffffffffffffffffffffffffffffffffffffff168152602001600063ffffffff168152602001600081526020016000815260200160008152602001606081526020016060815260200160008152602001600015158152602001613513613620565b81526020016000151581526020016000151581526020016000151581525090565b5080546000825560030290600052602060002090810190613555919061357c565b50565b508054600082556004029060005260206000209081019061357991906135ca565b50565b5b808211156135c6576000808201600090556001820160006101000a81549073ffffffffffffffffffffffffffffffffffffffff021916905560028201600090555060030161357d565b5090565b5b8082111561361c57600080820160009055600182016000905560028201600090556003820160006101000a81549073ffffffffffffffffffffffffffffffffffffffff0219169055506004016135cb565b5090565b6040518060800160405280600081526020016000815260200160008152602001600073ffffffffffffffffffffffffffffffffffffffff1681525090565b600061367161366c8461472e565b614709565b9050808382526020820190508285602086028201111561369057600080fd5b60005b858110156136da57813567ffffffffffffffff8111156136b257600080fd5b8086016136bf8982613825565b85526020850194506020840193505050600181019050613693565b5050509392505050565b60006136f76136f28461475a565b614709565b9050808382526020820190508285602086028201111561371657600080fd5b60005b85811015613746578161372c888261384f565b845260208401935060208301925050600181019050613719565b5050509392505050565b600061376361375e84614786565b614709565b9050808382526020820190508285602086028201111561378257600080fd5b60005b858110156137b257816137988882613864565b845260208401935060208301925050600181019050613785565b5050509392505050565b6000813590506137cb81614e3a565b92915050565b600082601f8301126137e257600080fd5b81356137f284826020860161365e565b91505092915050565b600082601f83011261380c57600080fd5b813561381c8482602086016136e4565b91505092915050565b600082601f83011261383657600080fd5b8135613846848260208601613750565b91505092915050565b60008135905061385e81614e51565b92915050565b60008135905061387381614e68565b92915050565b60008151905061388881614e68565b92915050565b60008135905061389d81614e7f565b92915050565b600080600080600060a086880312156138bb57600080fd5b60006138c9888289016137bc565b95505060206138da88828901613864565b94505060406138eb888289016137bc565b93505060606138fc8882890161388e565b925050608061390d888289016137bc565b9150509295509295909350565b6000806040838503121561392d57600080fd5b600061393b858286016137bc565b925050602061394c8582860161388e565b9150509250929050565b60008060006060848603121561396b57600080fd5b6000613979868287016137bc565b935050602061398a8682870161388e565b925050604061399b868287016137bc565b9150509250925092565b600080600080608085870312156139bb57600080fd5b60006139c9878288016137bc565b94505060206139da8782880161388e565b93505060406139eb878288016137bc565b92505060606139fc87828801613864565b91505092959194509250565b60008060008060808587031215613a1e57600080fd5b600085013567ffffffffffffffff811115613a3857600080fd5b613a44878288016137d1565b945050602085013567ffffffffffffffff811115613a6157600080fd5b613a6d878288016137fb565b9350506040613a7e878288016137bc565b9250506060613a8f8782880161388e565b91505092959194509250565b600060208284031215613aad57600080fd5b6000613abb84828501613879565b91505092915050565b60008060008060008060c08789031215613add57600080fd5b6000613aeb89828a01613864565b9650506020613afc89828a01613864565b9550506040613b0d89828a01613864565b9450506060613b1e89828a016137bc565b9350506080613b2f89828a0161388e565b92505060a0613b4089828a01613864565b9150509295509295509295565b60008060008060008060c08789031215613b6657600080fd5b6000613b7489828a01613864565b9650506020613b8589828a01613864565b9550506040613b9689828a01613864565b9450506060613ba789828a0161384f565b9350506080613bb889828a016137bc565b92505060a0613bc989828a0161388e565b9150509295509295509295565b6000613be28383613c68565b60208301905092915050565b6000613bfa8383614039565b905092915050565b6000613c0e83836142a3565b60608301905092915050565b6000613c2683836142e5565b60808301905092915050565b6000613c3e838361438f565b60208301905092915050565b613c5381614a2c565b82525050565b613c6281614a2c565b82525050565b613c7181614a1a565b82525050565b613c8081614a1a565b82525050565b613c8f816147f6565b613c99818461486e565b9250613ca4826147b2565b8060005b83811015613cd5578151613cbc8782613bd6565b9650613cc78361482d565b925050600181019050613ca8565b505050505050565b6000613ce882614801565b613cf28185614879565b935083602082028501613d04856147bc565b8060005b85811015613d405784840389528151613d218582613bee565b9450613d2c8361483a565b925060208a01995050600181019050613d08565b50829750879550505050505092915050565b6000613d5d8261480c565b613d67818561488a565b9350613d72836147cc565b8060005b83811015613da3578151613d8a8882613c02565b9750613d9583614847565b925050600181019050613d76565b5085935050505092915050565b6000613dbb82614817565b613dc5818561489b565b9350613dd0836147dc565b8060005b83811015613e01578151613de88882613c1a565b9750613df383614854565b925050600181019050613dd4565b5085935050505092915050565b613e1781614822565b613e2181846148ac565b9250613e2c826147ec565b8060005b83811015613e5d578151613e448782613c32565b9650613e4f83614861565b925050600181019050613e30565b505050505050565b613e6e81614a3e565b82525050565b613e7d81614a3e565b82525050565b613e94613e8f82614a3e565b614b35565b82525050565b613ea381614a4a565b82525050565b613eb281614a4a565b82525050565b6000613ec5602c836148b7565b9150613ed082614bdf565b604082019050919050565b6000613ee86014836148b7565b9150613ef382614c2e565b602082019050919050565b6000613f0b6025836148b7565b9150613f1682614c57565b604082019050919050565b6000613f2e6015836148b7565b9150613f3982614ca6565b602082019050919050565b6000613f51602c836148b7565b9150613f5c82614ccf565b604082019050919050565b6000613f746024836148b7565b9150613f7f82614d1e565b604082019050919050565b6000613f976017836148b7565b9150613fa282614d6d565b602082019050919050565b6000613fba6019836148b7565b9150613fc582614d96565b602082019050919050565b6000613fdd6018836148b7565b9150613fe882614dbf565b602082019050919050565b60006140006015836148b7565b915061400b82614de8565b602082019050919050565b6000614023600e836148b7565b915061402e82614e11565b602082019050919050565b6000610220830160008301516140526000860182613c4a565b5060208301516140656020860182613c68565b50604083015161407860408601826143c4565b50606083015161408b606086018261438f565b50608083015161409e608086018261438f565b5060a08301516140b160a086018261438f565b5060c083015184820360c08601526140c98282613d52565b91505060e083015184820360e08601526140e38282613db0565b9150506101008301516140fa61010086018261438f565b5061012083015161410f610120860182613e65565b506101408301516141246101408601826142e5565b506101608301516141396101c0860182613e65565b5061018083015161414e6101e0860182613e65565b506101a0830151614163610200860182613e65565b508091505092915050565b6000610220830160008301516141876000860182613c4a565b50602083015161419a6020860182613c68565b5060408301516141ad60408601826143c4565b5060608301516141c0606086018261438f565b5060808301516141d3608086018261438f565b5060a08301516141e660a086018261438f565b5060c083015184820360c08601526141fe8282613d52565b91505060e083015184820360e08601526142188282613db0565b91505061010083015161422f61010086018261438f565b50610120830151614244610120860182613e65565b506101408301516142596101408601826142e5565b5061016083015161426e6101c0860182613e65565b506101808301516142836101e0860182613e65565b506101a0830151614298610200860182613e65565b508091505092915050565b6060820160008201516142b96000850182613e9a565b5060208201516142cc6020850182613c68565b5060408201516142df604085018261438f565b50505050565b6080820160008201516142fb600085018261438f565b50602082015161430e602085018261438f565b506040820151614321604085018261438f565b5060608201516143346060850182613c68565b50505050565b608082016000820151614350600085018261438f565b506020820151614363602085018261438f565b506040820151614376604085018261438f565b5060608201516143896060850182613c68565b50505050565b61439881614a74565b82525050565b6143a781614a74565b82525050565b6143be6143b982614a74565b614b47565b82525050565b6143cd81614a7e565b82525050565b6143dc81614a7e565b82525050565b60006143ee82876143ad565b6020820191506143fe82866143ad565b60208201915061440e82856143ad565b60208201915061441e8284613e83565b60018201915081905095945050505050565b60006101e082019050614446600083018f613c59565b614453602083018e613c77565b614460604083018d6143d3565b61446d606083018c61439e565b61447a608083018b61439e565b61448760a083018a61439e565b61449460c083018961439e565b6144a160e0830188613e74565b6144af61010083018761433a565b6144bd610180830186613e74565b6144cb6101a0830185613e74565b6144d96101c0830184613e74565b9d9c50505050505050505050505050565b600060e0820190506144ff6000830185613c86565b61450c6060830184613e0e565b9392505050565b6000602082019050818103600083015261452d8184613cdd565b905092915050565b600060608201905061454a6000830186613ea9565b6145576020830185613c77565b614564604083018461439e565b949350505050565b6000602082019050818103600083015261458581613eb8565b9050919050565b600060208201905081810360008301526145a581613edb565b9050919050565b600060208201905081810360008301526145c581613efe565b9050919050565b600060208201905081810360008301526145e581613f21565b9050919050565b6000602082019050818103600083015261460581613f44565b9050919050565b6000602082019050818103600083015261462581613f67565b9050919050565b6000602082019050818103600083015261464581613f8a565b9050919050565b6000602082019050818103600083015261466581613fad565b9050919050565b6000602082019050818103600083015261468581613fd0565b9050919050565b600060208201905081810360008301526146a581613ff3565b9050919050565b600060208201905081810360008301526146c581614016565b9050919050565b600060208201905081810360008301526146e6818461416e565b905092915050565b6000602082019050614703600083018461439e565b92915050565b6000614713614724565b905061471f8282614a8e565b919050565b6000604051905090565b600067ffffffffffffffff82111561474957614748614b92565b5b602082029050602081019050919050565b600067ffffffffffffffff82111561477557614774614b92565b5b602082029050602081019050919050565b600067ffffffffffffffff8211156147a1576147a0614b92565b5b602082029050602081019050919050565b6000819050919050565b6000819050602082019050919050565b6000819050602082019050919050565b6000819050602082019050919050565b6000819050919050565b600060039050919050565b600081519050919050565b600081519050919050565b600081519050919050565b600060049050919050565b6000602082019050919050565b6000602082019050919050565b6000602082019050919050565b6000602082019050919050565b6000602082019050919050565b600081905092915050565b600082825260208201905092915050565b600082825260208201905092915050565b600082825260208201905092915050565b600081905092915050565b600082825260208201905092915050565b60006148d382614a74565b91506148de83614a74565b9250827fffffffffffffffffffffffffffffffffffffffffffffffffffffffffffffffff0382111561491357614912614b63565b5b828201905092915050565b600061492982614a7e565b915061493483614a7e565b92508263ffffffff0382111561494d5761494c614b63565b5b828201905092915050565b600061496382614a74565b915061496e83614a74565b9250817fffffffffffffffffffffffffffffffffffffffffffffffffffffffffffffffff04831182151516156149a7576149a6614b63565b5b828202905092915050565b60006149bd82614a74565b91506149c883614a74565b9250828210156149db576149da614b63565b5b828203905092915050565b60006149f182614a7e565b91506149fc83614a7e565b925082821015614a0f57614a0e614b63565b5b828203905092915050565b6000614a2582614a54565b9050919050565b6000614a3782614a54565b9050919050565b60008115159050919050565b6000819050919050565b600073ffffffffffffffffffffffffffffffffffffffff82169050919050565b6000819050919050565b600063ffffffff82169050919050565b614a9782614bc1565b810181811067ffffffffffffffff82111715614ab657614ab5614b92565b5b80604052505050565b6000614aca82614a74565b91507fffffffffffffffffffffffffffffffffffffffffffffffffffffffffffffffff821415614afd57614afc614b63565b5b600182019050919050565b6000614b1382614a7e565b915063ffffffff821415614b2a57614b29614b63565b5b600182019050919050565b6000614b4082614b51565b9050919050565b6000819050919050565b6000614b5c82614bd2565b9050919050565b7f4e487b7100000000000000000000000000000000000000000000000000000000600052601160045260246000fd5b7f4e487b7100000000000000000000000000000000000000000000000000000000600052604160045260246000fd5b6000601f19601f8301169050919050565b60008160f81b9050919050565b7f5468652061756374696f6e206f776e657220686173206e6f742073656c65637460008201527f6564206120626964207965740000000000000000000000000000000000000000602082015250565b7f42696420616c72656164792073656c6563746564000000000000000000000000600082015250565b7f596f7527766520616c726561647920706c61636564207468697320626964206260008201527f65666f7265000000000000000000000000000000000000000000000000000000602082015250565b7f41756374696f6e20616c726561647920656e6465640000000000000000000000600082015250565b7f426964494420646f65736e277420636f72726573706f6e64207769746820736560008201527f6c65637465644c656e6465720000000000000000000000000000000000000000602082015250565b7f41756374696f6e206475726174696f6e20686173206e6f7420656c617073656460008201527f2079657400000000000000000000000000000000000000000000000000000000602082015250565b7f4e465420686173206e6f74206265656e207374616b6564000000000000000000600082015250565b7f41756374696f6e20686173206e6f7420656e6465642079657400000000000000600082015250565b7f41756374696f6e20616c72656164792063616e63656c65640000000000000000600082015250565b7f4e465420697320616c7265616479207374616b65640000000000000000000000600082015250565b7f4572726f72206f63637572726564000000000000000000000000000000000000600082015250565b614e4381614a1a565b8114614e4e57600080fd5b50565b614e5a81614a3e565b8114614e6557600080fd5b50565b614e7181614a74565b8114614e7c57600080fd5b50565b614e8881614a7e565b8114614e9357600080fd5b5056fea2646970667358221220e787e9cd2cb230ca57e82464784d590325e8f2e1df14a421ba29b80318027a3664736f6c63430008040033",
  "immutableReferences": {},
  "source": "// SPDX-License-Identifier: GPL-3.0\npragma solidity ^0.8.4;\nimport \"./NFTMarketplace.sol\";\nimport \"./P2PLoan.sol\";\n\ncontract BlindAuction {\n\n    struct BlindedBid{\n        // blinded/hashed version of bid\n        bytes32 hashedBidVal;\n        // address of bidder\n        address bidder_address;\n        // deposit\n        uint depositValue;\n    }\n\n    struct RevealedBid{\n        uint loan_amount;\n        uint interest_rate;\n        uint repayment_time;\n        // ID identifying the bid\n        //uint bidID;\n        // address of bidder\n        address bidder_address;\n    }\n\n    struct Auction_Object{\n        // address of the loanee who will receive the loan once the auction ends or they selected a bid\n        address payable beneficiary; // the owner of the NFT i.e the person who wants a loan\n\n        // NFT collection contract address \n        address NFT_contract_address;\n\n        //Individual NFT tokenID \n        uint32 NFT_tokenID;\n\n        // minimum acceptable loan amount\n        uint min_loan_amount;\n\n        // maximum interest rate\n        uint max_interest_rate;\n\n        // minimum repayment period\n        uint min_repayment_period;\n\n        // list of blinded bids\n        BlindedBid[] blindedBids;\n\n        // list of revealed bids\n        RevealedBid[] revealedBids;\n\n        // the Auction window \n        uint auctionEndTime;\n\n        // whether the owner of auction i.e the beneficiary has selected a bid\n        bool bidSelected;\n\n        // address of selected bid\n        RevealedBid selectedBid;\n\n        // whether the auction has ended\n        bool auctionEnded;\n\n        // whether the owner of auction i.e the beneficiary has canceled the auction\n        bool auctionCanceled;\n\n        // whether all bids have been revealed\n        bool allBidsRevealed;\n\n        }\n\n    // mapping of NFT_contract_address to NFT_tokenID to auction_objects\n    mapping(address=>mapping(uint32=>Auction_Object)) public Auction_Objects;\n\n\n    //maps NFT contract address to individual NFT token ID to specific bidder address to their Blinded Bid\n    mapping(address=>mapping(uint32=>mapping(address=>BlindedBid[]))) public allBlindedBids;\n\n    //maps NFT contract address to individual NFT token ID to specific bidder address to the withdrawal amt they're supposed to get\n    mapping(address=>mapping(uint32=>mapping(address=>uint))) public eligibleWithdrawals;\n\n    // auctionObjects Array;\n    Auction_Object[] Auction_Objects_array;\n    uint32 Auction_Objects_count = 0;\n    // mapping of NFT contract address to individual NFT token ID  to boolean. Necessary for checking whether the NFT is already staked\n    mapping(address=>mapping(uint32=>bool)) NFT_staked_bool;\n    //uint NFT_contract_addresses_tokenIDs_count = 0;\n    //address[] NFT_contract_addresses_tokenIDs_arr;\n\n    // makes the Hash value\n    function generateHashedBid(uint loan_amt, uint int_rate, uint repayment_period, bool fake) internal pure returns (bytes32){\n        return keccak256(abi.encodePacked(loan_amt, int_rate, repayment_period, fake));\n    }\n\n    function startAuction(uint min_loan_amount, uint max_interest_rate, uint min_repayment_period, address NFT_contract_address, uint32 NFT_tokenID, uint auction_duration) public{\n        //NFT contract address + tokenID -> hashValue\n        \n        \n        // identifies the state of the auction\n        // add new Auction Object\n        // each has a distinct NFT address\n        // need to check that NFT is not already staked\n        require(!NFT_staked_bool[NFT_contract_address][NFT_tokenID], \"NFT is already staked\");\n        //lock NFT\n        // NFTMarketplace marketplace = NFTMarketplace(NFT_contract_address);\n        // marketplace.lockNFT(NFT_contract_address, NFT_tokenID);\n        // start auction\n        Auction_Object storage auctionObj = Auction_Objects[NFT_contract_address][NFT_tokenID];\n        auctionObj.beneficiary = payable(msg.sender);\n        auctionObj.min_loan_amount = min_loan_amount;\n        auctionObj.max_interest_rate = max_interest_rate;\n        auctionObj.min_repayment_period = min_repayment_period * 1 days;\n        auctionObj.NFT_contract_address = NFT_contract_address;\n        auctionObj.NFT_tokenID = NFT_tokenID;\n        auctionObj.auctionEndTime = block.timestamp + auction_duration * 1 hours;\n        auctionObj.bidSelected = false;\n        auctionObj.auctionCanceled  = false;\n        auctionObj.allBidsRevealed = false;\n        Auction_Objects[NFT_contract_address][NFT_tokenID] = auctionObj;\n\n\n        // since NFT has been staked change boolean to true\n        NFT_staked_bool[NFT_contract_address][NFT_tokenID] = true;\n        // just incase: we maintain a list of all current auctioned NFTS\n        //NFT_contract_addresses_arr.push(NFT_contract_address);\n        //NFT_contract_addresses_count += 1;\n\n        Auction_Objects_array.push(auctionObj);\n        Auction_Objects_count += 1;\n    }\n    \n    function makeBid(uint loan_amt, uint int_rate, uint repayment_period, bool fake, address NFT_contract_address,uint32 NFT_tokenID) payable public{\n        Auction_Object storage auctionObj = Auction_Objects[NFT_contract_address][NFT_tokenID];\n        //require (!auctionObj.auctionEnded, \"Auction has Ended\");\n        //require(!auctionObj.auctionCanceled, \"Auction was canceled\");\n        // ensure that bidder is not making the same bid\n        bytes32 HashVal = generateHashedBid(loan_amt, int_rate, repayment_period, fake);\n        BlindedBid[] storage bidsToCheck = allBlindedBids[NFT_contract_address][NFT_tokenID][msg.sender];\n        for(uint i = 0; i < bidsToCheck.length; i++){\n            require(bidsToCheck[i].hashedBidVal != HashVal, \"You've already placed this bid before\");\n        }\n        // add bid to availableBids\n        auctionObj.blindedBids.push(\n            BlindedBid(HashVal, msg.sender, msg.value\n            ));\n        allBlindedBids[NFT_contract_address][NFT_tokenID][msg.sender].push(\n            BlindedBid(HashVal, msg.sender, msg.value\n            )\n        );\n    }\n\n     function revealBid(uint[][] memory allSentLoanTerms, bool[] memory fake_, address NFT_contract_address,uint32 NFT_tokenID) public{\n        Auction_Object storage auctionObj = Auction_Objects[NFT_contract_address][NFT_tokenID];\n        BlindedBid[] storage bidsToCheck = allBlindedBids[NFT_contract_address][NFT_tokenID][msg.sender];\n        //require(auctionObj.auctionEnded, \"Auction has not ended\");\n        //require(allSentLoanTerms.length == bidsToCheck.length,\"Different Lengths\");\n        //require(fake_.length == bidsToCheck.length,\"Different Lengths\");\n        for(uint i = 0; i < bidsToCheck.length ;i++){\n            (uint loan_amt,uint int_rate, uint rep_period) = (allSentLoanTerms[i][0],allSentLoanTerms[i][1],allSentLoanTerms[i][2]);\n            bool fake = fake_[i];\n            if (bidsToCheck[i].hashedBidVal != generateHashedBid(loan_amt,int_rate,rep_period,fake)){\n                // bid was not revealed so continue\n                continue;\n            }\n            // check if not fake and that the depositValue is enough\n            if (!fake && bidsToCheck[i].depositValue >= loan_amt){\n                // check is the bid meet loan terms criteria\n                if (loan_amt >= auctionObj.min_loan_amount && \n                int_rate <= auctionObj.max_interest_rate && \n                rep_period >= auctionObj.min_repayment_period){\n                    auctionObj.revealedBids.push(\n                        RevealedBid(loan_amt,int_rate,rep_period,msg.sender)\n                        );\n                    //auctionObj.bidIDcounter += 1;\n                }\n            }\n            // Make it impossible for the sender to re-claim\n            // the same deposit.\n            bidsToCheck[i].hashedBidVal = 0x0;\n\n            // save the money they deposited as eligible withdrawal\n            eligibleWithdrawals[NFT_contract_address][NFT_tokenID][msg.sender] += bidsToCheck[i].depositValue;\n\n        }\n\n    }\n\n    function selectBid(address selectedLender, uint256 bidID, address NFT_contract_address,uint32 NFT_tokenID, address Loan_contract_adderss) public{\n        Auction_Object storage auctionObj = Auction_Objects[NFT_contract_address][NFT_tokenID];\n        //require(!auctionObj.bidSelected, \"A bid has already been selected\");\n\t    //require(!auctionObj.auctionCanceled, \"Auction was canceled\");\n        auctionObj.auctionEnded = true;\n        \n        require(auctionObj.revealedBids[bidID].bidder_address == selectedLender,\"BidID doesn't correspond with selectedLender\");\n       \n        RevealedBid storage bidSelected = auctionObj.revealedBids[bidID];\n        eligibleWithdrawals[NFT_contract_address][NFT_tokenID][selectedLender] = eligibleWithdrawals[NFT_contract_address][NFT_tokenID][selectedLender] - bidSelected.loan_amount;\n        //transfer ether to the beneficiary of the auction i.e the loanee\n        auctionObj.beneficiary.transfer(bidSelected.loan_amount);\n        auctionObj.selectedBid = bidSelected;\n        auctionObj.bidSelected = true;\n        //invoking loan contract\n        // SharedStructs.loanArgs memory loanArgs = SharedStructs.loanArgs(\n        //     payable(auctionObj.selectedBid.bidder_address),\n        //     auctionObj.beneficiary,\n        //     NFT_tokenID,\n        //     NFT_contract_address,\n        //     auctionObj.min_loan_amount,\n        //     auctionObj.selectedBid.interest_rate,\n        //     auctionObj.selectedBid.repayment_time\n        // );\n        P2PLoan loan_contract = P2PLoan(Loan_contract_adderss);\n        loan_contract.createLoan( \n            [auctionObj.selectedBid.bidder_address,auctionObj.beneficiary, NFT_contract_address],\n            [NFT_tokenID,auctionObj.min_loan_amount,auctionObj.selectedBid.interest_rate,auctionObj.selectedBid.repayment_time]\n        );\n    }\n\n    function endAuction(address NFT_contract_address,uint32 NFT_tokenID) public {\n        Auction_Object storage auctionObj = Auction_Objects[NFT_contract_address][NFT_tokenID];\n        require(!auctionObj.auctionEnded, \"Auction already ended\");\n        require(!auctionObj.auctionCanceled, \"Auction already canceled\");\n        require(block.timestamp >= auctionObj.auctionEndTime, \"Auction duration has not elapsed yet\");\n\n        auctionObj.auctionEnded = true;\n    }\n\n    function cancelAuction(address NFT_contract_address,uint32 NFT_tokenID) public{\n        Auction_Object storage auctionObj = Auction_Objects[NFT_contract_address][NFT_tokenID];\n        require(!auctionObj.auctionEnded, \"Auction already ended\");\n        require(!auctionObj.auctionCanceled, \"Auction already canceled\");\n        require(!auctionObj.bidSelected, \"Bid already selected\");\n\n        auctionObj.auctionCanceled = true;\n    }\n\n    // Allows bidders whose bids were not selected to withdraw the ether they had bid.\n    //The function is only viewable by the bidders-> frontend\n\n    // for the selected bidder who has made more than one bid, it needs to return the bids that are not selected\n    function withdraw(address NFT_contract_address,uint32 NFT_tokenID) public \n    {\n        Auction_Object storage auctionObj = Auction_Objects[NFT_contract_address][NFT_tokenID];\n        require(auctionObj.auctionEnded, \"Auction has not ended yet\");\n        require(auctionObj.bidSelected, \"The auction owner has not selected a bid yet\");\n        uint256 amount = eligibleWithdrawals[NFT_contract_address][NFT_tokenID][msg.sender];\n\n        // a more secure way to do this??\n        // https://docs.soliditylang.org/en/v0.8.7/common-patterns.html\n        if (amount > 0) {\n            // Set the account's eligible withdrawal to zero\n            eligibleWithdrawals[NFT_contract_address][NFT_tokenID][msg.sender] = 0;\n            // pay back the money they sent\n            // read that call is better than transfer for receiving money????\n            payable(msg.sender).transfer(amount);\n        }\n    }\n\n    // get a single Auction Object for one NFT address\n    function getAuctionObject(address NFT_contract_address,uint32 NFT_tokenID) public view returns (Auction_Object memory Auct_Obj)\n    {\n        return Auction_Objects[NFT_contract_address][NFT_tokenID];\n    }\n\n    // get all the Auction Objects\n    function getAllAuctionObjects() public view returns (Auction_Object[] memory Auct_Objs)\n    {\n        return Auction_Objects_array;\n    }\n\n    // delete NFT listing i.e after the loan has been repayed\n    function removeNFTListing(address NFT_contract_address,uint32 NFT_tokenID) public \n    {\n        require(NFT_staked_bool[NFT_contract_address][NFT_tokenID],\"NFT has not been staked\");\n        NFT_staked_bool[NFT_contract_address][NFT_tokenID] = false;\n        /*uint NFT_index = 0;\n        for(uint i = 0; i < NFT_contract_addresses_count; i++){\n            if(NFT_contract_addresses_arr[i] == NFT_contract_address){\n                NFT_index = i;\n                NFT_staked_bool[NFT_contract_address][NFT_tokenID] = false;\n            }\n        }\n        require(!NFT_staked_bool[NFT_contract_address][NFT_tokenID],\"Error occurred\");\n        delete NFT_contract_addresses_arr[NFT_index];\n        NFT_contract_addresses_count -= 1;*/\n    }\n\n    // delete an Auction\n    function deleteAuction(address NFT_contract_address,uint32 NFT_tokenID) public \n    {\n        uint32 index = 0;\n        bool found;\n        for(uint32 i = 0; i < Auction_Objects_count; i++){\n            address testContractAddress = Auction_Objects_array[i].NFT_contract_address;\n            uint32 testTokenID = Auction_Objects_array[i].NFT_tokenID;\n            if(testContractAddress == NFT_contract_address && testTokenID == NFT_tokenID){\n                index = i;\n                found = true;\n            }\n        }\n        require(found,\"Error occurred\");\n        delete Auction_Objects_array[index];\n        delete Auction_Objects[NFT_contract_address][NFT_tokenID];\n        Auction_Objects_count -= 1;\n    }\n\n    //return eligible withdrawal amt bidder is entitled to from a certain auction -> just for testing purposes\n    function showEligibleWithdrawal(address NFT_contract_address,uint32 NFT_tokenID) public view returns (uint256)\n    {\n        return eligibleWithdrawals[NFT_contract_address][NFT_tokenID][msg.sender];\n    }\n}",
  "sourcePath": "/Users/thikkar/Desktop/Karthik/Blockchain-Front-End/BlockchainGroup-2022Technical-Project/src/contracts/BlindAuction.sol",
  "compiler": {
    "name": "solc",
    "version": "0.8.4+commit.c7e474f2.Emscripten.clang"
  },
  "schemaVersion": "3.4.7",
  "updatedAt": "2022-05-22T21:26:26.643Z",
  "networkType": "ethereum",
  "devdoc": {
    "kind": "dev",
    "methods": {},
    "version": 1
  },
  "userdoc": {
    "kind": "user",
    "methods": {},
    "version": 1
  }
}