{
  "contractName": "BlindAuction",
  "abi": [
    {
      "inputs": [
        {
          "internalType": "address",
          "name": "",
          "type": "address"
        },
        {
          "internalType": "uint32",
          "name": "",
          "type": "uint32"
        }
      ],
      "name": "Auction_Objects",
      "outputs": [
        {
          "internalType": "address payable",
          "name": "beneficiary",
          "type": "address"
        },
        {
          "internalType": "address",
          "name": "NFT_contract_address",
          "type": "address"
        },
        {
          "internalType": "uint32",
          "name": "NFT_tokenID",
          "type": "uint32"
        },
        {
          "internalType": "uint256",
          "name": "min_loan_amount",
          "type": "uint256"
        },
        {
          "internalType": "uint256",
          "name": "max_interest_rate",
          "type": "uint256"
        },
        {
          "internalType": "uint256",
          "name": "min_repayment_period",
          "type": "uint256"
        },
        {
          "internalType": "uint256",
          "name": "auctionEndTime",
          "type": "uint256"
        },
        {
          "internalType": "bool",
          "name": "bidSelected",
          "type": "bool"
        },
        {
          "components": [
            {
              "internalType": "uint256",
              "name": "loan_amount",
              "type": "uint256"
            },
            {
              "internalType": "uint256",
              "name": "interest_rate",
              "type": "uint256"
            },
            {
              "internalType": "uint256",
              "name": "repayment_time",
              "type": "uint256"
            },
            {
              "internalType": "address",
              "name": "bidder_address",
              "type": "address"
            }
          ],
          "internalType": "struct BlindAuction.RevealedBid",
          "name": "selectedBid",
          "type": "tuple"
        },
        {
          "internalType": "bool",
          "name": "auctionEnded",
          "type": "bool"
        },
        {
          "internalType": "bool",
          "name": "auctionCanceled",
          "type": "bool"
        },
        {
          "internalType": "bool",
          "name": "allBidsRevealed",
          "type": "bool"
        }
      ],
      "stateMutability": "view",
      "type": "function",
      "constant": true
    },
    {
      "inputs": [
        {
          "internalType": "address",
          "name": "",
          "type": "address"
        },
        {
          "internalType": "uint32",
          "name": "",
          "type": "uint32"
        },
        {
          "internalType": "address",
          "name": "",
          "type": "address"
        },
        {
          "internalType": "uint256",
          "name": "",
          "type": "uint256"
        }
      ],
      "name": "allBlindedBids",
      "outputs": [
        {
          "internalType": "bytes32",
          "name": "hashedBidVal",
          "type": "bytes32"
        },
        {
          "internalType": "address",
          "name": "bidder_address",
          "type": "address"
        },
        {
          "internalType": "uint256",
          "name": "depositValue",
          "type": "uint256"
        }
      ],
      "stateMutability": "view",
      "type": "function",
      "constant": true
    },
    {
      "inputs": [
        {
          "internalType": "address",
          "name": "",
          "type": "address"
        },
        {
          "internalType": "uint32",
          "name": "",
          "type": "uint32"
        },
        {
          "internalType": "address",
          "name": "",
          "type": "address"
        }
      ],
      "name": "eligibleWithdrawals",
      "outputs": [
        {
          "internalType": "uint256",
          "name": "",
          "type": "uint256"
        }
      ],
      "stateMutability": "view",
      "type": "function",
      "constant": true
    },
    {
      "inputs": [
        {
          "internalType": "uint256",
          "name": "min_loan_amount",
          "type": "uint256"
        },
        {
          "internalType": "uint256",
          "name": "max_interest_rate",
          "type": "uint256"
        },
        {
          "internalType": "uint256",
          "name": "min_repayment_period",
          "type": "uint256"
        },
        {
          "internalType": "address",
          "name": "NFT_contract_address",
          "type": "address"
        },
        {
          "internalType": "uint32",
          "name": "NFT_tokenID",
          "type": "uint32"
        },
        {
          "internalType": "uint256",
          "name": "auction_duration",
          "type": "uint256"
        }
      ],
      "name": "startAuction",
      "outputs": [],
      "stateMutability": "nonpayable",
      "type": "function"
    },
    {
      "inputs": [
        {
          "internalType": "uint256",
          "name": "loan_amt",
          "type": "uint256"
        },
        {
          "internalType": "uint256",
          "name": "int_rate",
          "type": "uint256"
        },
        {
          "internalType": "uint256",
          "name": "repayment_period",
          "type": "uint256"
        },
        {
          "internalType": "bool",
          "name": "fake",
          "type": "bool"
        },
        {
          "internalType": "address",
          "name": "NFT_contract_address",
          "type": "address"
        },
        {
          "internalType": "uint32",
          "name": "NFT_tokenID",
          "type": "uint32"
        }
      ],
      "name": "makeBid",
      "outputs": [],
      "stateMutability": "payable",
      "type": "function",
      "payable": true
    },
    {
      "inputs": [
        {
          "internalType": "uint256[][]",
          "name": "allSentLoanTerms",
          "type": "uint256[][]"
        },
        {
          "internalType": "bool[]",
          "name": "fake_",
          "type": "bool[]"
        },
        {
          "internalType": "address",
          "name": "NFT_contract_address",
          "type": "address"
        },
        {
          "internalType": "uint32",
          "name": "NFT_tokenID",
          "type": "uint32"
        }
      ],
      "name": "revealBid",
      "outputs": [],
      "stateMutability": "nonpayable",
      "type": "function"
    },
    {
      "inputs": [
        {
          "internalType": "address",
          "name": "selectedLender",
          "type": "address"
        },
        {
          "internalType": "uint256",
          "name": "bidID",
          "type": "uint256"
        },
        {
          "internalType": "address",
          "name": "NFT_contract_address",
          "type": "address"
        },
        {
          "internalType": "uint32",
          "name": "NFT_tokenID",
          "type": "uint32"
        },
        {
          "internalType": "address",
          "name": "Loan_contract_adderss",
          "type": "address"
        }
      ],
      "name": "selectBid",
      "outputs": [],
      "stateMutability": "nonpayable",
      "type": "function"
    },
    {
      "inputs": [
        {
          "internalType": "uint256",
          "name": "curr_time",
          "type": "uint256"
        },
        {
          "internalType": "address",
          "name": "NFT_contract_address",
          "type": "address"
        },
        {
          "internalType": "uint32",
          "name": "NFT_tokenID",
          "type": "uint32"
        }
      ],
      "name": "endAuction",
      "outputs": [],
      "stateMutability": "nonpayable",
      "type": "function"
    },
    {
      "inputs": [
        {
          "internalType": "address",
          "name": "NFT_contract_address",
          "type": "address"
        },
        {
          "internalType": "uint32",
          "name": "NFT_tokenID",
          "type": "uint32"
        }
      ],
      "name": "viewAuctionEnded",
      "outputs": [
        {
          "internalType": "bool",
          "name": "",
          "type": "bool"
        }
      ],
      "stateMutability": "view",
      "type": "function",
      "constant": true
    },
    {
      "inputs": [
        {
          "internalType": "address",
          "name": "NFT_contract_address",
          "type": "address"
        },
        {
          "internalType": "uint32",
          "name": "NFT_tokenID",
          "type": "uint32"
        }
      ],
      "name": "cancelAuction",
      "outputs": [],
      "stateMutability": "nonpayable",
      "type": "function"
    },
    {
      "inputs": [
        {
          "internalType": "address",
          "name": "NFT_contract_address",
          "type": "address"
        },
        {
          "internalType": "uint32",
          "name": "NFT_tokenID",
          "type": "uint32"
        }
      ],
      "name": "withdraw",
      "outputs": [],
      "stateMutability": "nonpayable",
      "type": "function"
    },
    {
      "inputs": [
        {
          "internalType": "address",
          "name": "NFT_contract_address",
          "type": "address"
        },
        {
          "internalType": "uint32",
          "name": "NFT_tokenID",
          "type": "uint32"
        }
      ],
      "name": "getAuctionObject",
      "outputs": [
        {
          "components": [
            {
              "internalType": "address payable",
              "name": "beneficiary",
              "type": "address"
            },
            {
              "internalType": "address",
              "name": "NFT_contract_address",
              "type": "address"
            },
            {
              "internalType": "uint32",
              "name": "NFT_tokenID",
              "type": "uint32"
            },
            {
              "internalType": "uint256",
              "name": "min_loan_amount",
              "type": "uint256"
            },
            {
              "internalType": "uint256",
              "name": "max_interest_rate",
              "type": "uint256"
            },
            {
              "internalType": "uint256",
              "name": "min_repayment_period",
              "type": "uint256"
            },
            {
              "components": [
                {
                  "internalType": "bytes32",
                  "name": "hashedBidVal",
                  "type": "bytes32"
                },
                {
                  "internalType": "address",
                  "name": "bidder_address",
                  "type": "address"
                },
                {
                  "internalType": "uint256",
                  "name": "depositValue",
                  "type": "uint256"
                }
              ],
              "internalType": "struct BlindAuction.BlindedBid[]",
              "name": "blindedBids",
              "type": "tuple[]"
            },
            {
              "components": [
                {
                  "internalType": "uint256",
                  "name": "loan_amount",
                  "type": "uint256"
                },
                {
                  "internalType": "uint256",
                  "name": "interest_rate",
                  "type": "uint256"
                },
                {
                  "internalType": "uint256",
                  "name": "repayment_time",
                  "type": "uint256"
                },
                {
                  "internalType": "address",
                  "name": "bidder_address",
                  "type": "address"
                }
              ],
              "internalType": "struct BlindAuction.RevealedBid[]",
              "name": "revealedBids",
              "type": "tuple[]"
            },
            {
              "internalType": "uint256",
              "name": "auctionEndTime",
              "type": "uint256"
            },
            {
              "internalType": "bool",
              "name": "bidSelected",
              "type": "bool"
            },
            {
              "components": [
                {
                  "internalType": "uint256",
                  "name": "loan_amount",
                  "type": "uint256"
                },
                {
                  "internalType": "uint256",
                  "name": "interest_rate",
                  "type": "uint256"
                },
                {
                  "internalType": "uint256",
                  "name": "repayment_time",
                  "type": "uint256"
                },
                {
                  "internalType": "address",
                  "name": "bidder_address",
                  "type": "address"
                }
              ],
              "internalType": "struct BlindAuction.RevealedBid",
              "name": "selectedBid",
              "type": "tuple"
            },
            {
              "internalType": "bool",
              "name": "auctionEnded",
              "type": "bool"
            },
            {
              "internalType": "bool",
              "name": "auctionCanceled",
              "type": "bool"
            },
            {
              "internalType": "bool",
              "name": "allBidsRevealed",
              "type": "bool"
            }
          ],
          "internalType": "struct BlindAuction.Auction_Object",
          "name": "Auct_Obj",
          "type": "tuple"
        }
      ],
      "stateMutability": "view",
      "type": "function",
      "constant": true
    },
    {
      "inputs": [],
      "name": "getAllAuctionObjects",
      "outputs": [
        {
          "components": [
            {
              "internalType": "address payable",
              "name": "beneficiary",
              "type": "address"
            },
            {
              "internalType": "address",
              "name": "NFT_contract_address",
              "type": "address"
            },
            {
              "internalType": "uint32",
              "name": "NFT_tokenID",
              "type": "uint32"
            },
            {
              "internalType": "uint256",
              "name": "min_loan_amount",
              "type": "uint256"
            },
            {
              "internalType": "uint256",
              "name": "max_interest_rate",
              "type": "uint256"
            },
            {
              "internalType": "uint256",
              "name": "min_repayment_period",
              "type": "uint256"
            },
            {
              "components": [
                {
                  "internalType": "bytes32",
                  "name": "hashedBidVal",
                  "type": "bytes32"
                },
                {
                  "internalType": "address",
                  "name": "bidder_address",
                  "type": "address"
                },
                {
                  "internalType": "uint256",
                  "name": "depositValue",
                  "type": "uint256"
                }
              ],
              "internalType": "struct BlindAuction.BlindedBid[]",
              "name": "blindedBids",
              "type": "tuple[]"
            },
            {
              "components": [
                {
                  "internalType": "uint256",
                  "name": "loan_amount",
                  "type": "uint256"
                },
                {
                  "internalType": "uint256",
                  "name": "interest_rate",
                  "type": "uint256"
                },
                {
                  "internalType": "uint256",
                  "name": "repayment_time",
                  "type": "uint256"
                },
                {
                  "internalType": "address",
                  "name": "bidder_address",
                  "type": "address"
                }
              ],
              "internalType": "struct BlindAuction.RevealedBid[]",
              "name": "revealedBids",
              "type": "tuple[]"
            },
            {
              "internalType": "uint256",
              "name": "auctionEndTime",
              "type": "uint256"
            },
            {
              "internalType": "bool",
              "name": "bidSelected",
              "type": "bool"
            },
            {
              "components": [
                {
                  "internalType": "uint256",
                  "name": "loan_amount",
                  "type": "uint256"
                },
                {
                  "internalType": "uint256",
                  "name": "interest_rate",
                  "type": "uint256"
                },
                {
                  "internalType": "uint256",
                  "name": "repayment_time",
                  "type": "uint256"
                },
                {
                  "internalType": "address",
                  "name": "bidder_address",
                  "type": "address"
                }
              ],
              "internalType": "struct BlindAuction.RevealedBid",
              "name": "selectedBid",
              "type": "tuple"
            },
            {
              "internalType": "bool",
              "name": "auctionEnded",
              "type": "bool"
            },
            {
              "internalType": "bool",
              "name": "auctionCanceled",
              "type": "bool"
            },
            {
              "internalType": "bool",
              "name": "allBidsRevealed",
              "type": "bool"
            }
          ],
          "internalType": "struct BlindAuction.Auction_Object[]",
          "name": "Auct_Objs",
          "type": "tuple[]"
        }
      ],
      "stateMutability": "view",
      "type": "function",
      "constant": true
    },
    {
      "inputs": [
        {
          "internalType": "address",
          "name": "NFT_contract_address",
          "type": "address"
        },
        {
          "internalType": "uint32",
          "name": "NFT_tokenID",
          "type": "uint32"
        }
      ],
      "name": "removeNFTListing",
      "outputs": [],
      "stateMutability": "nonpayable",
      "type": "function"
    },
    {
      "inputs": [
        {
          "internalType": "address",
          "name": "NFT_contract_address",
          "type": "address"
        },
        {
          "internalType": "uint32",
          "name": "NFT_tokenID",
          "type": "uint32"
        }
      ],
      "name": "deleteAuction",
      "outputs": [],
      "stateMutability": "nonpayable",
      "type": "function"
    },
    {
      "inputs": [
        {
          "internalType": "address",
          "name": "NFT_contract_address",
          "type": "address"
        },
        {
          "internalType": "uint32",
          "name": "NFT_tokenID",
          "type": "uint32"
        }
      ],
      "name": "showEligibleWithdrawal",
      "outputs": [
        {
          "internalType": "uint256",
          "name": "",
          "type": "uint256"
        }
      ],
      "stateMutability": "view",
      "type": "function",
      "constant": true
    }
  ],
  "bytecode": "0x60806040526000600460006101000a81548163ffffffff021916908363ffffffff16021790555034801561003257600080fd5b50615464806100426000396000f3fe6080604052600436106100f35760003560e01c80638287e9c21161008a578063cafbe9fd11610059578063cafbe9fd1461034a578063d742ec1914610387578063f229965f146103b0578063fc302395146103d9576100f3565b80638287e9c214610292578063959ad78c146102bb578063baf5f94e146102e4578063c59b0dc21461030d576100f3565b806330e093c8116100c657806330e093c8146101b95780635dcacbf4146101e457806379c88528146102215780637bec28fd1461024a576100f3565b806304c75b07146100f85780630a822bfb146101355780631227fabe146101745780632f0a489214610190575b600080fd5b34801561010457600080fd5b5061011f600480360381019061011a9190613e48565b610402565b60405161012c9190614ab2565b60405180910390f35b34801561014157600080fd5b5061015c60048036038101906101579190613ed3565b61047d565b60405161016b93929190614acd565b60405180910390f35b61018e600480360381019061018991906140ca565b6104fe565b005b34801561019c57600080fd5b506101b760048036038101906101b29190614041565b610c43565b005b3480156101c557600080fd5b506101ce61151d565b6040516101db9190614a90565b60405180910390f35b3480156101f057600080fd5b5061020b60048036038101906102069190613e48565b611907565b6040516102189190614c86565b60405180910390f35b34801561022d57600080fd5b5061024860048036038101906102439190613e48565b6119ab565b005b34801561025657600080fd5b50610271600480360381019061026c9190613e48565b611acd565b6040516102899c9b9a999897969594939291906149ad565b60405180910390f35b34801561029e57600080fd5b506102b960048036038101906102b49190613dd1565b611c3c565b005b3480156102c757600080fd5b506102e260048036038101906102dd9190613f36565b6121fe565b005b3480156102f057600080fd5b5061030b60048036038101906103069190613ff2565b612808565b005b34801561031957600080fd5b50610334600480360381019061032f9190613e48565b612a6c565b6040516103419190614c64565b60405180910390f35b34801561035657600080fd5b50610371600480360381019061036c9190613e84565b612e6d565b60405161037e9190614c86565b60405180910390f35b34801561039357600080fd5b506103ae60048036038101906103a99190613e48565b612e9f565b005b3480156103bc57600080fd5b506103d760048036038101906103d29190613e48565b6133be565b005b3480156103e557600080fd5b5061040060048036038101906103fb9190613e48565b613535565b005b6000806000808573ffffffffffffffffffffffffffffffffffffffff1673ffffffffffffffffffffffffffffffffffffffff16815260200190815260200160002060008463ffffffff1663ffffffff168152602001908152602001600020905080600d0160009054906101000a900460ff1691505092915050565b600160205283600052604060002060205282600052604060002060205281600052604060002081815481106104b157600080fd5b90600052602060002090600302016000935093505050508060000154908060010160009054906101000a900473ffffffffffffffffffffffffffffffffffffffff16908060020154905083565b60008060008473ffffffffffffffffffffffffffffffffffffffff1673ffffffffffffffffffffffffffffffffffffffff16815260200190815260200160002060008363ffffffff1663ffffffff1681526020019081526020016000209050600061056b888888886137ca565b90506000600160008673ffffffffffffffffffffffffffffffffffffffff1673ffffffffffffffffffffffffffffffffffffffff16815260200190815260200160002060008563ffffffff1663ffffffff16815260200190815260200160002060003373ffffffffffffffffffffffffffffffffffffffff1673ffffffffffffffffffffffffffffffffffffffff168152602001908152602001600020905060005b81805490508110156106b95782828281548110610653577f4e487b7100000000000000000000000000000000000000000000000000000000600052603260045260246000fd5b90600052602060002090600302016000015414156106a6576040517f08c379a000000000000000000000000000000000000000000000000000000000815260040161069d90614b44565b60405180910390fd5b80806106b190615057565b91505061060d565b508260050160405180606001604052808481526020013373ffffffffffffffffffffffffffffffffffffffff1681526020013481525090806001815401808255809150506001900390600052602060002090600302016000909190919091506000820151816000015560208201518160010160006101000a81548173ffffffffffffffffffffffffffffffffffffffff021916908373ffffffffffffffffffffffffffffffffffffffff1602179055506040820151816002015550508260060160405180608001604052808b81526020018a81526020018981526020013373ffffffffffffffffffffffffffffffffffffffff16815250908060018154018082558091505060019003906000526020600020906004020160009091909190915060008201518160000155602082015181600101556040820151816002015560608201518160030160006101000a81548173ffffffffffffffffffffffffffffffffffffffff021916908373ffffffffffffffffffffffffffffffffffffffff1602179055505050600160008673ffffffffffffffffffffffffffffffffffffffff1673ffffffffffffffffffffffffffffffffffffffff16815260200190815260200160002060008563ffffffff1663ffffffff16815260200190815260200160002060003373ffffffffffffffffffffffffffffffffffffffff1673ffffffffffffffffffffffffffffffffffffffff16815260200190815260200160002060405180606001604052808481526020013373ffffffffffffffffffffffffffffffffffffffff1681526020013481525090806001815401808255809150506001900390600052602060002090600302016000909190919091506000820151816000015560208201518160010160006101000a81548173ffffffffffffffffffffffffffffffffffffffff021916908373ffffffffffffffffffffffffffffffffffffffff16021790555060408201518160020155505060005b600380549050811015610c37578463ffffffff16600382815481106109e1577f4e487b7100000000000000000000000000000000000000000000000000000000600052603260045260246000fd5b90600052602060002090600e020160010160149054906101000a900463ffffffff1663ffffffff161415610c245760038181548110610a49577f4e487b7100000000000000000000000000000000000000000000000000000000600052603260045260246000fd5b90600052602060002090600e020160050160405180606001604052808581526020013373ffffffffffffffffffffffffffffffffffffffff1681526020013481525090806001815401808255809150506001900390600052602060002090600302016000909190919091506000820151816000015560208201518160010160006101000a81548173ffffffffffffffffffffffffffffffffffffffff021916908373ffffffffffffffffffffffffffffffffffffffff16021790555060408201518160020155505060038181548110610b4b577f4e487b7100000000000000000000000000000000000000000000000000000000600052603260045260246000fd5b90600052602060002090600e020160060160405180608001604052808c81526020018b81526020018a81526020013373ffffffffffffffffffffffffffffffffffffffff16815250908060018154018082558091505060019003906000526020600020906004020160009091909190915060008201518160000155602082015181600101556040820151816002015560608201518160030160006101000a81548173ffffffffffffffffffffffffffffffffffffffff021916908373ffffffffffffffffffffffffffffffffffffffff16021790555050505b8080610c2f90615057565b915050610993565b50505050505050505050565b600560008473ffffffffffffffffffffffffffffffffffffffff1673ffffffffffffffffffffffffffffffffffffffff16815260200190815260200160002060008363ffffffff1663ffffffff16815260200190815260200160002060009054906101000a900460ff1615610ced576040517f08c379a0000000000000000000000000000000000000000000000000000000008152600401610ce490614c24565b60405180910390fd5b60008060008573ffffffffffffffffffffffffffffffffffffffff1673ffffffffffffffffffffffffffffffffffffffff16815260200190815260200160002060008463ffffffff1663ffffffff1681526020019081526020016000209050338160000160006101000a81548173ffffffffffffffffffffffffffffffffffffffff021916908373ffffffffffffffffffffffffffffffffffffffff1602179055508681600201819055508581600301819055506201518085610db09190614ef0565b8160040181905550838160010160006101000a81548173ffffffffffffffffffffffffffffffffffffffff021916908373ffffffffffffffffffffffffffffffffffffffff160217905550828160010160146101000a81548163ffffffff021916908363ffffffff160217905550610e1082610e2c9190614ef0565b42610e379190614e60565b816007018190555060008160080160006101000a81548160ff021916908315150217905550600081600d0160016101000a81548160ff021916908315150217905550600081600d0160026101000a81548160ff021916908315150217905550806000808673ffffffffffffffffffffffffffffffffffffffff1673ffffffffffffffffffffffffffffffffffffffff16815260200190815260200160002060008563ffffffff1663ffffffff1681526020019081526020016000206000820160009054906101000a900473ffffffffffffffffffffffffffffffffffffffff168160000160006101000a81548173ffffffffffffffffffffffffffffffffffffffff021916908373ffffffffffffffffffffffffffffffffffffffff1602179055506001820160009054906101000a900473ffffffffffffffffffffffffffffffffffffffff168160010160006101000a81548173ffffffffffffffffffffffffffffffffffffffff021916908373ffffffffffffffffffffffffffffffffffffffff1602179055506001820160149054906101000a900463ffffffff168160010160146101000a81548163ffffffff021916908363ffffffff160217905550600282015481600201556003820154816003015560048201548160040155600582018160050190805461102b929190613803565b5060068201816006019080546110429291906138d6565b50600782015481600701556008820160009054906101000a900460ff168160080160006101000a81548160ff02191690831515021790555060098201816009016000820154816000015560018201548160010155600282015481600201556003820160009054906101000a900473ffffffffffffffffffffffffffffffffffffffff168160030160006101000a81548173ffffffffffffffffffffffffffffffffffffffff021916908373ffffffffffffffffffffffffffffffffffffffff1602179055505050600d820160009054906101000a900460ff1681600d0160006101000a81548160ff021916908315150217905550600d820160019054906101000a900460ff1681600d0160016101000a81548160ff021916908315150217905550600d820160029054906101000a900460ff1681600d0160026101000a81548160ff0219169083151502179055509050506001600560008673ffffffffffffffffffffffffffffffffffffffff1673ffffffffffffffffffffffffffffffffffffffff16815260200190815260200160002060008563ffffffff1663ffffffff16815260200190815260200160002060006101000a81548160ff02191690831515021790555060038190806001815401808255809150506001900390600052602060002090600e02016000909190919091506000820160009054906101000a900473ffffffffffffffffffffffffffffffffffffffff168160000160006101000a81548173ffffffffffffffffffffffffffffffffffffffff021916908373ffffffffffffffffffffffffffffffffffffffff1602179055506001820160009054906101000a900473ffffffffffffffffffffffffffffffffffffffff168160010160006101000a81548173ffffffffffffffffffffffffffffffffffffffff021916908373ffffffffffffffffffffffffffffffffffffffff1602179055506001820160149054906101000a900463ffffffff168160010160146101000a81548163ffffffff021916908363ffffffff160217905550600282015481600201556003820154816003015560048201548160040155600582018160050190805461136d929190613803565b5060068201816006019080546113849291906138d6565b50600782015481600701556008820160009054906101000a900460ff168160080160006101000a81548160ff02191690831515021790555060098201816009016000820154816000015560018201548160010155600282015481600201556003820160009054906101000a900473ffffffffffffffffffffffffffffffffffffffff168160030160006101000a81548173ffffffffffffffffffffffffffffffffffffffff021916908373ffffffffffffffffffffffffffffffffffffffff1602179055505050600d820160009054906101000a900460ff1681600d0160006101000a81548160ff021916908315150217905550600d820160019054906101000a900460ff1681600d0160016101000a81548160ff021916908315150217905550600d820160029054906101000a900460ff1681600d0160026101000a81548160ff02191690831515021790555050506001600460008282829054906101000a900463ffffffff166114f69190614eb6565b92506101000a81548163ffffffff021916908363ffffffff16021790555050505050505050565b60606003805480602002602001604051908101604052809291908181526020016000905b828210156118fe57838290600052602060002090600e0201604051806101c00160405290816000820160009054906101000a900473ffffffffffffffffffffffffffffffffffffffff1673ffffffffffffffffffffffffffffffffffffffff1673ffffffffffffffffffffffffffffffffffffffff1681526020016001820160009054906101000a900473ffffffffffffffffffffffffffffffffffffffff1673ffffffffffffffffffffffffffffffffffffffff1673ffffffffffffffffffffffffffffffffffffffff1681526020016001820160149054906101000a900463ffffffff1663ffffffff1663ffffffff16815260200160028201548152602001600382015481526020016004820154815260200160058201805480602002602001604051908101604052809291908181526020016000905b828210156117165783829060005260206000209060030201604051806060016040529081600082015481526020016001820160009054906101000a900473ffffffffffffffffffffffffffffffffffffffff1673ffffffffffffffffffffffffffffffffffffffff1673ffffffffffffffffffffffffffffffffffffffff1681526020016002820154815250508152602001906001019061167a565b50505050815260200160068201805480602002602001604051908101604052809291908181526020016000905b828210156117e957838290600052602060002090600402016040518060800160405290816000820154815260200160018201548152602001600282015481526020016003820160009054906101000a900473ffffffffffffffffffffffffffffffffffffffff1673ffffffffffffffffffffffffffffffffffffffff1673ffffffffffffffffffffffffffffffffffffffff168152505081526020019060010190611743565b505050508152602001600782015481526020016008820160009054906101000a900460ff16151515158152602001600982016040518060800160405290816000820154815260200160018201548152602001600282015481526020016003820160009054906101000a900473ffffffffffffffffffffffffffffffffffffffff1673ffffffffffffffffffffffffffffffffffffffff1673ffffffffffffffffffffffffffffffffffffffff16815250508152602001600d820160009054906101000a900460ff16151515158152602001600d820160019054906101000a900460ff16151515158152602001600d820160029054906101000a900460ff16151515158152505081526020019060010190611541565b50505050905090565b6000600260008473ffffffffffffffffffffffffffffffffffffffff1673ffffffffffffffffffffffffffffffffffffffff16815260200190815260200160002060008363ffffffff1663ffffffff16815260200190815260200160002060003373ffffffffffffffffffffffffffffffffffffffff1673ffffffffffffffffffffffffffffffffffffffff16815260200190815260200160002054905092915050565b600560008373ffffffffffffffffffffffffffffffffffffffff1673ffffffffffffffffffffffffffffffffffffffff16815260200190815260200160002060008263ffffffff1663ffffffff16815260200190815260200160002060009054906101000a900460ff16611a54576040517f08c379a0000000000000000000000000000000000000000000000000000000008152600401611a4b90614bc4565b60405180910390fd5b6000600560008473ffffffffffffffffffffffffffffffffffffffff1673ffffffffffffffffffffffffffffffffffffffff16815260200190815260200160002060008363ffffffff1663ffffffff16815260200190815260200160002060006101000a81548160ff0219169083151502179055505050565b6000602052816000526040600020602052806000526040600020600091509150508060000160009054906101000a900473ffffffffffffffffffffffffffffffffffffffff16908060010160009054906101000a900473ffffffffffffffffffffffffffffffffffffffff16908060010160149054906101000a900463ffffffff16908060020154908060030154908060040154908060070154908060080160009054906101000a900460ff1690806009016040518060800160405290816000820154815260200160018201548152602001600282015481526020016003820160009054906101000a900473ffffffffffffffffffffffffffffffffffffffff1673ffffffffffffffffffffffffffffffffffffffff1673ffffffffffffffffffffffffffffffffffffffff16815250509080600d0160009054906101000a900460ff169080600d0160019054906101000a900460ff169080600d0160029054906101000a900460ff1690508c565b60008060008573ffffffffffffffffffffffffffffffffffffffff1673ffffffffffffffffffffffffffffffffffffffff16815260200190815260200160002060008463ffffffff1663ffffffff1681526020019081526020016000209050600181600d0160006101000a81548160ff0219169083151502179055508573ffffffffffffffffffffffffffffffffffffffff16816006018681548110611d0b577f4e487b7100000000000000000000000000000000000000000000000000000000600052603260045260246000fd5b906000526020600020906004020160030160009054906101000a900473ffffffffffffffffffffffffffffffffffffffff1673ffffffffffffffffffffffffffffffffffffffff1614611d93576040517f08c379a0000000000000000000000000000000000000000000000000000000008152600401611d8a90614b84565b60405180910390fd5b6000816006018681548110611dd1577f4e487b7100000000000000000000000000000000000000000000000000000000600052603260045260246000fd5b906000526020600020906004020190508060000154600260008773ffffffffffffffffffffffffffffffffffffffff1673ffffffffffffffffffffffffffffffffffffffff16815260200190815260200160002060008663ffffffff1663ffffffff16815260200190815260200160002060008973ffffffffffffffffffffffffffffffffffffffff1673ffffffffffffffffffffffffffffffffffffffff16815260200190815260200160002054611e8a9190614f4a565b600260008773ffffffffffffffffffffffffffffffffffffffff1673ffffffffffffffffffffffffffffffffffffffff16815260200190815260200160002060008663ffffffff1663ffffffff16815260200190815260200160002060008973ffffffffffffffffffffffffffffffffffffffff1673ffffffffffffffffffffffffffffffffffffffff168152602001908152602001600020819055508160000160009054906101000a900473ffffffffffffffffffffffffffffffffffffffff1673ffffffffffffffffffffffffffffffffffffffff166108fc82600001549081150290604051600060405180830381858888f19350505050158015611f95573d6000803e3d6000fd5b5080826009016000820154816000015560018201548160010155600282015481600201556003820160009054906101000a900473ffffffffffffffffffffffffffffffffffffffff168160030160006101000a81548173ffffffffffffffffffffffffffffffffffffffff021916908373ffffffffffffffffffffffffffffffffffffffff16021790555090505060018260080160006101000a81548160ff02191690831515021790555060008390508073ffffffffffffffffffffffffffffffffffffffff1663c2ca542260405180606001604052808660090160030160009054906101000a900473ffffffffffffffffffffffffffffffffffffffff1673ffffffffffffffffffffffffffffffffffffffff1673ffffffffffffffffffffffffffffffffffffffff1681526020018660000160009054906101000a900473ffffffffffffffffffffffffffffffffffffffff1673ffffffffffffffffffffffffffffffffffffffff1673ffffffffffffffffffffffffffffffffffffffff1681526020018973ffffffffffffffffffffffffffffffffffffffff1673ffffffffffffffffffffffffffffffffffffffff1681525060405180608001604052808963ffffffff168152602001876002015481526020018760090160010154815260200187600901600201548152506040518363ffffffff1660e01b81526004016121a1929190614a67565b602060405180830381600087803b1580156121bb57600080fd5b505af11580156121cf573d6000803e3d6000fd5b505050506040513d601f19601f820116820180604052508101906121f39190613fc9565b505050505050505050565b60008060008473ffffffffffffffffffffffffffffffffffffffff1673ffffffffffffffffffffffffffffffffffffffff16815260200190815260200160002060008363ffffffff1663ffffffff16815260200190815260200160002090506000600160008573ffffffffffffffffffffffffffffffffffffffff1673ffffffffffffffffffffffffffffffffffffffff16815260200190815260200160002060008463ffffffff1663ffffffff16815260200190815260200160002060003373ffffffffffffffffffffffffffffffffffffffff1673ffffffffffffffffffffffffffffffffffffffff168152602001908152602001600020905060005b81805490508110156127ff576000806000898481518110612347577f4e487b7100000000000000000000000000000000000000000000000000000000600052603260045260246000fd5b6020026020010151600081518110612388577f4e487b7100000000000000000000000000000000000000000000000000000000600052603260045260246000fd5b60200260200101518a85815181106123c9577f4e487b7100000000000000000000000000000000000000000000000000000000600052603260045260246000fd5b602002602001015160018151811061240a577f4e487b7100000000000000000000000000000000000000000000000000000000600052603260045260246000fd5b60200260200101518b868151811061244b577f4e487b7100000000000000000000000000000000000000000000000000000000600052603260045260246000fd5b602002602001015160028151811061248c577f4e487b7100000000000000000000000000000000000000000000000000000000600052603260045260246000fd5b602002602001015192509250925060008985815181106124d5577f4e487b7100000000000000000000000000000000000000000000000000000000600052603260045260246000fd5b602002602001015190506124eb848484846137ca565b868681548110612524577f4e487b7100000000000000000000000000000000000000000000000000000000600052603260045260246000fd5b9060005260206000209060030201600001541461254457505050506127ec565b8015801561259c575083868681548110612587577f4e487b7100000000000000000000000000000000000000000000000000000000600052603260045260246000fd5b90600052602060002090600302016002015410155b1561269b57866002015484101580156125b9575086600301548311155b80156125c9575086600401548210155b1561269a578660060160405180608001604052808681526020018581526020018481526020013373ffffffffffffffffffffffffffffffffffffffff16815250908060018154018082558091505060019003906000526020600020906004020160009091909190915060008201518160000155602082015181600101556040820151816002015560608201518160030160006101000a81548173ffffffffffffffffffffffffffffffffffffffff021916908373ffffffffffffffffffffffffffffffffffffffff16021790555050505b5b6000801b8686815481106126d8577f4e487b7100000000000000000000000000000000000000000000000000000000600052603260045260246000fd5b906000526020600020906003020160000181905550858581548110612726577f4e487b7100000000000000000000000000000000000000000000000000000000600052603260045260246000fd5b906000526020600020906003020160020154600260008b73ffffffffffffffffffffffffffffffffffffffff1673ffffffffffffffffffffffffffffffffffffffff16815260200190815260200160002060008a63ffffffff1663ffffffff16815260200190815260200160002060003373ffffffffffffffffffffffffffffffffffffffff1673ffffffffffffffffffffffffffffffffffffffff16815260200190815260200160002060008282546127e09190614e60565b92505081905550505050505b80806127f790615057565b9150506122fd565b50505050505050565b60008060008473ffffffffffffffffffffffffffffffffffffffff1673ffffffffffffffffffffffffffffffffffffffff16815260200190815260200160002060008363ffffffff1663ffffffff168152602001908152602001600020905080600d0160009054906101000a900460ff16156128b9576040517f08c379a00000000000000000000000000000000000000000000000000000000081526004016128b090614b64565b60405180910390fd5b80600d0160019054906101000a900460ff161561290b576040517f08c379a000000000000000000000000000000000000000000000000000000000815260040161290290614c04565b60405180910390fd5b80600701548411612951576040517f08c379a000000000000000000000000000000000000000000000000000000000815260040161294890614ba4565b60405180910390fd5b600181600d0160006101000a81548160ff02191690831515021790555060005b600380549050811015612a65578263ffffffff16600382815481106129bf577f4e487b7100000000000000000000000000000000000000000000000000000000600052603260045260246000fd5b90600052602060002090600e020160010160149054906101000a900463ffffffff1663ffffffff161415612a5257600160038281548110612a29577f4e487b7100000000000000000000000000000000000000000000000000000000600052603260045260246000fd5b90600052602060002090600e0201600d0160006101000a81548160ff0219169083151502179055505b8080612a5d90615057565b915050612971565b5050505050565b612a746139b3565b6000808473ffffffffffffffffffffffffffffffffffffffff1673ffffffffffffffffffffffffffffffffffffffff16815260200190815260200160002060008363ffffffff1663ffffffff168152602001908152602001600020604051806101c00160405290816000820160009054906101000a900473ffffffffffffffffffffffffffffffffffffffff1673ffffffffffffffffffffffffffffffffffffffff1673ffffffffffffffffffffffffffffffffffffffff1681526020016001820160009054906101000a900473ffffffffffffffffffffffffffffffffffffffff1673ffffffffffffffffffffffffffffffffffffffff1673ffffffffffffffffffffffffffffffffffffffff1681526020016001820160149054906101000a900463ffffffff1663ffffffff1663ffffffff16815260200160028201548152602001600382015481526020016004820154815260200160058201805480602002602001604051908101604052809291908181526020016000905b82821015612c8c5783829060005260206000209060030201604051806060016040529081600082015481526020016001820160009054906101000a900473ffffffffffffffffffffffffffffffffffffffff1673ffffffffffffffffffffffffffffffffffffffff1673ffffffffffffffffffffffffffffffffffffffff16815260200160028201548152505081526020019060010190612bf0565b50505050815260200160068201805480602002602001604051908101604052809291908181526020016000905b82821015612d5f57838290600052602060002090600402016040518060800160405290816000820154815260200160018201548152602001600282015481526020016003820160009054906101000a900473ffffffffffffffffffffffffffffffffffffffff1673ffffffffffffffffffffffffffffffffffffffff1673ffffffffffffffffffffffffffffffffffffffff168152505081526020019060010190612cb9565b505050508152602001600782015481526020016008820160009054906101000a900460ff16151515158152602001600982016040518060800160405290816000820154815260200160018201548152602001600282015481526020016003820160009054906101000a900473ffffffffffffffffffffffffffffffffffffffff1673ffffffffffffffffffffffffffffffffffffffff1673ffffffffffffffffffffffffffffffffffffffff16815250508152602001600d820160009054906101000a900460ff16151515158152602001600d820160019054906101000a900460ff16151515158152602001600d820160029054906101000a900460ff161515151581525050905092915050565b600260205282600052604060002060205281600052604060002060205280600052604060002060009250925050505481565b60008080600090505b600460009054906101000a900463ffffffff1663ffffffff168163ffffffff16101561301257600060038263ffffffff1681548110612f10577f4e487b7100000000000000000000000000000000000000000000000000000000600052603260045260246000fd5b90600052602060002090600e020160010160009054906101000a900473ffffffffffffffffffffffffffffffffffffffff169050600060038363ffffffff1681548110612f86577f4e487b7100000000000000000000000000000000000000000000000000000000600052603260045260246000fd5b90600052602060002090600e020160010160149054906101000a900463ffffffff1690508673ffffffffffffffffffffffffffffffffffffffff168273ffffffffffffffffffffffffffffffffffffffff16148015612ff057508563ffffffff168163ffffffff16145b15612ffd57829450600193505b5050808061300a906150a0565b915050612ea8565b5080613053576040517f08c379a000000000000000000000000000000000000000000000000000000000815260040161304a90614c44565b60405180910390fd5b60038263ffffffff1681548110613093577f4e487b7100000000000000000000000000000000000000000000000000000000600052603260045260246000fd5b90600052602060002090600e0201600080820160006101000a81549073ffffffffffffffffffffffffffffffffffffffff02191690556001820160006101000a81549073ffffffffffffffffffffffffffffffffffffffff02191690556001820160146101000a81549063ffffffff021916905560028201600090556003820160009055600482016000905560058201600061312f9190613a62565b60068201600061313f9190613a86565b60078201600090556008820160006101000a81549060ff021916905560098201600080820160009055600182016000905560028201600090556003820160006101000a81549073ffffffffffffffffffffffffffffffffffffffff02191690555050600d820160006101000a81549060ff0219169055600d820160016101000a81549060ff0219169055600d820160026101000a81549060ff021916905550506000808573ffffffffffffffffffffffffffffffffffffffff1673ffffffffffffffffffffffffffffffffffffffff16815260200190815260200160002060008463ffffffff1663ffffffff168152602001908152602001600020600080820160006101000a81549073ffffffffffffffffffffffffffffffffffffffff02191690556001820160006101000a81549073ffffffffffffffffffffffffffffffffffffffff02191690556001820160146101000a81549063ffffffff02191690556002820160009055600382016000905560048201600090556005820160006132c89190613a62565b6006820160006132d89190613a86565b60078201600090556008820160006101000a81549060ff021916905560098201600080820160009055600182016000905560028201600090556003820160006101000a81549073ffffffffffffffffffffffffffffffffffffffff02191690555050600d820160006101000a81549060ff0219169055600d820160016101000a81549060ff0219169055600d820160026101000a81549060ff021916905550506001600460008282829054906101000a900463ffffffff1661339a9190614f7e565b92506101000a81548163ffffffff021916908363ffffffff16021790555050505050565b60008060008473ffffffffffffffffffffffffffffffffffffffff1673ffffffffffffffffffffffffffffffffffffffff16815260200190815260200160002060008363ffffffff1663ffffffff168152602001908152602001600020905080600d0160009054906101000a900460ff161561346f576040517f08c379a000000000000000000000000000000000000000000000000000000000815260040161346690614b64565b60405180910390fd5b80600d0160019054906101000a900460ff16156134c1576040517f08c379a00000000000000000000000000000000000000000000000000000000081526004016134b890614c04565b60405180910390fd5b8060080160009054906101000a900460ff1615613513576040517f08c379a000000000000000000000000000000000000000000000000000000000815260040161350a90614b24565b60405180910390fd5b600181600d0160016101000a81548160ff021916908315150217905550505050565b60008060008473ffffffffffffffffffffffffffffffffffffffff1673ffffffffffffffffffffffffffffffffffffffff16815260200190815260200160002060008363ffffffff1663ffffffff168152602001908152602001600020905080600d0160009054906101000a900460ff166135e5576040517f08c379a00000000000000000000000000000000000000000000000000000000081526004016135dc90614be4565b60405180910390fd5b8060080160009054906101000a900460ff16613636576040517f08c379a000000000000000000000000000000000000000000000000000000000815260040161362d90614b04565b60405180910390fd5b6000600260008573ffffffffffffffffffffffffffffffffffffffff1673ffffffffffffffffffffffffffffffffffffffff16815260200190815260200160002060008463ffffffff1663ffffffff16815260200190815260200160002060003373ffffffffffffffffffffffffffffffffffffffff1673ffffffffffffffffffffffffffffffffffffffff16815260200190815260200160002054905060008111156137c4576000600260008673ffffffffffffffffffffffffffffffffffffffff1673ffffffffffffffffffffffffffffffffffffffff16815260200190815260200160002060008563ffffffff1663ffffffff16815260200190815260200160002060003373ffffffffffffffffffffffffffffffffffffffff1673ffffffffffffffffffffffffffffffffffffffff168152602001908152602001600020819055503373ffffffffffffffffffffffffffffffffffffffff166108fc829081150290604051600060405180830381858888f193505050501580156137c2573d6000803e3d6000fd5b505b50505050565b6000848484846040516020016137e3949392919061495f565b604051602081830303815290604052805190602001209050949350505050565b8280548282559060005260206000209060030281019282156138c55760005260206000209160030282015b828111156138c4578282600082015481600001556001820160009054906101000a900473ffffffffffffffffffffffffffffffffffffffff168160010160006101000a81548173ffffffffffffffffffffffffffffffffffffffff021916908373ffffffffffffffffffffffffffffffffffffffff1602179055506002820154816002015550509160030191906003019061382e565b5b5090506138d29190613aaa565b5090565b8280548282559060005260206000209060040281019282156139a25760005260206000209160040282015b828111156139a15782826000820154816000015560018201548160010155600282015481600201556003820160009054906101000a900473ffffffffffffffffffffffffffffffffffffffff168160030160006101000a81548173ffffffffffffffffffffffffffffffffffffffff021916908373ffffffffffffffffffffffffffffffffffffffff160217905550505091600401919060040190613901565b5b5090506139af9190613af8565b5090565b604051806101c00160405280600073ffffffffffffffffffffffffffffffffffffffff168152602001600073ffffffffffffffffffffffffffffffffffffffff168152602001600063ffffffff168152602001600081526020016000815260200160008152602001606081526020016060815260200160008152602001600015158152602001613a41613b4e565b81526020016000151581526020016000151581526020016000151581525090565b5080546000825560030290600052602060002090810190613a839190613aaa565b50565b5080546000825560040290600052602060002090810190613aa79190613af8565b50565b5b80821115613af4576000808201600090556001820160006101000a81549073ffffffffffffffffffffffffffffffffffffffff0219169055600282016000905550600301613aab565b5090565b5b80821115613b4a57600080820160009055600182016000905560028201600090556003820160006101000a81549073ffffffffffffffffffffffffffffffffffffffff021916905550600401613af9565b5090565b6040518060800160405280600081526020016000815260200160008152602001600073ffffffffffffffffffffffffffffffffffffffff1681525090565b6000613b9f613b9a84614cc6565b614ca1565b90508083825260208201905082856020860282011115613bbe57600080fd5b60005b85811015613c0857813567ffffffffffffffff811115613be057600080fd5b808601613bed8982613d53565b85526020850194506020840193505050600181019050613bc1565b5050509392505050565b6000613c25613c2084614cf2565b614ca1565b90508083825260208201905082856020860282011115613c4457600080fd5b60005b85811015613c745781613c5a8882613d7d565b845260208401935060208301925050600181019050613c47565b5050509392505050565b6000613c91613c8c84614d1e565b614ca1565b90508083825260208201905082856020860282011115613cb057600080fd5b60005b85811015613ce05781613cc68882613d92565b845260208401935060208301925050600181019050613cb3565b5050509392505050565b600081359050613cf9816153d2565b92915050565b600082601f830112613d1057600080fd5b8135613d20848260208601613b8c565b91505092915050565b600082601f830112613d3a57600080fd5b8135613d4a848260208601613c12565b91505092915050565b600082601f830112613d6457600080fd5b8135613d74848260208601613c7e565b91505092915050565b600081359050613d8c816153e9565b92915050565b600081359050613da181615400565b92915050565b600081519050613db681615400565b92915050565b600081359050613dcb81615417565b92915050565b600080600080600060a08688031215613de957600080fd5b6000613df788828901613cea565b9550506020613e0888828901613d92565b9450506040613e1988828901613cea565b9350506060613e2a88828901613dbc565b9250506080613e3b88828901613cea565b9150509295509295909350565b60008060408385031215613e5b57600080fd5b6000613e6985828601613cea565b9250506020613e7a85828601613dbc565b9150509250929050565b600080600060608486031215613e9957600080fd5b6000613ea786828701613cea565b9350506020613eb886828701613dbc565b9250506040613ec986828701613cea565b9150509250925092565b60008060008060808587031215613ee957600080fd5b6000613ef787828801613cea565b9450506020613f0887828801613dbc565b9350506040613f1987828801613cea565b9250506060613f2a87828801613d92565b91505092959194509250565b60008060008060808587031215613f4c57600080fd5b600085013567ffffffffffffffff811115613f6657600080fd5b613f7287828801613cff565b945050602085013567ffffffffffffffff811115613f8f57600080fd5b613f9b87828801613d29565b9350506040613fac87828801613cea565b9250506060613fbd87828801613dbc565b91505092959194509250565b600060208284031215613fdb57600080fd5b6000613fe984828501613da7565b91505092915050565b60008060006060848603121561400757600080fd5b600061401586828701613d92565b935050602061402686828701613cea565b925050604061403786828701613dbc565b9150509250925092565b60008060008060008060c0878903121561405a57600080fd5b600061406889828a01613d92565b965050602061407989828a01613d92565b955050604061408a89828a01613d92565b945050606061409b89828a01613cea565b93505060806140ac89828a01613dbc565b92505060a06140bd89828a01613d92565b9150509295509295509295565b60008060008060008060c087890312156140e357600080fd5b60006140f189828a01613d92565b965050602061410289828a01613d92565b955050604061411389828a01613d92565b945050606061412489828a01613d7d565b935050608061413589828a01613cea565b92505060a061414689828a01613dbc565b9150509295509295509295565b600061415f83836141e5565b60208301905092915050565b600061417783836145b6565b905092915050565b600061418b8383614820565b60608301905092915050565b60006141a38383614862565b60808301905092915050565b60006141bb838361490c565b60208301905092915050565b6141d081614fc4565b82525050565b6141df81614fc4565b82525050565b6141ee81614fb2565b82525050565b6141fd81614fb2565b82525050565b61420c81614d8e565b6142168184614e06565b925061422182614d4a565b8060005b838110156142525781516142398782614153565b965061424483614dc5565b925050600181019050614225565b505050505050565b600061426582614d99565b61426f8185614e11565b93508360208202850161428185614d54565b8060005b858110156142bd578484038952815161429e858261416b565b94506142a983614dd2565b925060208a01995050600181019050614285565b50829750879550505050505092915050565b60006142da82614da4565b6142e48185614e22565b93506142ef83614d64565b8060005b83811015614320578151614307888261417f565b975061431283614ddf565b9250506001810190506142f3565b5085935050505092915050565b600061433882614daf565b6143428185614e33565b935061434d83614d74565b8060005b8381101561437e5781516143658882614197565b975061437083614dec565b925050600181019050614351565b5085935050505092915050565b61439481614dba565b61439e8184614e44565b92506143a982614d84565b8060005b838110156143da5781516143c187826141af565b96506143cc83614df9565b9250506001810190506143ad565b505050505050565b6143eb81614fd6565b82525050565b6143fa81614fd6565b82525050565b61441161440c82614fd6565b6150cd565b82525050565b61442081614fe2565b82525050565b61442f81614fe2565b82525050565b6000614442602c83614e4f565b915061444d82615177565b604082019050919050565b6000614465601483614e4f565b9150614470826151c6565b602082019050919050565b6000614488602583614e4f565b9150614493826151ef565b604082019050919050565b60006144ab601583614e4f565b91506144b68261523e565b602082019050919050565b60006144ce602c83614e4f565b91506144d982615267565b604082019050919050565b60006144f1602483614e4f565b91506144fc826152b6565b604082019050919050565b6000614514601783614e4f565b915061451f82615305565b602082019050919050565b6000614537601983614e4f565b91506145428261532e565b602082019050919050565b600061455a601883614e4f565b915061456582615357565b602082019050919050565b600061457d601583614e4f565b915061458882615380565b602082019050919050565b60006145a0600e83614e4f565b91506145ab826153a9565b602082019050919050565b6000610220830160008301516145cf60008601826141c7565b5060208301516145e260208601826141e5565b5060408301516145f56040860182614941565b506060830151614608606086018261490c565b50608083015161461b608086018261490c565b5060a083015161462e60a086018261490c565b5060c083015184820360c086015261464682826142cf565b91505060e083015184820360e0860152614660828261432d565b91505061010083015161467761010086018261490c565b5061012083015161468c6101208601826143e2565b506101408301516146a1610140860182614862565b506101608301516146b66101c08601826143e2565b506101808301516146cb6101e08601826143e2565b506101a08301516146e06102008601826143e2565b508091505092915050565b60006102208301600083015161470460008601826141c7565b50602083015161471760208601826141e5565b50604083015161472a6040860182614941565b50606083015161473d606086018261490c565b506080830151614750608086018261490c565b5060a083015161476360a086018261490c565b5060c083015184820360c086015261477b82826142cf565b91505060e083015184820360e0860152614795828261432d565b9150506101008301516147ac61010086018261490c565b506101208301516147c16101208601826143e2565b506101408301516147d6610140860182614862565b506101608301516147eb6101c08601826143e2565b506101808301516148006101e08601826143e2565b506101a08301516148156102008601826143e2565b508091505092915050565b6060820160008201516148366000850182614417565b50602082015161484960208501826141e5565b50604082015161485c604085018261490c565b50505050565b608082016000820151614878600085018261490c565b50602082015161488b602085018261490c565b50604082015161489e604085018261490c565b5060608201516148b160608501826141e5565b50505050565b6080820160008201516148cd600085018261490c565b5060208201516148e0602085018261490c565b5060408201516148f3604085018261490c565b50606082015161490660608501826141e5565b50505050565b6149158161500c565b82525050565b6149248161500c565b82525050565b61493b6149368261500c565b6150df565b82525050565b61494a81615016565b82525050565b61495981615016565b82525050565b600061496b828761492a565b60208201915061497b828661492a565b60208201915061498b828561492a565b60208201915061499b8284614400565b60018201915081905095945050505050565b60006101e0820190506149c3600083018f6141d6565b6149d0602083018e6141f4565b6149dd604083018d614950565b6149ea606083018c61491b565b6149f7608083018b61491b565b614a0460a083018a61491b565b614a1160c083018961491b565b614a1e60e08301886143f1565b614a2c6101008301876148b7565b614a3a6101808301866143f1565b614a486101a08301856143f1565b614a566101c08301846143f1565b9d9c50505050505050505050505050565b600060e082019050614a7c6000830185614203565b614a89606083018461438b565b9392505050565b60006020820190508181036000830152614aaa818461425a565b905092915050565b6000602082019050614ac760008301846143f1565b92915050565b6000606082019050614ae26000830186614426565b614aef60208301856141f4565b614afc604083018461491b565b949350505050565b60006020820190508181036000830152614b1d81614435565b9050919050565b60006020820190508181036000830152614b3d81614458565b9050919050565b60006020820190508181036000830152614b5d8161447b565b9050919050565b60006020820190508181036000830152614b7d8161449e565b9050919050565b60006020820190508181036000830152614b9d816144c1565b9050919050565b60006020820190508181036000830152614bbd816144e4565b9050919050565b60006020820190508181036000830152614bdd81614507565b9050919050565b60006020820190508181036000830152614bfd8161452a565b9050919050565b60006020820190508181036000830152614c1d8161454d565b9050919050565b60006020820190508181036000830152614c3d81614570565b9050919050565b60006020820190508181036000830152614c5d81614593565b9050919050565b60006020820190508181036000830152614c7e81846146eb565b905092915050565b6000602082019050614c9b600083018461491b565b92915050565b6000614cab614cbc565b9050614cb78282615026565b919050565b6000604051905090565b600067ffffffffffffffff821115614ce157614ce061512a565b5b602082029050602081019050919050565b600067ffffffffffffffff821115614d0d57614d0c61512a565b5b602082029050602081019050919050565b600067ffffffffffffffff821115614d3957614d3861512a565b5b602082029050602081019050919050565b6000819050919050565b6000819050602082019050919050565b6000819050602082019050919050565b6000819050602082019050919050565b6000819050919050565b600060039050919050565b600081519050919050565b600081519050919050565b600081519050919050565b600060049050919050565b6000602082019050919050565b6000602082019050919050565b6000602082019050919050565b6000602082019050919050565b6000602082019050919050565b600081905092915050565b600082825260208201905092915050565b600082825260208201905092915050565b600082825260208201905092915050565b600081905092915050565b600082825260208201905092915050565b6000614e6b8261500c565b9150614e768361500c565b9250827fffffffffffffffffffffffffffffffffffffffffffffffffffffffffffffffff03821115614eab57614eaa6150fb565b5b828201905092915050565b6000614ec182615016565b9150614ecc83615016565b92508263ffffffff03821115614ee557614ee46150fb565b5b828201905092915050565b6000614efb8261500c565b9150614f068361500c565b9250817fffffffffffffffffffffffffffffffffffffffffffffffffffffffffffffffff0483118215151615614f3f57614f3e6150fb565b5b828202905092915050565b6000614f558261500c565b9150614f608361500c565b925082821015614f7357614f726150fb565b5b828203905092915050565b6000614f8982615016565b9150614f9483615016565b925082821015614fa757614fa66150fb565b5b828203905092915050565b6000614fbd82614fec565b9050919050565b6000614fcf82614fec565b9050919050565b60008115159050919050565b6000819050919050565b600073ffffffffffffffffffffffffffffffffffffffff82169050919050565b6000819050919050565b600063ffffffff82169050919050565b61502f82615159565b810181811067ffffffffffffffff8211171561504e5761504d61512a565b5b80604052505050565b60006150628261500c565b91507fffffffffffffffffffffffffffffffffffffffffffffffffffffffffffffffff821415615095576150946150fb565b5b600182019050919050565b60006150ab82615016565b915063ffffffff8214156150c2576150c16150fb565b5b600182019050919050565b60006150d8826150e9565b9050919050565b6000819050919050565b60006150f48261516a565b9050919050565b7f4e487b7100000000000000000000000000000000000000000000000000000000600052601160045260246000fd5b7f4e487b7100000000000000000000000000000000000000000000000000000000600052604160045260246000fd5b6000601f19601f8301169050919050565b60008160f81b9050919050565b7f5468652061756374696f6e206f776e657220686173206e6f742073656c65637460008201527f6564206120626964207965740000000000000000000000000000000000000000602082015250565b7f42696420616c72656164792073656c6563746564000000000000000000000000600082015250565b7f596f7527766520616c726561647920706c61636564207468697320626964206260008201527f65666f7265000000000000000000000000000000000000000000000000000000602082015250565b7f41756374696f6e20616c726561647920656e6465640000000000000000000000600082015250565b7f426964494420646f65736e277420636f72726573706f6e64207769746820736560008201527f6c65637465644c656e6465720000000000000000000000000000000000000000602082015250565b7f41756374696f6e206475726174696f6e20686173206e6f7420656c617073656460008201527f2079657400000000000000000000000000000000000000000000000000000000602082015250565b7f4e465420686173206e6f74206265656e207374616b6564000000000000000000600082015250565b7f41756374696f6e20686173206e6f7420656e6465642079657400000000000000600082015250565b7f41756374696f6e20616c72656164792063616e63656c65640000000000000000600082015250565b7f4e465420697320616c7265616479207374616b65640000000000000000000000600082015250565b7f4572726f72206f63637572726564000000000000000000000000000000000000600082015250565b6153db81614fb2565b81146153e657600080fd5b50565b6153f281614fd6565b81146153fd57600080fd5b50565b6154098161500c565b811461541457600080fd5b50565b61542081615016565b811461542b57600080fd5b5056fea2646970667358221220d79dc69547fbab3e1ad852e88da28df422a83a47c7d5f6ba0ec12a462f53e8d164736f6c63430008040033",
  "immutableReferences": {},
  "source": "// SPDX-License-Identifier: GPL-3.0\npragma solidity ^0.8.4;\nimport \"./NFTMarketplace.sol\";\nimport \"./P2PLoan.sol\";\n\ncontract BlindAuction {\n\n    struct BlindedBid{\n        // blinded/hashed version of bid\n        bytes32 hashedBidVal;\n        // address of bidder\n        address bidder_address;\n        // deposit\n        uint depositValue;\n    }\n\n    struct RevealedBid{\n        uint loan_amount;\n        uint interest_rate;\n        uint repayment_time;\n        // ID identifying the bid\n        //uint bidID;\n        // address of bidder\n        address bidder_address;\n    }\n\n    struct Auction_Object{\n        // address of the loanee who will receive the loan once the auction ends or they selected a bid\n        address payable beneficiary; // the owner of the NFT i.e the person who wants a loan\n\n        // NFT collection contract address \n        address NFT_contract_address;\n\n        //Individual NFT tokenID \n        uint32 NFT_tokenID;\n\n        // minimum acceptable loan amount\n        uint min_loan_amount;\n\n        // maximum interest rate\n        uint max_interest_rate;\n\n        // minimum repayment period\n        uint min_repayment_period;\n\n        // list of blinded bids\n        BlindedBid[] blindedBids;\n\n        // list of revealed bids\n        RevealedBid[] revealedBids;\n\n        // the Auction window \n        uint auctionEndTime;\n\n        // whether the owner of auction i.e the beneficiary has selected a bid\n        bool bidSelected;\n\n        // address of selected bid\n        RevealedBid selectedBid;\n\n        // whether the auction has ended\n        bool auctionEnded;\n\n        // whether the owner of auction i.e the beneficiary has canceled the auction\n        bool auctionCanceled;\n\n        // whether all bids have been revealed\n        bool allBidsRevealed;\n\n        }\n\n    // mapping of NFT_contract_address to NFT_tokenID to auction_objects\n    mapping(address=>mapping(uint32=>Auction_Object)) public Auction_Objects;\n\n\n    //maps NFT contract address to individual NFT token ID to specific bidder address to their Blinded Bid\n    mapping(address=>mapping(uint32=>mapping(address=>BlindedBid[]))) public allBlindedBids;\n\n    //maps NFT contract address to individual NFT token ID to specific bidder address to the withdrawal amt they're supposed to get\n    mapping(address=>mapping(uint32=>mapping(address=>uint))) public eligibleWithdrawals;\n\n    // auctionObjects Array;\n    Auction_Object[] Auction_Objects_array;\n    uint32 Auction_Objects_count = 0;\n    // mapping of NFT contract address to individual NFT token ID  to boolean. Necessary for checking whether the NFT is already staked\n    mapping(address=>mapping(uint32=>bool)) NFT_staked_bool;\n    //uint NFT_contract_addresses_tokenIDs_count = 0;\n    //address[] NFT_contract_addresses_tokenIDs_arr;\n\n    // makes the Hash value\n    function generateHashedBid(uint loan_amt, uint int_rate, uint repayment_period, bool fake) internal pure returns (bytes32){\n        return keccak256(abi.encodePacked(loan_amt, int_rate, repayment_period, fake));\n    }\n\n    function startAuction(uint min_loan_amount, uint max_interest_rate, uint min_repayment_period, address NFT_contract_address, uint32 NFT_tokenID, uint auction_duration) public{\n        //NFT contract address + tokenID -> hashValue\n        \n        \n        // identifies the state of the auction\n        // add new Auction Object\n        // each has a distinct NFT address\n        // need to check that NFT is not already staked\n        require(!NFT_staked_bool[NFT_contract_address][NFT_tokenID], \"NFT is already staked\");\n        //lock NFT\n        // NFTMarketplace marketplace = NFTMarketplace(NFT_contract_address);\n        // marketplace.lockNFT(NFT_contract_address, NFT_tokenID);\n        // start auction\n        Auction_Object storage auctionObj = Auction_Objects[NFT_contract_address][NFT_tokenID];\n        auctionObj.beneficiary = payable(msg.sender);\n        auctionObj.min_loan_amount = min_loan_amount;\n        auctionObj.max_interest_rate = max_interest_rate;\n        auctionObj.min_repayment_period = min_repayment_period * 1 days;\n        auctionObj.NFT_contract_address = NFT_contract_address;\n        auctionObj.NFT_tokenID = NFT_tokenID;\n        auctionObj.auctionEndTime = block.timestamp + auction_duration * 1 hours;\n        auctionObj.bidSelected = false;\n        auctionObj.auctionCanceled  = false;\n        auctionObj.allBidsRevealed = false;\n        Auction_Objects[NFT_contract_address][NFT_tokenID] = auctionObj;\n\n\n        // since NFT has been staked change boolean to true\n        NFT_staked_bool[NFT_contract_address][NFT_tokenID] = true;\n        // just incase: we maintain a list of all current auctioned NFTS\n        //NFT_contract_addresses_arr.push(NFT_contract_address);\n        //NFT_contract_addresses_count += 1;\n\n        Auction_Objects_array.push(auctionObj);\n        Auction_Objects_count += 1;\n    }\n    \n    function makeBid(uint loan_amt, uint int_rate, uint repayment_period, bool fake, address NFT_contract_address,uint32 NFT_tokenID) payable public{\n        Auction_Object storage auctionObj = Auction_Objects[NFT_contract_address][NFT_tokenID];\n        //require (!auctionObj.auctionEnded, \"Auction has Ended\");\n        //require(!auctionObj.auctionCanceled, \"Auction was canceled\");\n        // ensure that bidder is not making the same bid\n        bytes32 HashVal = generateHashedBid(loan_amt, int_rate, repayment_period, fake);\n        BlindedBid[] storage bidsToCheck = allBlindedBids[NFT_contract_address][NFT_tokenID][msg.sender];\n        for(uint i = 0; i < bidsToCheck.length; i++){\n            require(bidsToCheck[i].hashedBidVal != HashVal, \"You've already placed this bid before\");\n        }\n        // add bid to availableBids\n        auctionObj.blindedBids.push(\n            BlindedBid(HashVal, msg.sender, msg.value)\n        );\n        auctionObj.revealedBids.push(\n            RevealedBid(loan_amt, int_rate, repayment_period, msg.sender)\n        );\n        allBlindedBids[NFT_contract_address][NFT_tokenID][msg.sender].push(\n            BlindedBid(HashVal, msg.sender, msg.value\n            )\n        );\n\n        for (uint i = 0; i < Auction_Objects_array.length; i++) {\n            if (Auction_Objects_array[i].NFT_tokenID == NFT_tokenID) {\n                Auction_Objects_array[i].blindedBids.push(\n                    BlindedBid(HashVal, msg.sender, msg.value)\n                );\n                Auction_Objects_array[i].revealedBids.push(\n                    RevealedBid(loan_amt, int_rate, repayment_period, msg.sender)\n                );\n            }\n        }\n\n    }\n\n     function revealBid(uint[][] memory allSentLoanTerms, bool[] memory fake_, address NFT_contract_address,uint32 NFT_tokenID) public{\n        Auction_Object storage auctionObj = Auction_Objects[NFT_contract_address][NFT_tokenID];\n        BlindedBid[] storage bidsToCheck = allBlindedBids[NFT_contract_address][NFT_tokenID][msg.sender];\n        //require(auctionObj.auctionEnded, \"Auction has not ended\");\n        //require(allSentLoanTerms.length == bidsToCheck.length,\"Different Lengths\");\n        //require(fake_.length == bidsToCheck.length,\"Different Lengths\");\n        for(uint i = 0; i < bidsToCheck.length ;i++){\n            (uint loan_amt,uint int_rate, uint rep_period) = (allSentLoanTerms[i][0],allSentLoanTerms[i][1],allSentLoanTerms[i][2]);\n            bool fake = fake_[i];\n            if (bidsToCheck[i].hashedBidVal != generateHashedBid(loan_amt,int_rate,rep_period,fake)){\n                // bid was not revealed so continue\n                continue;\n            }\n            // check if not fake and that the depositValue is enough\n            if (!fake && bidsToCheck[i].depositValue >= loan_amt){\n                // check is the bid meet loan terms criteria\n                if (loan_amt >= auctionObj.min_loan_amount && \n                int_rate <= auctionObj.max_interest_rate && \n                rep_period >= auctionObj.min_repayment_period){\n                    auctionObj.revealedBids.push(\n                        RevealedBid(loan_amt,int_rate,rep_period,msg.sender)\n                        );\n                    //auctionObj.bidIDcounter += 1;\n                }\n            }\n            // Make it impossible for the sender to re-claim\n            // the same deposit.\n            bidsToCheck[i].hashedBidVal = 0x0;\n\n            // save the money they deposited as eligible withdrawal\n            eligibleWithdrawals[NFT_contract_address][NFT_tokenID][msg.sender] += bidsToCheck[i].depositValue;\n\n        }\n\n    }\n\n    function selectBid(address selectedLender, uint256 bidID, address NFT_contract_address,uint32 NFT_tokenID, address Loan_contract_adderss) public{\n        Auction_Object storage auctionObj = Auction_Objects[NFT_contract_address][NFT_tokenID];\n        //require(!auctionObj.bidSelected, \"A bid has already been selected\");\n\t    //require(!auctionObj.auctionCanceled, \"Auction was canceled\");\n        auctionObj.auctionEnded = true;\n        \n        require(auctionObj.revealedBids[bidID].bidder_address == selectedLender,\"BidID doesn't correspond with selectedLender\");\n       \n        RevealedBid storage bidSelected = auctionObj.revealedBids[bidID];\n        eligibleWithdrawals[NFT_contract_address][NFT_tokenID][selectedLender] = eligibleWithdrawals[NFT_contract_address][NFT_tokenID][selectedLender] - bidSelected.loan_amount;\n        //transfer ether to the beneficiary of the auction i.e the loanee\n        auctionObj.beneficiary.transfer(bidSelected.loan_amount);\n        auctionObj.selectedBid = bidSelected;\n        auctionObj.bidSelected = true;\n        //invoking loan contract\n        // SharedStructs.loanArgs memory loanArgs = SharedStructs.loanArgs(\n        //     payable(auctionObj.selectedBid.bidder_address),\n        //     auctionObj.beneficiary,\n        //     NFT_tokenID,\n        //     NFT_contract_address,\n        //     auctionObj.min_loan_amount,\n        //     auctionObj.selectedBid.interest_rate,\n        //     auctionObj.selectedBid.repayment_time\n        // );\n        P2PLoan loan_contract = P2PLoan(Loan_contract_adderss);\n        loan_contract.createLoan( \n            [auctionObj.selectedBid.bidder_address,auctionObj.beneficiary, NFT_contract_address],\n            [NFT_tokenID,auctionObj.min_loan_amount,auctionObj.selectedBid.interest_rate,auctionObj.selectedBid.repayment_time]\n        );\n    }\n\n    function endAuction(uint curr_time, address NFT_contract_address,uint32 NFT_tokenID) public {\n        Auction_Object storage auctionObj = Auction_Objects[NFT_contract_address][NFT_tokenID];\n        require(!auctionObj.auctionEnded, \"Auction already ended\");\n        require(!auctionObj.auctionCanceled, \"Auction already canceled\");\n        require(curr_time > auctionObj.auctionEndTime, \"Auction duration has not elapsed yet\");\n\n        auctionObj.auctionEnded = true;\n\n        // end auction in master list\n        for (uint i = 0; i < Auction_Objects_array.length; i++) {\n            if (Auction_Objects_array[i].NFT_tokenID == NFT_tokenID) {\n                Auction_Objects_array[i].auctionEnded = true;\n            }\n        }\n    }\n\n    function viewAuctionEnded(address NFT_contract_address,uint32 NFT_tokenID) public view returns (bool) {\n        Auction_Object storage auctionObj = Auction_Objects[NFT_contract_address][NFT_tokenID];\n        return auctionObj.auctionEnded;\n    }\n\n    function cancelAuction(address NFT_contract_address,uint32 NFT_tokenID) public{\n        Auction_Object storage auctionObj = Auction_Objects[NFT_contract_address][NFT_tokenID];\n        require(!auctionObj.auctionEnded, \"Auction already ended\");\n        require(!auctionObj.auctionCanceled, \"Auction already canceled\");\n        require(!auctionObj.bidSelected, \"Bid already selected\");\n\n        auctionObj.auctionCanceled = true;\n    }\n\n    // Allows bidders whose bids were not selected to withdraw the ether they had bid.\n    //The function is only viewable by the bidders-> frontend\n\n    // for the selected bidder who has made more than one bid, it needs to return the bids that are not selected\n    function withdraw(address NFT_contract_address,uint32 NFT_tokenID) public \n    {\n        Auction_Object storage auctionObj = Auction_Objects[NFT_contract_address][NFT_tokenID];\n        require(auctionObj.auctionEnded, \"Auction has not ended yet\");\n        require(auctionObj.bidSelected, \"The auction owner has not selected a bid yet\");\n        uint256 amount = eligibleWithdrawals[NFT_contract_address][NFT_tokenID][msg.sender];\n\n        // a more secure way to do this??\n        // https://docs.soliditylang.org/en/v0.8.7/common-patterns.html\n        if (amount > 0) {\n            // Set the account's eligible withdrawal to zero\n            eligibleWithdrawals[NFT_contract_address][NFT_tokenID][msg.sender] = 0;\n            // pay back the money they sent\n            // read that call is better than transfer for receiving money????\n            payable(msg.sender).transfer(amount);\n        }\n    }\n\n    // get a single Auction Object for one NFT address\n    function getAuctionObject(address NFT_contract_address,uint32 NFT_tokenID) public view returns (Auction_Object memory Auct_Obj)\n    {\n        return Auction_Objects[NFT_contract_address][NFT_tokenID];\n    }\n\n    // get all the Auction Objects\n    function getAllAuctionObjects() public view returns (Auction_Object[] memory Auct_Objs)\n    {\n        return Auction_Objects_array;\n    }\n\n    // delete NFT listing i.e after the loan has been repayed\n    function removeNFTListing(address NFT_contract_address,uint32 NFT_tokenID) public \n    {\n        require(NFT_staked_bool[NFT_contract_address][NFT_tokenID],\"NFT has not been staked\");\n        NFT_staked_bool[NFT_contract_address][NFT_tokenID] = false;\n        /*uint NFT_index = 0;\n        for(uint i = 0; i < NFT_contract_addresses_count; i++){\n            if(NFT_contract_addresses_arr[i] == NFT_contract_address){\n                NFT_index = i;\n                NFT_staked_bool[NFT_contract_address][NFT_tokenID] = false;\n            }\n        }\n        require(!NFT_staked_bool[NFT_contract_address][NFT_tokenID],\"Error occurred\");\n        delete NFT_contract_addresses_arr[NFT_index];\n        NFT_contract_addresses_count -= 1;*/\n    }\n\n    // delete an Auction\n    function deleteAuction(address NFT_contract_address,uint32 NFT_tokenID) public \n    {\n        uint32 index = 0;\n        bool found;\n        for(uint32 i = 0; i < Auction_Objects_count; i++){\n            address testContractAddress = Auction_Objects_array[i].NFT_contract_address;\n            uint32 testTokenID = Auction_Objects_array[i].NFT_tokenID;\n            if(testContractAddress == NFT_contract_address && testTokenID == NFT_tokenID){\n                index = i;\n                found = true;\n            }\n        }\n        require(found,\"Error occurred\");\n        delete Auction_Objects_array[index];\n        delete Auction_Objects[NFT_contract_address][NFT_tokenID];\n        Auction_Objects_count -= 1;\n    }\n\n    //return eligible withdrawal amt bidder is entitled to from a certain auction -> just for testing purposes\n    function showEligibleWithdrawal(address NFT_contract_address,uint32 NFT_tokenID) public view returns (uint256)\n    {\n        return eligibleWithdrawals[NFT_contract_address][NFT_tokenID][msg.sender];\n    }\n}",
  "sourcePath": "/Users/thikkar/Desktop/Karthik/Blockchain-Front-End/BlockchainGroup-2022Technical-Project/src/contracts/BlindAuction.sol",
  "compiler": {
    "name": "solc",
    "version": "0.8.4+commit.c7e474f2.Emscripten.clang"
  },
  "schemaVersion": "3.4.7",
  "updatedAt": "2022-05-26T04:19:05.795Z",
  "networkType": "ethereum",
  "devdoc": {
    "kind": "dev",
    "methods": {},
    "version": 1
  },
  "userdoc": {
    "kind": "user",
    "methods": {},
    "version": 1
  }
}